{
  "contractName": "TOTPWallet",
  "abi": [
    {
      "inputs": [],
      "stateMutability": "nonpayable",
      "type": "constructor"
    },
    {
      "anonymous": false,
      "inputs": [
        {
          "indexed": false,
          "internalType": "bytes16",
          "name": "data",
          "type": "bytes16"
        }
      ],
      "name": "DebugEvent",
      "type": "event"
    },
    {
      "anonymous": false,
      "inputs": [
        {
          "indexed": false,
          "internalType": "uint256",
          "name": "data",
          "type": "uint256"
        }
      ],
      "name": "DebugEvent256",
      "type": "event"
    },
    {
      "anonymous": false,
      "inputs": [
        {
          "indexed": false,
          "internalType": "bytes32",
          "name": "data",
          "type": "bytes32"
        }
      ],
      "name": "DebugEvent32",
      "type": "event"
    },
    {
      "anonymous": false,
      "inputs": [
        {
          "indexed": false,
          "internalType": "address",
          "name": "data",
          "type": "address"
        }
      ],
      "name": "DebugEventA",
      "type": "event"
    },
    {
      "anonymous": false,
      "inputs": [
        {
          "indexed": false,
          "internalType": "uint32",
          "name": "data",
          "type": "uint32"
        }
      ],
      "name": "DebugEventN",
      "type": "event"
    },
    {
      "anonymous": false,
      "inputs": [
        {
          "indexed": true,
          "internalType": "address",
          "name": "sender",
          "type": "address"
        },
        {
          "indexed": false,
          "internalType": "uint256",
          "name": "value",
          "type": "uint256"
        }
      ],
      "name": "Deposit",
      "type": "event"
    },
    {
      "anonymous": false,
      "inputs": [
        {
          "indexed": true,
          "internalType": "address",
          "name": "target",
          "type": "address"
        },
        {
          "indexed": true,
          "internalType": "uint256",
          "name": "value",
          "type": "uint256"
        },
        {
          "indexed": false,
          "internalType": "bytes",
          "name": "data",
          "type": "bytes"
        },
        {
          "indexed": false,
          "internalType": "bool",
          "name": "success",
          "type": "bool"
        },
        {
          "indexed": false,
          "internalType": "bytes",
          "name": "returnData",
          "type": "bytes"
        }
      ],
      "name": "Invoked",
      "type": "event"
    },
    {
      "anonymous": false,
      "inputs": [
        {
          "indexed": true,
          "internalType": "bool",
          "name": "success",
          "type": "bool"
        },
        {
          "indexed": false,
          "internalType": "bytes",
          "name": "returnData",
          "type": "bytes"
        },
        {
          "indexed": false,
          "internalType": "bytes32",
          "name": "signedHash",
          "type": "bytes32"
        }
      ],
      "name": "TransactionExecuted",
      "type": "event"
    },
    {
      "anonymous": false,
      "inputs": [
        {
          "indexed": false,
          "internalType": "address",
          "name": "to",
          "type": "address"
        },
        {
          "indexed": false,
          "internalType": "uint256",
          "name": "amount",
          "type": "uint256"
        }
      ],
      "name": "WalletTransfer",
      "type": "event"
    },
    {
      "anonymous": false,
      "inputs": [
        {
          "indexed": false,
          "internalType": "address",
          "name": "newImpl",
          "type": "address"
        }
      ],
      "name": "WalletUpgraded",
      "type": "event"
    },
    {
      "inputs": [],
      "name": "version",
      "outputs": [
        {
          "internalType": "uint256",
          "name": "",
          "type": "uint256"
        }
      ],
      "stateMutability": "view",
      "type": "function",
      "constant": true
    },
    {
      "inputs": [],
      "name": "wallet",
      "outputs": [
        {
          "internalType": "address",
          "name": "owner",
          "type": "address"
        },
        {
          "internalType": "bool",
          "name": "locked",
          "type": "bool"
        },
        {
          "internalType": "uint8",
          "name": "merkleHeight",
          "type": "uint8"
        },
        {
          "internalType": "uint256",
          "name": "counter",
          "type": "uint256"
        },
        {
          "internalType": "address payable",
          "name": "drainAddr",
          "type": "address"
        },
        {
          "internalType": "uint256",
          "name": "dailyLimit",
          "type": "uint256"
        },
        {
          "internalType": "uint256",
          "name": "lastDay",
          "type": "uint256"
        },
        {
          "internalType": "uint256",
          "name": "spentToday",
          "type": "uint256"
        },
        {
          "internalType": "string",
          "name": "hashStorageID",
          "type": "string"
        },
        {
          "components": [
            {
              "internalType": "address",
              "name": "newOwner",
              "type": "address"
            },
            {
              "internalType": "uint256",
              "name": "expiration",
              "type": "uint256"
            }
          ],
          "internalType": "struct Core.RecoveryInfo",
          "name": "pendingRecovery",
          "type": "tuple"
        },
        {
          "internalType": "address",
          "name": "resolver",
          "type": "address"
        },
        {
          "internalType": "uint256",
          "name": "nonce",
          "type": "uint256"
        }
      ],
      "stateMutability": "view",
      "type": "function",
      "constant": true
    },
    {
      "stateMutability": "payable",
      "type": "receive",
      "payable": true
    },
    {
      "inputs": [
        {
          "internalType": "address",
          "name": "resolver_",
          "type": "address"
        },
        {
          "internalType": "string[2]",
          "name": "domain_",
          "type": "string[2]"
        },
        {
          "internalType": "address",
          "name": "owner_",
          "type": "address"
        },
        {
          "internalType": "bytes32[]",
          "name": "rootHash_",
          "type": "bytes32[]"
        },
        {
          "internalType": "uint8",
          "name": "merkleHeight_",
          "type": "uint8"
        },
        {
          "internalType": "address payable",
          "name": "drainAddr_",
          "type": "address"
        },
        {
          "internalType": "uint256",
          "name": "dailyLimit_",
          "type": "uint256"
        },
        {
          "internalType": "address",
          "name": "feeRecipient",
          "type": "address"
        },
        {
          "internalType": "uint256",
          "name": "feeAmount",
          "type": "uint256"
        }
      ],
      "name": "initialize",
      "outputs": [],
      "stateMutability": "nonpayable",
      "type": "function"
    },
    {
      "inputs": [
        {
          "internalType": "string",
          "name": "subdomain",
          "type": "string"
        },
        {
          "internalType": "string",
          "name": "domain",
          "type": "string"
        },
        {
          "internalType": "uint256",
          "name": "duration",
          "type": "uint256"
        }
      ],
      "name": "registerENS",
      "outputs": [],
      "stateMutability": "nonpayable",
      "type": "function"
    },
    {
      "inputs": [
        {
          "internalType": "bytes",
          "name": "_data",
          "type": "bytes"
        }
      ],
      "name": "getRequiredSignatures",
      "outputs": [
        {
          "internalType": "uint8",
          "name": "",
          "type": "uint8"
        },
        {
          "internalType": "enum Core.OwnerSignature",
          "name": "",
          "type": "uint8"
        }
      ],
      "stateMutability": "view",
      "type": "function",
      "constant": true
    },
    {
      "inputs": [
        {
          "internalType": "bytes",
          "name": "data",
          "type": "bytes"
        },
        {
          "internalType": "bytes",
          "name": "signatures",
          "type": "bytes"
        },
        {
          "internalType": "uint256",
          "name": "nonce",
          "type": "uint256"
        },
        {
          "internalType": "uint256",
          "name": "gasPrice",
          "type": "uint256"
        },
        {
          "internalType": "uint256",
          "name": "gasLimit",
          "type": "uint256"
        },
        {
          "internalType": "address",
          "name": "",
          "type": "address"
        },
        {
          "internalType": "address payable",
          "name": "refundAddress",
          "type": "address"
        }
      ],
      "name": "executeFreeMetaTx",
      "outputs": [],
      "stateMutability": "nonpayable",
      "type": "function"
    },
    {
      "inputs": [
        {
          "internalType": "bytes",
          "name": "data",
          "type": "bytes"
        },
        {
          "internalType": "bytes",
          "name": "signatures",
          "type": "bytes"
        },
        {
          "internalType": "uint256",
          "name": "nonce",
          "type": "uint256"
        },
        {
          "internalType": "uint256",
          "name": "gasPrice",
          "type": "uint256"
        },
        {
          "internalType": "uint256",
          "name": "gasLimit",
          "type": "uint256"
        },
        {
          "internalType": "address",
          "name": "",
          "type": "address"
        },
        {
          "internalType": "address payable",
          "name": "refundAddress",
          "type": "address"
        }
      ],
      "name": "executeMetaTx",
      "outputs": [],
      "stateMutability": "nonpayable",
      "type": "function"
    },
    {
      "inputs": [
        {
          "components": [
            {
              "internalType": "address",
              "name": "to",
              "type": "address"
            },
            {
              "internalType": "uint256",
              "name": "value",
              "type": "uint256"
            },
            {
              "internalType": "bytes",
              "name": "data",
              "type": "bytes"
            }
          ],
          "internalType": "struct TOTPWallet.Call[]",
          "name": "_transactions",
          "type": "tuple[]"
        }
      ],
      "name": "multiCall",
      "outputs": [
        {
          "internalType": "bytes[]",
          "name": "",
          "type": "bytes[]"
        }
      ],
      "stateMutability": "nonpayable",
      "type": "function"
    },
    {
      "inputs": [
        {
          "internalType": "address payable",
          "name": "to",
          "type": "address"
        },
        {
          "internalType": "uint256",
          "name": "amount",
          "type": "uint256"
        }
      ],
      "name": "makeTransfer",
      "outputs": [],
      "stateMutability": "nonpayable",
      "type": "function"
    },
    {
      "inputs": [],
      "name": "getOwner",
      "outputs": [
        {
          "internalType": "address",
          "name": "",
          "type": "address"
        }
      ],
      "stateMutability": "view",
      "type": "function",
      "constant": true
    },
    {
      "inputs": [],
      "name": "getCounter",
      "outputs": [
        {
          "internalType": "uint256",
          "name": "",
          "type": "uint256"
        }
      ],
      "stateMutability": "view",
      "type": "function",
      "constant": true
    },
    {
      "inputs": [
        {
          "internalType": "string",
          "name": "id",
          "type": "string"
        }
      ],
      "name": "setHashStorageId",
      "outputs": [],
      "stateMutability": "nonpayable",
      "type": "function"
    },
    {
      "inputs": [],
      "name": "getHashStorageId",
      "outputs": [
        {
          "internalType": "string",
          "name": "",
          "type": "string"
        }
      ],
      "stateMutability": "view",
      "type": "function",
      "constant": true
    },
    {
      "inputs": [],
      "name": "getRootHashes",
      "outputs": [
        {
          "internalType": "bytes32[]",
          "name": "",
          "type": "bytes32[]"
        }
      ],
      "stateMutability": "view",
      "type": "function",
      "constant": true
    },
    {
      "inputs": [
        {
          "internalType": "address payable",
          "name": "addr",
          "type": "address"
        }
      ],
      "name": "setDrainAddress",
      "outputs": [],
      "stateMutability": "nonpayable",
      "type": "function"
    },
    {
      "inputs": [
        {
          "internalType": "uint256",
          "name": "amount",
          "type": "uint256"
        }
      ],
      "name": "setDailyLimit",
      "outputs": [],
      "stateMutability": "nonpayable",
      "type": "function"
    },
    {
      "inputs": [
        {
          "internalType": "address",
          "name": "guardian",
          "type": "address"
        }
      ],
      "name": "addGuardian",
      "outputs": [],
      "stateMutability": "nonpayable",
      "type": "function"
    },
    {
      "inputs": [
        {
          "internalType": "address",
          "name": "guardian",
          "type": "address"
        }
      ],
      "name": "revokeGuardian",
      "outputs": [],
      "stateMutability": "nonpayable",
      "type": "function"
    },
    {
      "inputs": [
        {
          "internalType": "address",
          "name": "addr",
          "type": "address"
        }
      ],
      "name": "isGuardian",
      "outputs": [
        {
          "internalType": "bool",
          "name": "",
          "type": "bool"
        }
      ],
      "stateMutability": "view",
      "type": "function",
      "constant": true
    },
    {
      "inputs": [],
      "name": "getGuardians",
      "outputs": [
        {
          "internalType": "address[]",
          "name": "",
          "type": "address[]"
        }
      ],
      "stateMutability": "view",
      "type": "function",
      "constant": true
    },
    {
      "inputs": [
        {
          "internalType": "address",
          "name": "newOwner_",
          "type": "address"
        }
      ],
      "name": "startRecoverGuardianOnly",
      "outputs": [],
      "stateMutability": "nonpayable",
      "type": "function"
    },
    {
      "inputs": [
        {
          "internalType": "bytes32",
          "name": "secretHash",
          "type": "bytes32"
        },
        {
          "internalType": "bytes32",
          "name": "dataHash",
          "type": "bytes32"
        }
      ],
      "name": "startRecoverCommit",
      "outputs": [],
      "stateMutability": "nonpayable",
      "type": "function"
    },
    {
      "inputs": [
        {
          "internalType": "address",
          "name": "newOwner",
          "type": "address"
        },
        {
          "internalType": "bytes32[]",
          "name": "confirmMaterial",
          "type": "bytes32[]"
        }
      ],
      "name": "startRecoveryReveal",
      "outputs": [],
      "stateMutability": "nonpayable",
      "type": "function"
    },
    {
      "inputs": [],
      "name": "isRecovering",
      "outputs": [
        {
          "internalType": "bool",
          "name": "",
          "type": "bool"
        }
      ],
      "stateMutability": "view",
      "type": "function",
      "constant": true
    },
    {
      "inputs": [],
      "name": "cancelRecovery",
      "outputs": [],
      "stateMutability": "nonpayable",
      "type": "function"
    },
    {
      "inputs": [],
      "name": "getRecovery",
      "outputs": [
        {
          "internalType": "address",
          "name": "",
          "type": "address"
        },
        {
          "internalType": "uint256",
          "name": "",
          "type": "uint256"
        }
      ],
      "stateMutability": "view",
      "type": "function",
      "constant": true
    },
    {
      "inputs": [],
      "name": "finalizeRecovery",
      "outputs": [],
      "stateMutability": "nonpayable",
      "type": "function"
    },
    {
      "inputs": [
        {
          "internalType": "address",
          "name": "newMasterCopy",
          "type": "address"
        }
      ],
      "name": "upgradeMasterCopy",
      "outputs": [],
      "stateMutability": "nonpayable",
      "type": "function"
    },
    {
      "inputs": [],
      "name": "getMasterCopy",
      "outputs": [
        {
          "internalType": "address",
          "name": "",
          "type": "address"
        }
      ],
      "stateMutability": "view",
      "type": "function",
      "constant": true
    },
    {
      "inputs": [
        {
          "internalType": "address",
          "name": "",
          "type": "address"
        },
        {
          "internalType": "address",
          "name": "",
          "type": "address"
        },
        {
          "internalType": "uint256",
          "name": "",
          "type": "uint256"
        },
        {
          "internalType": "uint256",
          "name": "",
          "type": "uint256"
        },
        {
          "internalType": "bytes",
          "name": "",
          "type": "bytes"
        }
      ],
      "name": "onERC1155Received",
      "outputs": [
        {
          "internalType": "bytes4",
          "name": "",
          "type": "bytes4"
        }
      ],
      "stateMutability": "pure",
      "type": "function",
      "constant": true
    },
    {
      "inputs": [
        {
          "internalType": "address",
          "name": "operator",
          "type": "address"
        },
        {
          "internalType": "address",
          "name": "from",
          "type": "address"
        },
        {
          "internalType": "uint256[]",
          "name": "ids",
          "type": "uint256[]"
        },
        {
          "internalType": "uint256[]",
          "name": "values",
          "type": "uint256[]"
        },
        {
          "internalType": "bytes",
          "name": "data",
          "type": "bytes"
        }
      ],
      "name": "onERC1155BatchReceived",
      "outputs": [
        {
          "internalType": "bytes4",
          "name": "",
          "type": "bytes4"
        }
      ],
      "stateMutability": "view",
      "type": "function",
      "constant": true
    },
    {
      "inputs": [
        {
          "internalType": "bytes4",
          "name": "interfaceID",
          "type": "bytes4"
        }
      ],
      "name": "supportsInterface",
      "outputs": [
        {
          "internalType": "bool",
          "name": "",
          "type": "bool"
        }
      ],
      "stateMutability": "pure",
      "type": "function",
      "constant": true
    },
    {
      "inputs": [
        {
          "internalType": "address",
          "name": "",
          "type": "address"
        },
        {
          "internalType": "address",
          "name": "",
          "type": "address"
        },
        {
          "internalType": "uint256",
          "name": "",
          "type": "uint256"
        },
        {
          "internalType": "bytes",
          "name": "",
          "type": "bytes"
        }
      ],
      "name": "onERC721Received",
      "outputs": [
        {
          "internalType": "bytes4",
          "name": "",
          "type": "bytes4"
        }
      ],
      "stateMutability": "pure",
      "type": "function",
      "constant": true
    }
  ],
  "bytecode": "0x608060405234801561001057600080fd5b506001601160006101000a81548160ff021916908315150217905550615cce806200003c6000396000f3fe6080604052600436106101f25760003560e01c8063893d20e81161010d578063b6c38432116100a0578063d50733221161006f578063d5073322146108a4578063de033715146108cd578063e2ccb305146108f6578063ef24c7361461090d578063f23a6e61146109365761039c565b8063b6c38432146107ea578063bc197c8114610813578063c832fe5f14610850578063cabd82c51461087b5761039c565b8063a526d83b116100dc578063a526d83b14610746578063abea22cc1461076f578063af648c3d14610798578063b20d30a9146107c15761039c565b8063893d20e81461069c5780638ada066e146106c75780638df2730a146106f257806391ac27881461071b5761039c565b80632f23a3ab11610185578063693b60a211610154578063693b60a2146105e0578063706f76581461060957806375a3f50d1461063557806379d3d98c146106735761039c565b80632f23a3ab1461052d57806344f9639014610556578063521eb2731461057f57806354fd4d50146105b55761039c565b80630c68ba21116101c15780630c68ba211461044b578063150b7a02146104885780631f13938d146104c5578063248b1701146104f05761039c565b806301ffc9a7146103a157806304e80e90146103de5780630665f04b146104095780630ba234d6146104345761039c565b3661039c57600034111561039a57600160040160009054906101000a900473ffffffffffffffffffffffffffffffffffffffff1673ffffffffffffffffffffffffffffffffffffffff163373ffffffffffffffffffffffffffffffffffffffff161480156102675750670de0b6b3a764000034145b1561034b5760004790506000600160040160009054906101000a900473ffffffffffffffffffffffffffffffffffffffff1673ffffffffffffffffffffffffffffffffffffffff1682620186a0906040516102c190614e36565b600060405180830381858888f193505050503d80600081146102ff576040519150601f19603f3d011682016040523d82523d6000602084013e610304565b606091505b5050905080610348576040517f08c379a000000000000000000000000000000000000000000000000000000000815260040161033f906152d5565b60405180910390fd5b50505b3373ffffffffffffffffffffffffffffffffffffffff167fe1fffcc4923d04b559f4d29a8bfc6cda04eb5b0d3c460751c2402c5c5cc9109c346040516103919190615520565b60405180910390a25b005b600080fd5b3480156103ad57600080fd5b506103c860048036038101906103c3919061402d565b610973565b6040516103d5919061505d565b60405180910390f35b3480156103ea57600080fd5b506103f3610a62565b6040516104009190614e4b565b60405180910390f35b34801561041557600080fd5b5061041e610a8b565b60405161042b9190614fd5565b60405180910390f35b34801561044057600080fd5b50610449610b1c565b005b34801561045757600080fd5b50610472600480360381019061046d9190613b9b565b610c89565b60405161047f919061505d565b60405180910390f35b34801561049457600080fd5b506104af60048036038101906104aa9190613cf5565b610d1e565b6040516104bc9190615078565b60405180910390f35b3480156104d157600080fd5b506104da610d33565b6040516104e79190615153565b60405180910390f35b3480156104fc57600080fd5b5061051760048036038101906105129190613f5a565b610dc8565b604051610524919061503b565b60405180910390f35b34801561053957600080fd5b50610554600480360381019061054f91906141df565b6110a8565b005b34801561056257600080fd5b5061057d600480360381019061057891906140c4565b611208565b005b34801561058b57600080fd5b506105946113dd565b6040516105ac9c9b9a99989796959493929190614eeb565b60405180910390f35b3480156105c157600080fd5b506105ca611597565b6040516105d79190615520565b60405180910390f35b3480156105ec57600080fd5b50610607600480360381019061060291906140c4565b61159c565b005b34801561061557600080fd5b5061061e611829565b60405161062c929190614fac565b60405180910390f35b34801561064157600080fd5b5061065c6004803603810190610657919061407f565b611866565b60405161066a929190615564565b60405180910390f35b34801561067f57600080fd5b5061069a6004803603810190610695919061419a565b611d0a565b005b3480156106a857600080fd5b506106b1611e08565b6040516106be9190614e4b565b60405180910390f35b3480156106d357600080fd5b506106dc611e35565b6040516106e99190615520565b60405180910390f35b3480156106fe57600080fd5b5061071960048036038101906107149190613ff1565b611e42565b005b34801561072757600080fd5b50610730611f7b565b60405161073d919061505d565b60405180910390f35b34801561075257600080fd5b5061076d60048036038101906107689190613b9b565b611f8e565b005b34801561077b57600080fd5b5061079660048036038101906107919190613bed565b6120e2565b005b3480156107a457600080fd5b506107bf60048036038101906107ba9190613b9b565b612369565b005b3480156107cd57600080fd5b506107e860048036038101906107e39190614268565b6124bd565b005b3480156107f657600080fd5b50610811600480360381019061080c9190613bc4565b6125af565b005b34801561081f57600080fd5b5061083a60048036038101906108359190613c29565b6126db565b6040516108479190615078565b60405180910390f35b34801561085c57600080fd5b5061086561283c565b6040516108729190615019565b60405180910390f35b34801561088757600080fd5b506108a2600480360381019061089d9190613e07565b612896565b005b3480156108b057600080fd5b506108cb60048036038101906108c69190613e5f565b612f28565b005b3480156108d957600080fd5b506108f460048036038101906108ef9190613b9b565b61330e565b005b34801561090257600080fd5b5061090b6133f6565b005b34801561091957600080fd5b50610934600480360381019061092f9190613b9b565b613462565b005b34801561094257600080fd5b5061095d60048036038101906109589190613d75565b61353f565b60405161096a9190615078565b60405180910390f35b60006301ffc9a760e01b7bffffffffffffffffffffffffffffffffffffffffffffffffffffffff1916827bffffffffffffffffffffffffffffffffffffffffffffffffffffffff19161480610a0c575063f23a6e6160e01b7bffffffffffffffffffffffffffffffffffffffffffffffffffffffff1916827bffffffffffffffffffffffffffffffffffffffffffffffffffffffff1916145b80610a5b575063150b7a0260e01b7bffffffffffffffffffffffffffffffffffffffffffffffffffffffff1916827bffffffffffffffffffffffffffffffffffffffffffffffffffffffff1916145b9050919050565b60008060009054906101000a900473ffffffffffffffffffffffffffffffffffffffff16905090565b60606001600501805480602002602001604051908101604052809291908181526020018280548015610b1257602002820191906000526020600020905b8160009054906101000a900473ffffffffffffffffffffffffffffffffffffffff1673ffffffffffffffffffffffffffffffffffffffff1681526020019060010190808311610ac8575b5050505050905090565b3073ffffffffffffffffffffffffffffffffffffffff163373ffffffffffffffffffffffffffffffffffffffff161480610bc25750600160000160009054906101000a900473ffffffffffffffffffffffffffffffffffffffff1673ffffffffffffffffffffffffffffffffffffffff163373ffffffffffffffffffffffffffffffffffffffff16148015610bc15750600160000160149054906101000a900460ff16155b5b610c01576040517f08c379a0000000000000000000000000000000000000000000000000000000008152600401610bf890615335565b60405180910390fd5b6040518060400160405280600073ffffffffffffffffffffffffffffffffffffffff16815260200160008152506001600b0160008201518160000160006101000a81548173ffffffffffffffffffffffffffffffffffffffff021916908373ffffffffffffffffffffffffffffffffffffffff16021790555060208201518160010155905050565b6000600173__Guardians_____________________________63121c95629091846040518363ffffffff1660e01b8152600401610cc7929190615410565b60206040518083038186803b158015610cdf57600080fd5b505af4158015610cf3573d6000803e3d6000fd5b505050506040513d601f19601f82011682018060405250810190610d179190613f9f565b9050919050565b600063150b7a0260e01b905095945050505050565b60606001600a018054610d45906159de565b80601f0160208091040260200160405190810160405280929190818152602001828054610d71906159de565b8015610dbe5780601f10610d9357610100808354040283529160200191610dbe565b820191906000526020600020905b815481529060010190602001808311610da157829003601f168201915b5050505050905090565b60603073ffffffffffffffffffffffffffffffffffffffff163373ffffffffffffffffffffffffffffffffffffffff161480610e705750600160000160009054906101000a900473ffffffffffffffffffffffffffffffffffffffff1673ffffffffffffffffffffffffffffffffffffffff163373ffffffffffffffffffffffffffffffffffffffff16148015610e6f5750600160000160149054906101000a900460ff16155b5b610eaf576040517f08c379a0000000000000000000000000000000000000000000000000000000008152600401610ea690615335565b60405180910390fd5b60008383905067ffffffffffffffff811115610ef4577f4e487b7100000000000000000000000000000000000000000000000000000000600052604160045260246000fd5b604051908082528060200260200182016040528015610f2757816020015b6060815260200190600190039081610f125790505b50905060005b8484905081101561109d57611046858583818110610f74577f4e487b7100000000000000000000000000000000000000000000000000000000600052603260045260246000fd5b9050602002810190610f86919061563b565b6000016020810190610f989190613b9b565b868684818110610fd1577f4e487b7100000000000000000000000000000000000000000000000000000000600052603260045260246000fd5b9050602002810190610fe3919061563b565b60200135878785818110611020577f4e487b7100000000000000000000000000000000000000000000000000000000600052603260045260246000fd5b9050602002810190611032919061563b565b8060400190611041919061558d565b613555565b82828151811061107f577f4e487b7100000000000000000000000000000000000000000000000000000000600052603260045260246000fd5b6020026020010181905250808061109590615a10565b915050610f2d565b508091505092915050565b3073ffffffffffffffffffffffffffffffffffffffff163373ffffffffffffffffffffffffffffffffffffffff16148061114e5750600160000160009054906101000a900473ffffffffffffffffffffffffffffffffffffffff1673ffffffffffffffffffffffffffffffffffffffff163373ffffffffffffffffffffffffffffffffffffffff1614801561114d5750600160000160149054906101000a900460ff16155b5b61118d576040517f08c379a000000000000000000000000000000000000000000000000000000000815260040161118490615335565b60405180910390fd5b600173__NameService___________________________63145f7620909187878787876040518763ffffffff1660e01b81526004016111d196959493929190615439565b60006040518083038186803b1580156111e957600080fd5b505af41580156111fd573d6000803e3d6000fd5b505050505050505050565b611210613841565b61121a8a8a611866565b826000018360200182600481111561125b577f4e487b7100000000000000000000000000000000000000000000000000000000600052602160045260246000fd5b6004811115611293577f4e487b7100000000000000000000000000000000000000000000000000000000600052602160045260246000fd5b8152508260ff1660ff16815250505073__MetaTx________________________________631815d80160018c8c8c8c8c8c8c8b8b6040518b63ffffffff1660e01b81526004016112ec9a99989796959493929190615490565b60006040518083038186803b15801561130457600080fd5b505af4158015611318573d6000803e3d6000fd5b50505050600060603073ffffffffffffffffffffffffffffffffffffffff168c8c604051611347929190614e1d565b6000604051808303816000865af19150503d8060008114611384576040519150601f19603f3d011682016040523d82523d6000602084013e611389565b606091505b5080925081935050508115157f8e2386b9ce82e5e79311687a54408ad06fa06a338e2057cdcdfaf3a076743f1e8260006040516113c79291906150da565b60405180910390a2505050505050505050505050565b60018060000160009054906101000a900473ffffffffffffffffffffffffffffffffffffffff16908060000160149054906101000a900460ff16908060020160009054906101000a900460ff16908060030154908060040160009054906101000a900473ffffffffffffffffffffffffffffffffffffffff169080600701549080600801549080600901549080600a018054611478906159de565b80601f01602080910402602001604051908101604052809291908181526020018280546114a4906159de565b80156114f15780601f106114c6576101008083540402835291602001916114f1565b820191906000526020600020905b8154815290600101906020018083116114d457829003601f168201915b50505050509080600b016040518060400160405290816000820160009054906101000a900473ffffffffffffffffffffffffffffffffffffffff1673ffffffffffffffffffffffffffffffffffffffff1673ffffffffffffffffffffffffffffffffffffffff1681526020016001820154815250509080600e0160009054906101000a900473ffffffffffffffffffffffffffffffffffffffff169080600f015490508c565b600181565b60005a90506115a9613841565b6115b38b8b611866565b82600001836020018260048111156115f4577f4e487b7100000000000000000000000000000000000000000000000000000000600052602160045260246000fd5b600481111561162c577f4e487b7100000000000000000000000000000000000000000000000000000000600052602160045260246000fd5b8152508260ff1660ff16815250505073__MetaTx________________________________631815d80160018d8d8d8d8d8d8d8c8b6040518b63ffffffff1660e01b81526004016116859a99989796959493929190615490565b60006040518083038186803b15801561169d57600080fd5b505af41580156116b1573d6000803e3d6000fd5b50505050600060603073ffffffffffffffffffffffffffffffffffffffff168d8d6040516116e0929190614e1d565b6000604051808303816000865af19150503d806000811461171d576040519150601f19603f3d011682016040523d82523d6000602084013e611722565b606091505b5080925081935050506000881180156117385750815b80156117715750600073ffffffffffffffffffffffffffffffffffffffff168573ffffffffffffffffffffffffffffffffffffffff1614155b156117dd576000620111705a866117889190615818565b6117929190615791565b90508573ffffffffffffffffffffffffffffffffffffffff166108fc829081150290604051600060405180830381858888f193505050501580156117da573d6000803e3d6000fd5b50505b8115157f8e2386b9ce82e5e79311687a54408ad06fa06a338e2057cdcdfaf3a076743f1e8260006040516118129291906150da565b60405180910390a250505050505050505050505050565b6000806001600b0160000160009054906101000a900473ffffffffffffffffffffffffffffffffffffffff166001600b0160010154915091509091565b60008060006118b885858080601f016020809104026020016040519081016040528093929190818152602001838380828437600081840152601f19601f82011690508083019250505050505050613639565b905063abea22cc60e01b7bffffffffffffffffffffffffffffffffffffffffffffffffffffffff1916817bffffffffffffffffffffffffffffffffffffffffffffffffffffffff19161480611951575063248b170160e01b7bffffffffffffffffffffffffffffffffffffffffffffffffffffffff1916817bffffffffffffffffffffffffffffffffffffffffffffffffffffffff1916145b806119a0575063a526d83b60e01b7bffffffffffffffffffffffffffffffffffffffffffffffffffffffff1916817bffffffffffffffffffffffffffffffffffffffffffffffffffffffff1916145b806119ef575063af648c3d60e01b7bffffffffffffffffffffffffffffffffffffffffffffffffffffffff1916817bffffffffffffffffffffffffffffffffffffffffffffffffffffffff1916145b80611a3e575063de03371560e01b7bffffffffffffffffffffffffffffffffffffffffffffffffffffffff1916817bffffffffffffffffffffffffffffffffffffffffffffffffffffffff1916145b80611a8d575063b20d30a960e01b7bffffffffffffffffffffffffffffffffffffffffffffffffffffffff1916817bffffffffffffffffffffffffffffffffffffffffffffffffffffffff1916145b80611adc575063b6c3843260e01b7bffffffffffffffffffffffffffffffffffffffffffffffffffffffff1916817bffffffffffffffffffffffffffffffffffffffffffffffffffffffff1916145b80611b2b57506379d3d98c60e01b7bffffffffffffffffffffffffffffffffffffffffffffffffffffffff1916817bffffffffffffffffffffffffffffffffffffffffffffffffffffffff1916145b15611b3d576001809250925050611d03565b63ef24c73660e01b7bffffffffffffffffffffffffffffffffffffffffffffffffffffffff1916817bffffffffffffffffffffffffffffffffffffffffffffffffffffffff19161415611bfb5760026001600501805490501015611bd6576040517f08c379a0000000000000000000000000000000000000000000000000000000008152600401611bcd906151b5565b60405180910390fd5b6000611beb600160050180549050600261368c565b9050806003935093505050611d03565b638df2730a60e01b7bffffffffffffffffffffffffffffffffffffffffffffffffffffffff1916817bffffffffffffffffffffffffffffffffffffffffffffffffffffffff19161415611c6d576000611c5d600160050180549050600261368c565b9050806003935093505050611d03565b63cabd82c560e01b7bffffffffffffffffffffffffffffffffffffffffffffffffffffffff1916817bffffffffffffffffffffffffffffffffffffffffffffffffffffffff19161415611cc857600060039250925050611d03565b6040517f08c379a0000000000000000000000000000000000000000000000000000000008152600401611cfa906153b5565b60405180910390fd5b9250929050565b3073ffffffffffffffffffffffffffffffffffffffff163373ffffffffffffffffffffffffffffffffffffffff161480611db05750600160000160009054906101000a900473ffffffffffffffffffffffffffffffffffffffff1673ffffffffffffffffffffffffffffffffffffffff163373ffffffffffffffffffffffffffffffffffffffff16148015611daf5750600160000160149054906101000a900460ff16155b5b611def576040517f08c379a0000000000000000000000000000000000000000000000000000000008152600401611de690615335565b60405180910390fd5b81816001600a019190611e03929190613896565b505050565b6000600160000160009054906101000a900473ffffffffffffffffffffffffffffffffffffffff16905090565b6000600160030154905090565b3073ffffffffffffffffffffffffffffffffffffffff163373ffffffffffffffffffffffffffffffffffffffff1614611eb0576040517f08c379a0000000000000000000000000000000000000000000000000000000008152600401611ea790615315565b60405180910390fd5b60006001600d0160008481526020019081526020016000206001015414611f0c576040517f08c379a0000000000000000000000000000000000000000000000000000000008152600401611f0390615175565b60405180910390fd5b6040518060600160405280828152602001438152602001600015158152506001600d016000848152602001908152602001600020600082015181600001556020820151816001015560408201518160020160006101000a81548160ff0219169083151502179055509050505050565b6000806001600b01600101541415905090565b3073ffffffffffffffffffffffffffffffffffffffff163373ffffffffffffffffffffffffffffffffffffffff1614806120345750600160000160009054906101000a900473ffffffffffffffffffffffffffffffffffffffff1673ffffffffffffffffffffffffffffffffffffffff163373ffffffffffffffffffffffffffffffffffffffff161480156120335750600160000160149054906101000a900460ff16155b5b612073576040517f08c379a000000000000000000000000000000000000000000000000000000000815260040161206a90615335565b60405180910390fd5b600173__Guardians_____________________________6397b9ce099091836040518363ffffffff1660e01b81526004016120af929190615410565b60006040518083038186803b1580156120c757600080fd5b505af41580156120db573d6000803e3d6000fd5b5050505050565b3073ffffffffffffffffffffffffffffffffffffffff163373ffffffffffffffffffffffffffffffffffffffff1614806121885750600160000160009054906101000a900473ffffffffffffffffffffffffffffffffffffffff1673ffffffffffffffffffffffffffffffffffffffff163373ffffffffffffffffffffffffffffffffffffffff161480156121875750600160000160149054906101000a900460ff16155b5b6121c7576040517f08c379a00000000000000000000000000000000000000000000000000000000081526004016121be90615335565b60405180910390fd5b6121db8160016136d190919063ffffffff16565b61221a576040517f08c379a000000000000000000000000000000000000000000000000000000000815260040161221190615395565b60405180910390fd5b8047101561225d576040517f08c379a000000000000000000000000000000000000000000000000000000000815260040161225490615295565b60405180910390fd5b80600160090160008282546122729190615791565b9250508190555060008273ffffffffffffffffffffffffffffffffffffffff1682620186a0906040516122a490614e36565b600060405180830381858888f193505050503d80600081146122e2576040519150601f19603f3d011682016040523d82523d6000602084013e6122e7565b606091505b505090508061232b576040517f08c379a000000000000000000000000000000000000000000000000000000000815260040161232290615355565b60405180910390fd5b7f688077ec2e4cf5b023188b3c964a1a6481e6ff3fd3d3af3971ae0bf2172f7565838360405161235c929190614e66565b60405180910390a1505050565b3073ffffffffffffffffffffffffffffffffffffffff163373ffffffffffffffffffffffffffffffffffffffff16148061240f5750600160000160009054906101000a900473ffffffffffffffffffffffffffffffffffffffff1673ffffffffffffffffffffffffffffffffffffffff163373ffffffffffffffffffffffffffffffffffffffff1614801561240e5750600160000160149054906101000a900460ff16155b5b61244e576040517f08c379a000000000000000000000000000000000000000000000000000000000815260040161244590615335565b60405180910390fd5b600173__Guardians_____________________________63e98ee0859091836040518363ffffffff1660e01b815260040161248a929190615410565b60006040518083038186803b1580156124a257600080fd5b505af41580156124b6573d6000803e3d6000fd5b5050505050565b3073ffffffffffffffffffffffffffffffffffffffff163373ffffffffffffffffffffffffffffffffffffffff1614806125635750600160000160009054906101000a900473ffffffffffffffffffffffffffffffffffffffff1673ffffffffffffffffffffffffffffffffffffffff163373ffffffffffffffffffffffffffffffffffffffff161480156125625750600160000160149054906101000a900460ff16155b5b6125a2576040517f08c379a000000000000000000000000000000000000000000000000000000000815260040161259990615335565b60405180910390fd5b8060016007018190555050565b3073ffffffffffffffffffffffffffffffffffffffff163373ffffffffffffffffffffffffffffffffffffffff1614806126555750600160000160009054906101000a900473ffffffffffffffffffffffffffffffffffffffff1673ffffffffffffffffffffffffffffffffffffffff163373ffffffffffffffffffffffffffffffffffffffff161480156126545750600160000160149054906101000a900460ff16155b5b612694576040517f08c379a000000000000000000000000000000000000000000000000000000000815260040161268b90615335565b60405180910390fd5b80600160040160006101000a81548173ffffffffffffffffffffffffffffffffffffffff021916908373ffffffffffffffffffffffffffffffffffffffff16021790555050565b600080600090505b878790508163ffffffff161015612825573073ffffffffffffffffffffffffffffffffffffffff1663f23a6e618b8b8b8b8663ffffffff16818110612751577f4e487b7100000000000000000000000000000000000000000000000000000000600052603260045260246000fd5b905060200201358a8a8763ffffffff16818110612797577f4e487b7100000000000000000000000000000000000000000000000000000000600052603260045260246000fd5b9050602002013589896040518763ffffffff1660e01b81526004016127c196959493929190614e8f565b60206040518083038186803b1580156127d957600080fd5b505afa1580156127ed573d6000803e3d6000fd5b505050506040513d601f19601f820116820180604052508101906128119190614056565b50808061281d90615a59565b9150506126e3565b5063bc197c8160e01b905098975050505050505050565b60606001800180548060200260200160405190810160405280929190818152602001828054801561288c57602002820191906000526020600020905b815481526020019060010190808311612878575b5050505050905090565b3073ffffffffffffffffffffffffffffffffffffffff163373ffffffffffffffffffffffffffffffffffffffff1614612904576040517f08c379a00000000000000000000000000000000000000000000000000000000081526004016128fb90615315565b60405180910390fd5b818180806020026020016040519081016040528093929190818152602001838360200280828437600081840152601f19601f82011690508083019250505050505050600073__Recovery______________________________63a6659f26836040518263ffffffff1660e01b815260040161297f9190614ff7565b60206040518083038186803b15801561299757600080fd5b505af41580156129ab573d6000803e3d6000fd5b505050506040513d601f19601f820116820180604052508101906129cf9190613fc8565b9050600073__Recovery______________________________63396c8e65600160020160009054906101000a900460ff168560018751612a0f9190615818565b81518110612a46577f4e487b7100000000000000000000000000000000000000000000000000000000600052603260045260246000fd5b60200260200101516040518363ffffffff1660e01b8152600401612a6b92919061553b565b60206040518083038186803b158015612a8357600080fd5b505af4158015612a97573d6000803e3d6000fd5b505050506040513d601f19601f82011682018060405250810190612abb9190614291565b90506001600301548163ffffffff161015612b0b576040517f08c379a0000000000000000000000000000000000000000000000000000000008152600401612b02906152b5565b60405180910390fd5b60326001600301548263ffffffff16612b249190615818565b10612b64576040517f08c379a0000000000000000000000000000000000000000000000000000000008152600401612b5b906152f5565b60405180910390fd5b6000805b60018001805490508163ffffffff161015612be957600180018163ffffffff1681548110612bbf577f4e487b7100000000000000000000000000000000000000000000000000000000600052603260045260246000fd5b9060005260206000200154841415612bd657600191505b8080612be190615a59565b915050612b68565b5080612c2a576040517f08c379a0000000000000000000000000000000000000000000000000000000008152600401612c21906151f5565b60405180910390fd5b600086866000818110612c66577f4e487b7100000000000000000000000000000000000000000000000000000000600052603260045260246000fd5b90506020020135604051602001612c7d9190614e02565b60405160208183030381529060405280519060200120905060006001600d016000838152602001908152602001600020600101541415612cf2576040517f08c379a0000000000000000000000000000000000000000000000000000000008152600401612ce990615195565b60405180910390fd5b600015156001600d01600083815260200190815260200160002060020160009054906101000a900460ff16151514612d5f576040517f08c379a0000000000000000000000000000000000000000000000000000000008152600401612d5690615235565b60405180910390fd5b600f6001600d0160008381526020019081526020016000206001015443612d869190615818565b10612dc6576040517f08c379a0000000000000000000000000000000000000000000000000000000008152600401612dbd90615375565b60405180910390fd5b60008888886000818110612e03577f4e487b7100000000000000000000000000000000000000000000000000000000600052603260045260246000fd5b90506020020135604051602001612e1b929190614dd6565b6040516020818303038152906040528051906020012090506001600d016000838152602001908152602001600020600001548114612e8e576040517f08c379a0000000000000000000000000000000000000000000000000000000008152600401612e85906153d5565b60405180910390fd5b600180600d01600084815260200190815260200160002060020160006101000a81548160ff02191690831515021790555088600160000160006101000a81548173ffffffffffffffffffffffffffffffffffffffff021916908373ffffffffffffffffffffffffffffffffffffffff16021790555060018060030154612f149190615791565b600160030181905550505050505050505050565b896001600e0160006101000a81548173ffffffffffffffffffffffffffffffffffffffff021916908373ffffffffffffffffffffffffffffffffffffffff160217905550600073ffffffffffffffffffffffffffffffffffffffff16600160000160009054906101000a900473ffffffffffffffffffffffffffffffffffffffff1673ffffffffffffffffffffffffffffffffffffffff1614613000576040517f08c379a0000000000000000000000000000000000000000000000000000000008152600401612ff7906151d5565b60405180910390fd5b87600160000160006101000a81548173ffffffffffffffffffffffffffffffffffffffff021916908373ffffffffffffffffffffffffffffffffffffffff16021790555060005b878790508163ffffffff1610156130db576001800188888363ffffffff1681811061309b577f4e487b7100000000000000000000000000000000000000000000000000000000600052603260045260246000fd5b90506020020135908060018154018082558091505060019003906000526020600020016000909190919091505580806130d390615a59565b915050613047565b5084600160020160006101000a81548160ff021916908360ff16021790555083600160040160006101000a81548173ffffffffffffffffffffffffffffffffffffffff021916908373ffffffffffffffffffffffffffffffffffffffff16021790555082600160070181905550600089600060028110613184577f4e487b7100000000000000000000000000000000000000000000000000000000600052603260045260246000fd5b60200281019061319491906155e4565b905011156132a4573073ffffffffffffffffffffffffffffffffffffffff16632f23a3ab8a6000600281106131f2577f4e487b7100000000000000000000000000000000000000000000000000000000600052603260045260246000fd5b60200281019061320291906155e4565b8c60016002811061323c577f4e487b7100000000000000000000000000000000000000000000000000000000600052603260045260246000fd5b60200281019061324c91906155e4565b63bbf81e006040518663ffffffff1660e01b815260040161327195949392919061510a565b600060405180830381600087803b15801561328b57600080fd5b505af115801561329f573d6000803e3d6000fd5b505050505b600073ffffffffffffffffffffffffffffffffffffffff168273ffffffffffffffffffffffffffffffffffffffff161461330257613301818373ffffffffffffffffffffffffffffffffffffffff1661374d90919063ffffffff16565b5b50505050505050505050565b3073ffffffffffffffffffffffffffffffffffffffff163373ffffffffffffffffffffffffffffffffffffffff161461337c576040517f08c379a000000000000000000000000000000000000000000000000000000000815260040161337390615315565b60405180910390fd5b806000806101000a81548173ffffffffffffffffffffffffffffffffffffffff021916908373ffffffffffffffffffffffffffffffffffffffff1602179055507f8a5dcb0249bae905183e794960410c37563e6ab514b1add384425d153972118d816040516133eb9190614e4b565b60405180910390a150565b600173__Recovery______________________________635fd7224790916040518263ffffffff1660e01b815260040161343091906153f5565b60006040518083038186803b15801561344857600080fd5b505af415801561345c573d6000803e3d6000fd5b50505050565b3073ffffffffffffffffffffffffffffffffffffffff163373ffffffffffffffffffffffffffffffffffffffff16146134d0576040517f08c379a00000000000000000000000000000000000000000000000000000000081526004016134c790615315565b60405180910390fd5b600173__Recovery______________________________636ffc1c629091836040518363ffffffff1660e01b815260040161350c929190615410565b60006040518083038186803b15801561352457600080fd5b505af4158015613538573d6000803e3d6000fd5b5050505050565b600063f23a6e6160e01b90509695505050505050565b606060008573ffffffffffffffffffffffffffffffffffffffff16858585604051613581929190614e1d565b60006040518083038185875af1925050503d80600081146135be576040519150601f19603f3d011682016040523d82523d6000602084013e6135c3565b606091505b508093508192505050848673ffffffffffffffffffffffffffffffffffffffff167f79ff2e3e6b1a9fd5afa9ad7b27b6075a3f05484916a94f800548947efa77e83b868685876040516136199493929190615093565b60405180910390a380613630573d6000803e3d6000fd5b50949350505050565b6000600482511015613680576040517f08c379a000000000000000000000000000000000000000000000000000000000815260040161367790615215565b60405180910390fd5b60208201519050919050565b600080828461369b91906157e7565b9050600083856136ab9190615ab4565b14156136ba57809150506136cb565b6001816136c79190615791565b9150505b92915050565b60006201518083600801546136e69190615791565b42111561370157428360080181905550600083600901819055505b82600701548284600901546137169190615791565b1180613734575082600901548284600901546137329190615791565b105b156137425760009050613747565b600190505b92915050565b80471015613790576040517f08c379a000000000000000000000000000000000000000000000000000000000815260040161378790615275565b60405180910390fd5b60008273ffffffffffffffffffffffffffffffffffffffff16826040516137b690614e36565b60006040518083038185875af1925050503d80600081146137f3576040519150601f19603f3d011682016040523d82523d6000602084013e6137f8565b606091505b505090508061383c576040517f08c379a000000000000000000000000000000000000000000000000000000000815260040161383390615255565b60405180910390fd5b505050565b6040518060400160405280600060ff16815260200160006004811115613890577f4e487b7100000000000000000000000000000000000000000000000000000000600052602160045260246000fd5b81525090565b8280546138a2906159de565b90600052602060002090601f0160209004810192826138c4576000855561390b565b82601f106138dd57803560ff191683800117855561390b565b8280016001018555821561390b579182015b8281111561390a5782358255916020019190600101906138ef565b5b509050613918919061391c565b5090565b5b8082111561393557600081600090555060010161391d565b5090565b60008135905061394881615be0565b92915050565b60008135905061395d81615bf7565b92915050565b60008083601f84011261397557600080fd5b8235905067ffffffffffffffff81111561398e57600080fd5b6020830191508360208202830111156139a657600080fd5b9250929050565b6000819050826020600202820111156139c557600080fd5b92915050565b60008083601f8401126139dd57600080fd5b8235905067ffffffffffffffff8111156139f657600080fd5b602083019150836020820283011115613a0e57600080fd5b9250929050565b60008083601f840112613a2757600080fd5b8235905067ffffffffffffffff811115613a4057600080fd5b602083019150836020820283011115613a5857600080fd5b9250929050565b600081519050613a6e81615c0e565b92915050565b600081359050613a8381615c25565b92915050565b600081519050613a9881615c25565b92915050565b600081359050613aad81615c3c565b92915050565b600081519050613ac281615c3c565b92915050565b60008083601f840112613ada57600080fd5b8235905067ffffffffffffffff811115613af357600080fd5b602083019150836001820283011115613b0b57600080fd5b9250929050565b60008083601f840112613b2457600080fd5b8235905067ffffffffffffffff811115613b3d57600080fd5b602083019150836001820283011115613b5557600080fd5b9250929050565b600081359050613b6b81615c53565b92915050565b600081519050613b8081615c6a565b92915050565b600081359050613b9581615c81565b92915050565b600060208284031215613bad57600080fd5b6000613bbb84828501613939565b91505092915050565b600060208284031215613bd657600080fd5b6000613be48482850161394e565b91505092915050565b60008060408385031215613c0057600080fd5b6000613c0e8582860161394e565b9250506020613c1f85828601613b5c565b9150509250929050565b60008060008060008060008060a0898b031215613c4557600080fd5b6000613c538b828c01613939565b9850506020613c648b828c01613939565b975050604089013567ffffffffffffffff811115613c8157600080fd5b613c8d8b828c01613a15565b9650965050606089013567ffffffffffffffff811115613cac57600080fd5b613cb88b828c01613a15565b9450945050608089013567ffffffffffffffff811115613cd757600080fd5b613ce38b828c01613ac8565b92509250509295985092959890939650565b600080600080600060808688031215613d0d57600080fd5b6000613d1b88828901613939565b9550506020613d2c88828901613939565b9450506040613d3d88828901613b5c565b935050606086013567ffffffffffffffff811115613d5a57600080fd5b613d6688828901613ac8565b92509250509295509295909350565b60008060008060008060a08789031215613d8e57600080fd5b6000613d9c89828a01613939565b9650506020613dad89828a01613939565b9550506040613dbe89828a01613b5c565b9450506060613dcf89828a01613b5c565b935050608087013567ffffffffffffffff811115613dec57600080fd5b613df889828a01613ac8565b92509250509295509295509295565b600080600060408486031215613e1c57600080fd5b6000613e2a86828701613939565b935050602084013567ffffffffffffffff811115613e4757600080fd5b613e5386828701613963565b92509250509250925092565b6000806000806000806000806000806101208b8d031215613e7f57600080fd5b6000613e8d8d828e01613939565b9a505060208b013567ffffffffffffffff811115613eaa57600080fd5b613eb68d828e016139ad565b9950506040613ec78d828e01613939565b98505060608b013567ffffffffffffffff811115613ee457600080fd5b613ef08d828e01613963565b97509750506080613f038d828e01613b86565b95505060a0613f148d828e0161394e565b94505060c0613f258d828e01613b5c565b93505060e0613f368d828e01613939565b925050610100613f488d828e01613b5c565b9150509295989b9194979a5092959850565b60008060208385031215613f6d57600080fd5b600083013567ffffffffffffffff811115613f8757600080fd5b613f93858286016139cb565b92509250509250929050565b600060208284031215613fb157600080fd5b6000613fbf84828501613a5f565b91505092915050565b600060208284031215613fda57600080fd5b6000613fe884828501613a89565b91505092915050565b6000806040838503121561400457600080fd5b600061401285828601613a74565b925050602061402385828601613a74565b9150509250929050565b60006020828403121561403f57600080fd5b600061404d84828501613a9e565b91505092915050565b60006020828403121561406857600080fd5b600061407684828501613ab3565b91505092915050565b6000806020838503121561409257600080fd5b600083013567ffffffffffffffff8111156140ac57600080fd5b6140b885828601613ac8565b92509250509250929050565b600080600080600080600080600060e08a8c0312156140e257600080fd5b60008a013567ffffffffffffffff8111156140fc57600080fd5b6141088c828d01613ac8565b995099505060208a013567ffffffffffffffff81111561412757600080fd5b6141338c828d01613ac8565b975097505060406141468c828d01613b5c565b95505060606141578c828d01613b5c565b94505060806141688c828d01613b5c565b93505060a06141798c828d01613939565b92505060c061418a8c828d0161394e565b9150509295985092959850929598565b600080602083850312156141ad57600080fd5b600083013567ffffffffffffffff8111156141c757600080fd5b6141d385828601613b12565b92509250509250929050565b6000806000806000606086880312156141f757600080fd5b600086013567ffffffffffffffff81111561421157600080fd5b61421d88828901613b12565b9550955050602086013567ffffffffffffffff81111561423c57600080fd5b61424888828901613b12565b9350935050604061425b88828901613b5c565b9150509295509295909350565b60006020828403121561427a57600080fd5b600061428884828501613b5c565b91505092915050565b6000602082840312156142a357600080fd5b60006142b184828501613b71565b91505092915050565b60006142c68383614343565b60208301905092915050565b60006142de8383614525565b60208301905092915050565b60006142f68383614543565b60208301905092915050565b600061430e83836145f7565b905092915050565b61431f81615916565b82525050565b61432e81615916565b82525050565b61433d8161585e565b82525050565b61434c8161584c565b82525050565b61435b8161584c565b82525050565b61436a8161584c565b82525050565b61438161437c8261584c565b615a86565b82525050565b60006143928261568f565b61439c81856156ed565b93506143a78361565f565b8060005b838110156143d85781516143bf88826142ba565b97506143ca836156c6565b9250506001810190506143ab565b5085935050505092915050565b60006143f08261569a565b6143fa81856156fe565b93506144058361566f565b8060005b8381101561443657815161441d88826142d2565b9750614428836156d3565b925050600181019050614409565b5085935050505092915050565b600061444e8261569a565b614458818561570f565b93506144638361566f565b8060005b8381101561449457815161447b88826142ea565b9750614486836156d3565b925050600181019050614467565b5085935050505092915050565b60006144ac826156a5565b6144b68185615720565b9350836020820285016144c88561567f565b8060005b8581101561450457848403895281516144e58582614302565b94506144f0836156e0565b925060208a019950506001810190506144cc565b50829750879550505050505092915050565b61451f81615870565b82525050565b61452e8161587c565b82525050565b61453d8161587c565b82525050565b61454c8161587c565b82525050565b61456361455e8261587c565b615a98565b82525050565b61457281615886565b82525050565b60006145848385615742565b935061459183858461599c565b61459a83615ba1565b840190509392505050565b60006145b18385615753565b93506145be83858461599c565b6145c783615ba1565b840190509392505050565b60006145de8385615764565b93506145eb83858461599c565b82840190509392505050565b6000614602826156b0565b61460c8185615731565b935061461c8185602086016159ab565b61462581615ba1565b840191505092915050565b600061463b826156b0565b6146458185615742565b93506146558185602086016159ab565b61465e81615ba1565b840191505092915050565b61467281615928565b82525050565b61468181615928565b82525050565b6146908161593a565b82525050565b61469f81615954565b82525050565b60006146b1838561576f565b93506146be83858461599c565b6146c783615ba1565b840190509392505050565b60006146de8385615780565b93506146eb83858461599c565b6146f483615ba1565b840190509392505050565b600061470a826156bb565b614714818561576f565b93506147248185602086016159ab565b61472d81615ba1565b840191505092915050565b600061474560148361576f565b91507f434f4d4d495420414c52454144592045584953540000000000000000000000006000830152602082019050919050565b600061478560098361576f565b91507f4e4f20434f4d4d495400000000000000000000000000000000000000000000006000830152602082019050919050565b60006147c5601a8361576f565b91507f4e4f545f4d4545545f4d494e494d554d5f475541524449414e530000000000006000830152602082019050919050565b600061480560138361576f565b91507f494e495449414c495a45445f414c5245414459000000000000000000000000006000830152602082019050919050565b600061484560108361576f565b91507f554e45585045435445442050524f4f46000000000000000000000000000000006000830152602082019050919050565b6000614885601d8361576f565b91507f5574696c733a20496e76616c69642066756e6374696f6e5072656669780000006000830152602082019050919050565b60006148c560178361576f565b91507f434f4d4d495420414c52454144592052455645414c45440000000000000000006000830152602082019050919050565b6000614905603a8361576f565b91507f416464726573733a20756e61626c6520746f2073656e642076616c75652c207260008301527f6563697069656e74206d617920686176652072657665727465640000000000006020830152604082019050919050565b600061496b601d8361576f565b91507f416464726573733a20696e73756666696369656e742062616c616e63650000006000830152602082019050919050565b60006149ab60128361576f565b91507f6e6f7420656e6f7567682062616c616e636500000000000000000000000000006000830152602082019050919050565b60006149eb60288361576f565b91507f50726f766964656420636f756e746572206d757374206265206772656174657260008301527f206f722073616d650000000000000000000000000000000000000000000000006020830152604082019050919050565b6000614a51601d8361576f565b91507f526563656976653a2045787465726e616c2063616c6c206661696c65640000006000830152602082019050919050565b6000614a91602f8361576f565b91507f50726f766964656420636f756e746572206d757374206e6f74206265206d6f7260008301527f65207468616e20353020737465707300000000000000000000000000000000006020830152604082019050919050565b6000614af7600e8361576f565b91507f6d757374206265206d65746174780000000000000000000000000000000000006000830152602082019050919050565b6000614b3760298361576f565b91507f4e4f545f46524f4d5f57414c4c45545f4f525f4f574e45525f4f525f57414c4c60008301527f45545f4c4f434b454400000000000000000000000000000000000000000000006020830152604082019050919050565b6000614b9d60228361576f565b91507f4d616b655472616e736665723a2045787465726e616c2063616c6c206661696c60008301527f65640000000000000000000000000000000000000000000000000000000000006020830152604082019050919050565b6000614c0360118361576f565b91507f436f6d6d697420697320746f6f206f6c640000000000000000000000000000006000830152602082019050919050565b6000614c4360158361576f565b91507f6f766572207769746864726177616c206c696d697400000000000000000000006000830152602082019050919050565b6000614c83600e8361576f565b91507f756e6b6e6f776e206d6574686f640000000000000000000000000000000000006000830152602082019050919050565b6000614cc3600083615764565b9150600082019050919050565b6000614cdd60178361576f565b91507f446174616861736820646f6573206e6f74206d617463680000000000000000006000830152602082019050919050565b604082016000820151614d266000850182614343565b506020820151614d396020850182614d7c565b50505050565b604082016000820151614d556000850182614dc7565b506020820151614d686020850182614678565b50505050565b8082525050565b8082525050565b614d85816158ef565b82525050565b614d94816158ef565b82525050565b614da3816158ef565b82525050565b614db28161598a565b82525050565b614dc181615909565b82525050565b614dd081615909565b82525050565b6000614de28285614370565b601482019150614df28284614552565b6020820191508190509392505050565b6000614e0e8284614552565b60208201915081905092915050565b6000614e2a8284866145d2565b91508190509392505050565b6000614e4182614cb6565b9150819050919050565b6000602082019050614e606000830184614352565b92915050565b6000604082019050614e7b6000830185614316565b614e886020830184614d8b565b9392505050565b600060a082019050614ea46000830189614352565b614eb16020830188614352565b614ebe6040830187614d8b565b614ecb6060830186614d8b565b8181036080830152614ede818486614578565b9050979650505050505050565b60006101a082019050614f01600083018f614352565b614f0e602083018e614516565b614f1b604083018d614db8565b614f28606083018c614d8b565b614f35608083018b614334565b614f4260a083018a614d8b565b614f4f60c0830189614d8b565b614f5c60e0830188614d8b565b818103610100830152614f6f81876146ff565b9050614f7f610120830186614d10565b614f8d610160830185614352565b614f9b610180830184614d8b565b9d9c50505050505050505050505050565b6000604082019050614fc16000830185614352565b614fce6020830184614d8b565b9392505050565b60006020820190508181036000830152614fef8184614387565b905092915050565b600060208201905081810360008301526150118184614443565b905092915050565b6000602082019050818103600083015261503381846143e5565b905092915050565b6000602082019050818103600083015261505581846144a1565b905092915050565b60006020820190506150726000830184614516565b92915050565b600060208201905061508d6000830184614569565b92915050565b600060608201905081810360008301526150ae818688614578565b90506150bd6020830185614516565b81810360408301526150cf8184614630565b905095945050505050565b600060408201905081810360008301526150f48185614630565b90506151036020830184614687565b9392505050565b600060608201905081810360008301526151258187896146a5565b9050818103602083015261513a8185876146a5565b90506151496040830184614696565b9695505050505050565b6000602082019050818103600083015261516d81846146ff565b905092915050565b6000602082019050818103600083015261518e81614738565b9050919050565b600060208201905081810360008301526151ae81614778565b9050919050565b600060208201905081810360008301526151ce816147b8565b9050919050565b600060208201905081810360008301526151ee816147f8565b9050919050565b6000602082019050818103600083015261520e81614838565b9050919050565b6000602082019050818103600083015261522e81614878565b9050919050565b6000602082019050818103600083015261524e816148b8565b9050919050565b6000602082019050818103600083015261526e816148f8565b9050919050565b6000602082019050818103600083015261528e8161495e565b9050919050565b600060208201905081810360008301526152ae8161499e565b9050919050565b600060208201905081810360008301526152ce816149de565b9050919050565b600060208201905081810360008301526152ee81614a44565b9050919050565b6000602082019050818103600083015261530e81614a84565b9050919050565b6000602082019050818103600083015261532e81614aea565b9050919050565b6000602082019050818103600083015261534e81614b2a565b9050919050565b6000602082019050818103600083015261536e81614b90565b9050919050565b6000602082019050818103600083015261538e81614bf6565b9050919050565b600060208201905081810360008301526153ae81614c36565b9050919050565b600060208201905081810360008301526153ce81614c76565b9050919050565b600060208201905081810360008301526153ee81614cd0565b9050919050565b600060208201905061540a6000830184614d6e565b92915050565b60006040820190506154256000830185614d6e565b6154326020830184614361565b9392505050565b600060808201905061544e6000830189614d6e565b81810360208301526154618187896146d2565b905081810360408301526154768185876146d2565b90506154856060830184614d9a565b979650505050505050565b6000610120820190506154a6600083018d614d75565b81810360208301526154b9818b8d6145a5565b905081810360408301526154ce81898b6145a5565b90506154dd6060830188614d9a565b6154ea6080830187614d9a565b6154f760a0830186614d9a565b61550460c0830185614325565b61551160e0830184614d3f565b9b9a5050505050505050505050565b60006020820190506155356000830184614d8b565b92915050565b60006040820190506155506000830185614da9565b61555d6020830184614534565b9392505050565b60006040820190506155796000830185614db8565b6155866020830184614669565b9392505050565b600080833560016020038436030381126155a657600080fd5b80840192508235915067ffffffffffffffff8211156155c457600080fd5b6020830192506001820236038313156155dc57600080fd5b509250929050565b600080833560016020038436030381126155fd57600080fd5b80840192508235915067ffffffffffffffff82111561561b57600080fd5b60208301925060018202360383131561563357600080fd5b509250929050565b60008235600160600383360303811261565357600080fd5b80830191505092915050565b6000819050602082019050919050565b6000819050602082019050919050565b6000819050602082019050919050565b600081519050919050565b600081519050919050565b600081519050919050565b600081519050919050565b600081519050919050565b6000602082019050919050565b6000602082019050919050565b6000602082019050919050565b600082825260208201905092915050565b600082825260208201905092915050565b600082825260208201905092915050565b600082825260208201905092915050565b600082825260208201905092915050565b600082825260208201905092915050565b600082825260208201905092915050565b600081905092915050565b600082825260208201905092915050565b600082825260208201905092915050565b600061579c826158ef565b91506157a7836158ef565b9250827fffffffffffffffffffffffffffffffffffffffffffffffffffffffffffffffff038211156157dc576157db615ae5565b5b828201905092915050565b60006157f2826158ef565b91506157fd836158ef565b92508261580d5761580c615b14565b5b828204905092915050565b6000615823826158ef565b915061582e836158ef565b92508282101561584157615840615ae5565b5b828203905092915050565b6000615857826158cf565b9050919050565b6000615869826158cf565b9050919050565b60008115159050919050565b6000819050919050565b60007fffffffff0000000000000000000000000000000000000000000000000000000082169050919050565b60008190506158c082615bcc565b919050565b6000819050919050565b600073ffffffffffffffffffffffffffffffffffffffff82169050919050565b6000819050919050565b600063ffffffff82169050919050565b600060ff82169050919050565b600061592182615966565b9050919050565b6000615933826158b2565b9050919050565b600061594d615948836158c5565b615bb2565b9050919050565b600061595f826158ef565b9050919050565b600061597182615978565b9050919050565b6000615983826158cf565b9050919050565b600061599582615909565b9050919050565b82818337600083830152505050565b60005b838110156159c95780820151818401526020810190506159ae565b838111156159d8576000848401525b50505050565b600060028204905060018216806159f657607f821691505b60208210811415615a0a57615a09615b72565b5b50919050565b6000615a1b826158ef565b91507fffffffffffffffffffffffffffffffffffffffffffffffffffffffffffffffff821415615a4e57615a4d615ae5565b5b600182019050919050565b6000615a64826158f9565b915063ffffffff821415615a7b57615a7a615ae5565b5b600182019050919050565b6000615a9182615aa2565b9050919050565b6000819050919050565b6000615aad82615bbf565b9050919050565b6000615abf826158ef565b9150615aca836158ef565b925082615ada57615ad9615b14565b5b828206905092915050565b7f4e487b7100000000000000000000000000000000000000000000000000000000600052601160045260246000fd5b7f4e487b7100000000000000000000000000000000000000000000000000000000600052601260045260246000fd5b7f4e487b7100000000000000000000000000000000000000000000000000000000600052602160045260246000fd5b7f4e487b7100000000000000000000000000000000000000000000000000000000600052602260045260246000fd5b6000601f19601f8301169050919050565b60008160001b9050919050565b60008160601b9050919050565b60058110615bdd57615bdc615b43565b5b50565b615be98161584c565b8114615bf457600080fd5b50565b615c008161585e565b8114615c0b57600080fd5b50565b615c1781615870565b8114615c2257600080fd5b50565b615c2e8161587c565b8114615c3957600080fd5b50565b615c4581615886565b8114615c5057600080fd5b50565b615c5c816158ef565b8114615c6757600080fd5b50565b615c73816158f9565b8114615c7e57600080fd5b50565b615c8a81615909565b8114615c9557600080fd5b5056fea2646970667358221220126d6dfbe32e21b46160436e9e70c52b77a038562a5b2ae580cfb56fc520300564736f6c63430008000033",
  "immutableReferences": {},
  "source": "// SPDX-License-Identifier: GPL-3.0-only\n\npragma solidity >=0.7.6;\npragma experimental ABIEncoderV2;\n\nimport \"@openzeppelin/contracts/token/ERC721/IERC721Receiver.sol\";\nimport \"@openzeppelin/contracts/token/ERC721/IERC721.sol\";\nimport \"@openzeppelin/contracts/token/ERC1155/IERC1155Receiver.sol\";\nimport \"@openzeppelin/contracts/token/ERC1155/IERC1155.sol\";\nimport \"@openzeppelin/contracts/token/ERC20/IERC20.sol\";\nimport \"@openzeppelin/contracts/token/ERC20/extensions/IERC20Metadata.sol\";\nimport \"@openzeppelin/contracts/utils/Address.sol\";\n\nimport \"./core/wallet_data.sol\";\nimport \"./features/guardians.sol\";\nimport \"./features/daily_limit.sol\";\nimport \"./features/recovery.sol\";\nimport \"./features/metatx.sol\";\nimport \"./features/name_service.sol\";\n\ncontract TOTPWallet is IERC721Receiver, IERC1155Receiver {\n    using Address for address payable;\n    using Guardians for Core.Wallet;\n    using DailyLimit for Core.Wallet;\n    using Recovery for Core.Wallet;\n    using MetaTx for Core.Wallet;\n    using NameService for Core.Wallet;\n\n    // DATA LAYOUT - ALWAYS ADD NEW VAR TO LAST\n\n    address masterCopy;\n    Core.Wallet public wallet;\n    bool internal isImplementationContract;\n    uint256 public constant version = 1;\n\n    // END OF DATA LAYOUT\n    struct Call {\n        address to;\n        uint256 value;\n        bytes data;\n    }\n\n    event DebugEvent(bytes16 data);\n    event DebugEvent32(bytes32 data);\n    event DebugEventN(uint32 data);\n    event DebugEventA(address data);\n    event DebugEvent256(uint256 data);\n    event WalletTransfer(address to, uint256 amount);\n    event Deposit(address indexed sender, uint256 value);\n    event WalletUpgraded(address newImpl);\n    event TransactionExecuted(bool indexed success, bytes returnData, bytes32 signedHash);\n    event Invoked(address indexed target, uint256 indexed value, bytes data, bool success, bytes returnData);\n\n    constructor() {\n        isImplementationContract = true;\n    }\n\n    modifier disableInImplementationContract() {\n        require(!isImplementationContract, \"DISALLOWED_ON_IMPLEMENTATION_CONTRACT\");\n        _;\n    }\n\n    // keep methods <= 8 parameters of get stack to deep\n    function initialize(\n        address resolver_,\n        string[2] calldata domain_, // empty means no registration\n        address owner_,\n        bytes32[] calldata rootHash_,\n        uint8 merkleHeight_,\n        address payable drainAddr_,\n        uint256 dailyLimit_,\n        address feeRecipient,\n        uint256 feeAmount // disableInImplementationContract()\n    ) external {\n        wallet.resolver = resolver_;\n\n        //emit DebugEvent256(address(this).balance);\n        require(wallet.owner == address(0), \"INITIALIZED_ALREADY\");\n        // require(address(this).balance >= feeAmount, \"NOT ENOUGH TO PAY FEE\");\n\n        wallet.owner = owner_;\n        for (uint32 i = 0; i < rootHash_.length; i++) {\n            wallet.rootHash.push(rootHash_[i]);\n        }\n        wallet.merkleHeight = merkleHeight_;\n        wallet.drainAddr = drainAddr_;\n        wallet.dailyLimit = dailyLimit_;\n\n        // STACK TOO DEEP\n        if (bytes(domain_[0]).length > 0) {\n            this.registerENS(domain_[0], domain_[1], 60 * 60 * 24 * 365 * 100); // 100 years\n        }\n\n        if (feeRecipient != address(0)) {\n            payable(feeRecipient).sendValue(feeAmount);\n        }\n    }\n\n    function registerENS(\n        string calldata subdomain,\n        string calldata domain,\n        uint256 duration\n    ) external onlyFromWalletOrOwnerWhenUnlocked {\n        wallet.registerENS(subdomain, domain, duration);\n    }\n\n    modifier onlyModule() {\n        require(msg.sender == address(this));\n        _;\n    }\n\n    modifier onlyFromWalletOrOwnerWhenUnlocked() {\n        require(\n            msg.sender == address(this) || (msg.sender == wallet.owner && !wallet.locked),\n            \"NOT_FROM_WALLET_OR_OWNER_OR_WALLET_LOCKED\"\n        );\n        _;\n    }\n\n    modifier onlySelf() {\n        require(msg.sender == address(this), \"must be metatx\");\n        _;\n    }\n\n    // confirmMaterial contains OTP + intermediatory hashes + sides\n    modifier onlyValidTOTP(bytes32[] memory confirmMaterial) {\n        bytes32 reduced = Recovery._reduceConfirmMaterial(confirmMaterial);\n        uint32 counterProvided = Recovery._deriveChildTreeIdx(\n            wallet.merkleHeight,\n            confirmMaterial[confirmMaterial.length - 1]\n        );\n        require(counterProvided >= wallet.counter, \"Provided counter must be greater or same\");\n\n        // Google Authenticator doesn't allow custom counter or change counter back; so we must allow room to fudge\n        // allow some room if the counters were skipped at some point\n        require(counterProvided - wallet.counter < 50, \"Provided counter must not be more than 50 steps\");\n\n        bool foundMatch = false;\n        for (uint32 i = 0; i < wallet.rootHash.length; i++) {\n            if (reduced == wallet.rootHash[i]) {\n                foundMatch = true;\n            }\n        }\n        require(foundMatch, \"UNEXPECTED PROOF\");\n        _;\n    }\n\n    function getRequiredSignatures(bytes calldata _data) public view returns (uint8, Core.OwnerSignature) {\n        bytes4 methodId = functionPrefix(_data);\n\n        if (\n            methodId == TOTPWallet.makeTransfer.selector ||\n            methodId == TOTPWallet.multiCall.selector ||\n            methodId == TOTPWallet.addGuardian.selector ||\n            methodId == TOTPWallet.revokeGuardian.selector ||\n            methodId == TOTPWallet.upgradeMasterCopy.selector ||\n            methodId == TOTPWallet.setDailyLimit.selector ||\n            methodId == TOTPWallet.setDrainAddress.selector ||\n            methodId == TOTPWallet.setHashStorageId.selector\n        ) {\n            return (1, Core.OwnerSignature.Required);\n        }\n\n        if (methodId == TOTPWallet.startRecoverGuardianOnly.selector) {\n            require(wallet.guardians.length >= 2, \"NOT_MEET_MINIMUM_GUARDIANS\");\n            uint256 requiredSignatures = MetaTx.ceil(wallet.guardians.length, 2);\n            return (uint8(requiredSignatures), Core.OwnerSignature.Disallowed);\n        }\n\n        // 1 of 1 = 0 sig\n        // 2 of 2 = 1 sig + HOTP\n        // 2 of 3 = 1 sig + HOTP\n        if (methodId == TOTPWallet.startRecoverCommit.selector) {\n            uint256 requiredSignatures = MetaTx.ceil(wallet.guardians.length, 2);\n            return (uint8(requiredSignatures), Core.OwnerSignature.Disallowed);\n        }\n        if (methodId == TOTPWallet.startRecoveryReveal.selector) {\n            return (0, Core.OwnerSignature.Disallowed);\n        }\n\n        revert(\"unknown method\");\n    }\n\n    function executeFreeMetaTx(\n        bytes calldata data,\n        bytes calldata signatures,\n        uint256 nonce,\n        uint256 gasPrice,\n        uint256 gasLimit,\n        address, /*refundToken*/\n        address payable refundAddress\n    ) external {\n        Core.SignatureRequirement memory sigRequirement;\n        (sigRequirement.requiredSignatures, sigRequirement.ownerSignatureRequirement) = getRequiredSignatures(data);\n\n        MetaTx.validateTx(wallet, data, signatures, nonce, gasPrice, gasLimit, refundAddress, sigRequirement);\n\n        bool success;\n        bytes memory returnData;\n        (success, returnData) = address(this).call(data);\n\n        emit TransactionExecuted(success, returnData, 0x0);\n    }\n\n    function executeMetaTx(\n        bytes calldata data,\n        bytes calldata signatures,\n        uint256 nonce,\n        uint256 gasPrice,\n        uint256 gasLimit,\n        address, /*refundToken*/\n        address payable refundAddress\n    ) external {\n        uint256 gasLeft = gasleft();\n        Core.SignatureRequirement memory sigRequirement;\n        (sigRequirement.requiredSignatures, sigRequirement.ownerSignatureRequirement) = getRequiredSignatures(data);\n\n        MetaTx.validateTx(wallet, data, signatures, nonce, gasPrice, gasLimit, refundAddress, sigRequirement);\n\n        bool success;\n        bytes memory returnData;\n        (success, returnData) = address(this).call(data);\n\n        if (gasPrice > 0 && success && refundAddress != address(0x0)) {\n            uint256 gasUsed = gasLeft - gasleft() + 70000; //35k overhead\n            refundAddress.transfer(gasUsed);\n        }\n        emit TransactionExecuted(success, returnData, 0x0);\n    }\n\n    function multiCall(Call[] calldata _transactions)\n        external\n        onlyFromWalletOrOwnerWhenUnlocked\n        returns (bytes[] memory)\n    {\n        bytes[] memory results = new bytes[](_transactions.length);\n        for (uint256 i = 0; i < _transactions.length; i++) {\n            results[i] = invoke(_transactions[i].to, _transactions[i].value, _transactions[i].data);\n        }\n        return results;\n    }\n\n    function makeTransfer(address payable to, uint256 amount) external onlyFromWalletOrOwnerWhenUnlocked {\n        require(wallet.isUnderLimit(amount), \"over withdrawal limit\");\n        // TODO: Call chainlink for RFID verification\n        // TODO: require chainlink provided RFID to equal wallet data RFID\n\n        require(address(this).balance >= amount, \"not enough balance\");\n\n        wallet.spentToday += amount;\n        (bool success, ) = to.call{value: amount, gas: 100000}(\"\");\n        require(success, \"MakeTransfer: External call failed\");\n        emit WalletTransfer(to, amount);\n    }\n\n    function getOwner() public view returns (address) {\n        return wallet.owner;\n    }\n\n    function getCounter() public view returns (uint256) {\n        return wallet.counter;\n    }\n\n    function setHashStorageId(string calldata id) external onlyFromWalletOrOwnerWhenUnlocked {\n        wallet.hashStorageID = id;\n    }\n\n    function getHashStorageId() public view returns (string memory) {\n        return wallet.hashStorageID;\n    }\n\n    function getRootHashes() public view returns (bytes32[] memory) {\n        return wallet.rootHash;\n    }\n\n    function setDrainAddress(address payable addr) external onlyFromWalletOrOwnerWhenUnlocked {\n        wallet.drainAddr = addr;\n    }\n\n    function setDailyLimit(uint256 amount) external onlyFromWalletOrOwnerWhenUnlocked {\n        wallet.dailyLimit = amount;\n    }\n\n    //\n    // Guardians functions\n    //\n    function addGuardian(address guardian) external onlyFromWalletOrOwnerWhenUnlocked {\n        wallet.addGuardian(guardian);\n    }\n\n    function revokeGuardian(address guardian) external onlyFromWalletOrOwnerWhenUnlocked {\n        wallet.revokeGuardian(guardian);\n    }\n\n    function isGuardian(address addr) public view returns (bool) {\n        return wallet.isGuardian(addr);\n    }\n\n    function getGuardians() public view returns (address[] memory) {\n        return wallet.guardians;\n    }\n\n    //\n    // Recovery functions\n    //\n    // In default setup with only HOTP setup, wallet recovery is done on its own.\n    // In a more secure setup with HOTP + guardians, HOTP is considered as 1 guardian.\n    //\n    // Relay/or other coordinating system will coordinate the signatures collections\n    // from guardian and submit along with the HOTP together. In rare case, HOTP may be ommitted\n    // when greater than 2 guardians can recover without HOTP.\n    function startRecoverGuardianOnly(address newOwner_) external onlySelf {\n        // move into recovery state\n        wallet.startRecovery(newOwner_);\n    }\n\n    // recover with combination of commithash and signatures\n    function startRecoverCommit(bytes32 secretHash, bytes32 dataHash) external onlySelf {\n        require(wallet.commitHash[secretHash].blockNumber == 0, \"COMMIT ALREADY EXIST\");\n        wallet.commitHash[secretHash] = Core.CommitInfo(dataHash, block.number, false);\n    }\n\n    function startRecoveryReveal(address newOwner, bytes32[] calldata confirmMaterial)\n        external\n        onlySelf\n        onlyValidTOTP(confirmMaterial)\n    {\n        bytes32 secretHash = keccak256(abi.encodePacked(confirmMaterial[0]));\n        require(wallet.commitHash[secretHash].blockNumber != 0, \"NO COMMIT\");\n        require(wallet.commitHash[secretHash].revealed == false, \"COMMIT ALREADY REVEALED\");\n        require(block.number - wallet.commitHash[secretHash].blockNumber < 15, \"Commit is too old\");\n\n        bytes32 hash = keccak256(abi.encodePacked(newOwner, confirmMaterial[0]));\n        require(hash == wallet.commitHash[secretHash].dataHash, \"Datahash does not match\");\n\n        wallet.commitHash[secretHash].revealed = true;\n        wallet.owner = newOwner;\n        wallet.counter = wallet.counter + 1;\n    }\n\n    function isRecovering() external view returns (bool) {\n        return wallet.pendingRecovery.expiration != 0;\n    }\n\n    function cancelRecovery() external onlyFromWalletOrOwnerWhenUnlocked {\n        wallet.pendingRecovery = Core.RecoveryInfo(address(0), 0);\n    }\n\n    function getRecovery() external view returns (address, uint256) {\n        return (wallet.pendingRecovery.newOwner, wallet.pendingRecovery.expiration);\n    }\n\n    function finalizeRecovery() external {\n        wallet.finalizeRecovery();\n    }\n\n    function upgradeMasterCopy(address newMasterCopy) external onlySelf {\n        masterCopy = newMasterCopy;\n        emit WalletUpgraded(newMasterCopy);\n    }\n\n    function getMasterCopy() public view returns (address) {\n        return masterCopy;\n    }\n\n    //\n    // ERC1155 support\n    //\n    function onERC1155Received(\n        address,\n        address,\n        uint256,\n        uint256,\n        bytes calldata\n    ) external pure override returns (bytes4) {\n        return this.onERC1155Received.selector;\n    }\n\n    function onERC1155BatchReceived(\n        address operator,\n        address from,\n        uint256[] calldata ids,\n        uint256[] calldata values,\n        bytes calldata data\n    ) external view override returns (bytes4) {\n        for (uint32 i = 0; i < ids.length; i++) {\n            this.onERC1155Received(operator, from, ids[i], values[i], data);\n        }\n        return this.onERC1155BatchReceived.selector;\n    }\n\n    function supportsInterface(bytes4 interfaceID) external pure override returns (bool) {\n        return\n            interfaceID == this.supportsInterface.selector ||\n            interfaceID == this.onERC1155Received.selector ||\n            interfaceID == this.onERC721Received.selector;\n    }\n\n    function onERC721Received(\n        address,\n        address,\n        uint256,\n        bytes calldata\n    ) external pure override returns (bytes4) {\n        return this.onERC721Received.selector;\n    }\n\n    //\n    // Utility functions\n    //\n\n    /**\n     * @notice Helper method to parse data and extract the method signature.\n     */\n    function functionPrefix(bytes memory _data) internal pure returns (bytes4 prefix) {\n        require(_data.length >= 4, \"Utils: Invalid functionPrefix\");\n        // solhint-disable-next-line no-inline-assembly\n        assembly {\n            prefix := mload(add(_data, 0x20))\n        }\n    }\n\n    /// @dev Fallback function allows to deposit ether.\n    receive() external payable {\n        if (msg.value > 0) {\n            if (msg.sender == wallet.drainAddr && msg.value == 1 ether) {\n                uint256 amount = address(this).balance;\n                (bool success, ) = wallet.drainAddr.call{value: amount, gas: 100000}(\"\");\n                require(success, \"Receive: External call failed\");\n            }\n            emit Deposit(msg.sender, msg.value);\n        }\n    }\n\n    /**\n     * @notice Performs a generic transaction.\n     * @param _target The address for the transaction.\n     * @param _value The value of the transaction.\n     * @param _data The data of the transaction.\n     */\n    function invoke(\n        address _target,\n        uint256 _value,\n        bytes calldata _data\n    ) internal returns (bytes memory _result) {\n        bool success;\n        (success, _result) = _target.call{value: _value}(_data);\n\n        emit Invoked(_target, _value, _data, success, _result);\n\n        if (!success) {\n            // solhint-disable-next-line no-inline-assembly\n            assembly {\n                returndatacopy(0, 0, returndatasize())\n                revert(0, returndatasize())\n            }\n        }\n    }\n}\n",
  "sourcePath": "/Users/okudajunta/Desktop/nobank/contracts/contracts/contracts/otp_wallet.sol",
  "compiler": {
    "name": "solc",
    "version": "0.8.0+commit.c7dfd78e.Emscripten.clang"
  },
  "schemaVersion": "3.4.3",
  "updatedAt": "2021-12-16T06:12:42.559Z",
  "networkType": "ethereum",
  "devdoc": {
    "kind": "dev",
    "methods": {
      "onERC1155BatchReceived(address,address,uint256[],uint256[],bytes)": {
        "details": "Handles the receipt of a multiple ERC1155 token types. This function is called at the end of a `safeBatchTransferFrom` after the balances have been updated. To accept the transfer(s), this must return `bytes4(keccak256(\"onERC1155BatchReceived(address,address,uint256[],uint256[],bytes)\"))` (i.e. 0xbc197c81, or its own function selector).",
        "params": {
          "data": "Additional data with no specified format",
          "from": "The address which previously owned the token",
          "ids": "An array containing ids of each token being transferred (order and length must match values array)",
          "operator": "The address which initiated the batch transfer (i.e. msg.sender)",
          "values": "An array containing amounts of each token being transferred (order and length must match ids array)"
        },
        "returns": {
          "_0": "`bytes4(keccak256(\"onERC1155BatchReceived(address,address,uint256[],uint256[],bytes)\"))` if transfer is allowed"
        }
      }
    },
    "version": 1
  },
  "userdoc": {
    "kind": "user",
    "methods": {},
    "version": 1
  }
}