{
  "contractName": "TOTPWallet",
  "abi": [
    {
      "inputs": [],
      "stateMutability": "nonpayable",
      "type": "constructor"
    },
    {
      "anonymous": false,
      "inputs": [
        {
          "indexed": true,
          "internalType": "address",
          "name": "sender",
          "type": "address"
        },
        {
          "indexed": false,
          "internalType": "uint256",
          "name": "value",
          "type": "uint256"
        }
      ],
      "name": "Deposit",
      "type": "event"
    },
    {
      "anonymous": false,
      "inputs": [
        {
          "indexed": true,
          "internalType": "address",
          "name": "target",
          "type": "address"
        },
        {
          "indexed": true,
          "internalType": "uint256",
          "name": "value",
          "type": "uint256"
        },
        {
          "indexed": false,
          "internalType": "bytes",
          "name": "data",
          "type": "bytes"
        },
        {
          "indexed": false,
          "internalType": "bool",
          "name": "success",
          "type": "bool"
        },
        {
          "indexed": false,
          "internalType": "bytes",
          "name": "returnData",
          "type": "bytes"
        }
      ],
      "name": "Invoked",
      "type": "event"
    },
    {
      "anonymous": false,
      "inputs": [
        {
          "indexed": true,
          "internalType": "bool",
          "name": "success",
          "type": "bool"
        },
        {
          "indexed": false,
          "internalType": "bytes",
          "name": "returnData",
          "type": "bytes"
        },
        {
          "indexed": false,
          "internalType": "bytes32",
          "name": "signedHash",
          "type": "bytes32"
        }
      ],
      "name": "TransactionExecuted",
      "type": "event"
    },
    {
      "anonymous": false,
      "inputs": [
        {
          "indexed": false,
          "internalType": "address",
          "name": "to",
          "type": "address"
        },
        {
          "indexed": false,
          "internalType": "uint256",
          "name": "amount",
          "type": "uint256"
        }
      ],
      "name": "WalletTransfer",
      "type": "event"
    },
    {
      "anonymous": false,
      "inputs": [
        {
          "indexed": false,
          "internalType": "address",
          "name": "newImpl",
          "type": "address"
        }
      ],
      "name": "WalletUpgraded",
      "type": "event"
    },
    {
      "inputs": [],
      "name": "version",
      "outputs": [
        {
          "internalType": "uint256",
          "name": "",
          "type": "uint256"
        }
      ],
      "stateMutability": "view",
      "type": "function"
    },
    {
      "inputs": [],
      "name": "wallet",
      "outputs": [
        {
          "internalType": "address",
          "name": "owner",
          "type": "address"
        },
        {
          "internalType": "bool",
          "name": "locked",
          "type": "bool"
        },
        {
          "internalType": "uint8",
          "name": "merkleHeight",
          "type": "uint8"
        },
        {
          "internalType": "uint256",
          "name": "counter",
          "type": "uint256"
        },
        {
          "internalType": "address payable",
          "name": "drainAddr",
          "type": "address"
        },
        {
          "internalType": "uint256",
          "name": "dailyLimit",
          "type": "uint256"
        },
        {
          "internalType": "uint256",
          "name": "lastDay",
          "type": "uint256"
        },
        {
          "internalType": "uint256",
          "name": "spentToday",
          "type": "uint256"
        },
        {
          "internalType": "string",
          "name": "hashStorageID",
          "type": "string"
        },
        {
          "components": [
            {
              "internalType": "address",
              "name": "newOwner",
              "type": "address"
            },
            {
              "internalType": "uint256",
              "name": "expiration",
              "type": "uint256"
            }
          ],
          "internalType": "struct Core.RecoveryInfo",
          "name": "pendingRecovery",
          "type": "tuple"
        },
        {
          "internalType": "address",
          "name": "resolver",
          "type": "address"
        },
        {
          "internalType": "uint256",
          "name": "nonce",
          "type": "uint256"
        }
      ],
      "stateMutability": "view",
      "type": "function"
    },
    {
      "stateMutability": "payable",
      "type": "receive"
    },
    {
      "inputs": [
        {
          "internalType": "address",
          "name": "resolver_",
          "type": "address"
        },
        {
          "internalType": "string[2]",
          "name": "domain_",
          "type": "string[2]"
        },
        {
          "internalType": "address",
          "name": "owner_",
          "type": "address"
        },
        {
          "internalType": "bytes32[]",
          "name": "rootHash_",
          "type": "bytes32[]"
        },
        {
          "internalType": "uint8",
          "name": "merkleHeight_",
          "type": "uint8"
        },
        {
          "internalType": "address payable",
          "name": "drainAddr_",
          "type": "address"
        },
        {
          "internalType": "uint256",
          "name": "dailyLimit_",
          "type": "uint256"
        },
        {
          "internalType": "address",
          "name": "feeRecipient",
          "type": "address"
        },
        {
          "internalType": "uint256",
          "name": "feeAmount",
          "type": "uint256"
        }
      ],
      "name": "initialize",
      "outputs": [],
      "stateMutability": "nonpayable",
      "type": "function"
    },
    {
      "inputs": [
        {
          "internalType": "string",
          "name": "subdomain",
          "type": "string"
        },
        {
          "internalType": "string",
          "name": "domain",
          "type": "string"
        },
        {
          "internalType": "uint256",
          "name": "duration",
          "type": "uint256"
        }
      ],
      "name": "registerENS",
      "outputs": [],
      "stateMutability": "nonpayable",
      "type": "function"
    },
    {
      "inputs": [
        {
          "internalType": "bytes",
          "name": "_data",
          "type": "bytes"
        }
      ],
      "name": "getRequiredSignatures",
      "outputs": [
        {
          "internalType": "uint8",
          "name": "",
          "type": "uint8"
        },
        {
          "internalType": "enum Core.OwnerSignature",
          "name": "",
          "type": "uint8"
        }
      ],
      "stateMutability": "view",
      "type": "function"
    },
    {
      "inputs": [
        {
          "internalType": "bytes",
          "name": "data",
          "type": "bytes"
        },
        {
          "internalType": "bytes",
          "name": "signatures",
          "type": "bytes"
        },
        {
          "internalType": "uint256",
          "name": "nonce",
          "type": "uint256"
        },
        {
          "internalType": "uint256",
          "name": "gasPrice",
          "type": "uint256"
        },
        {
          "internalType": "uint256",
          "name": "gasLimit",
          "type": "uint256"
        },
        {
          "internalType": "address",
          "name": "",
          "type": "address"
        },
        {
          "internalType": "address payable",
          "name": "refundAddress",
          "type": "address"
        }
      ],
      "name": "executeFreeMetaTx",
      "outputs": [],
      "stateMutability": "nonpayable",
      "type": "function"
    },
    {
      "inputs": [
        {
          "internalType": "bytes",
          "name": "data",
          "type": "bytes"
        },
        {
          "internalType": "bytes",
          "name": "signatures",
          "type": "bytes"
        },
        {
          "internalType": "uint256",
          "name": "nonce",
          "type": "uint256"
        },
        {
          "internalType": "uint256",
          "name": "gasPrice",
          "type": "uint256"
        },
        {
          "internalType": "uint256",
          "name": "gasLimit",
          "type": "uint256"
        },
        {
          "internalType": "address",
          "name": "",
          "type": "address"
        },
        {
          "internalType": "address payable",
          "name": "refundAddress",
          "type": "address"
        }
      ],
      "name": "executeMetaTx",
      "outputs": [],
      "stateMutability": "nonpayable",
      "type": "function"
    },
    {
      "inputs": [
        {
          "components": [
            {
              "internalType": "address",
              "name": "to",
              "type": "address"
            },
            {
              "internalType": "uint256",
              "name": "value",
              "type": "uint256"
            },
            {
              "internalType": "bytes",
              "name": "data",
              "type": "bytes"
            }
          ],
          "internalType": "struct TOTPWallet.Call[]",
          "name": "_transactions",
          "type": "tuple[]"
        }
      ],
      "name": "multiCall",
      "outputs": [
        {
          "internalType": "bytes[]",
          "name": "",
          "type": "bytes[]"
        }
      ],
      "stateMutability": "nonpayable",
      "type": "function"
    },
    {
      "inputs": [
        {
          "internalType": "address payable",
          "name": "to",
          "type": "address"
        },
        {
          "internalType": "uint256",
          "name": "amount",
          "type": "uint256"
        }
      ],
      "name": "makeTransfer",
      "outputs": [],
      "stateMutability": "nonpayable",
      "type": "function"
    },
    {
      "inputs": [],
      "name": "getOwner",
      "outputs": [
        {
          "internalType": "address",
          "name": "",
          "type": "address"
        }
      ],
      "stateMutability": "view",
      "type": "function"
    },
    {
      "inputs": [],
      "name": "getCounter",
      "outputs": [
        {
          "internalType": "uint256",
          "name": "",
          "type": "uint256"
        }
      ],
      "stateMutability": "view",
      "type": "function"
    },
    {
      "inputs": [
        {
          "internalType": "string",
          "name": "id",
          "type": "string"
        }
      ],
      "name": "setHashStorageId",
      "outputs": [],
      "stateMutability": "nonpayable",
      "type": "function"
    },
    {
      "inputs": [],
      "name": "getHashStorageId",
      "outputs": [
        {
          "internalType": "string",
          "name": "",
          "type": "string"
        }
      ],
      "stateMutability": "view",
      "type": "function"
    },
    {
      "inputs": [],
      "name": "getRootHashes",
      "outputs": [
        {
          "internalType": "bytes32[]",
          "name": "",
          "type": "bytes32[]"
        }
      ],
      "stateMutability": "view",
      "type": "function"
    },
    {
      "inputs": [
        {
          "internalType": "address payable",
          "name": "addr",
          "type": "address"
        }
      ],
      "name": "setDrainAddress",
      "outputs": [],
      "stateMutability": "nonpayable",
      "type": "function"
    },
    {
      "inputs": [
        {
          "internalType": "uint256",
          "name": "amount",
          "type": "uint256"
        }
      ],
      "name": "setDailyLimit",
      "outputs": [],
      "stateMutability": "nonpayable",
      "type": "function"
    },
    {
      "inputs": [
        {
          "internalType": "address",
          "name": "guardian",
          "type": "address"
        }
      ],
      "name": "addGuardian",
      "outputs": [],
      "stateMutability": "nonpayable",
      "type": "function"
    },
    {
      "inputs": [
        {
          "internalType": "address",
          "name": "guardian",
          "type": "address"
        }
      ],
      "name": "revokeGuardian",
      "outputs": [],
      "stateMutability": "nonpayable",
      "type": "function"
    },
    {
      "inputs": [
        {
          "internalType": "address",
          "name": "addr",
          "type": "address"
        }
      ],
      "name": "isGuardian",
      "outputs": [
        {
          "internalType": "bool",
          "name": "",
          "type": "bool"
        }
      ],
      "stateMutability": "view",
      "type": "function"
    },
    {
      "inputs": [],
      "name": "getGuardians",
      "outputs": [
        {
          "internalType": "address[]",
          "name": "",
          "type": "address[]"
        }
      ],
      "stateMutability": "view",
      "type": "function"
    },
    {
      "inputs": [
        {
          "internalType": "address",
          "name": "newOwner_",
          "type": "address"
        }
      ],
      "name": "startRecoverGuardianOnly",
      "outputs": [],
      "stateMutability": "nonpayable",
      "type": "function"
    },
    {
      "inputs": [
        {
          "internalType": "bytes32",
          "name": "secretHash",
          "type": "bytes32"
        },
        {
          "internalType": "bytes32",
          "name": "dataHash",
          "type": "bytes32"
        }
      ],
      "name": "startRecoverCommit",
      "outputs": [],
      "stateMutability": "nonpayable",
      "type": "function"
    },
    {
      "inputs": [
        {
          "internalType": "address",
          "name": "newOwner",
          "type": "address"
        },
        {
          "internalType": "bytes32[]",
          "name": "confirmMaterial",
          "type": "bytes32[]"
        }
      ],
      "name": "startRecoveryReveal",
      "outputs": [],
      "stateMutability": "nonpayable",
      "type": "function"
    },
    {
      "inputs": [],
      "name": "isRecovering",
      "outputs": [
        {
          "internalType": "bool",
          "name": "",
          "type": "bool"
        }
      ],
      "stateMutability": "view",
      "type": "function"
    },
    {
      "inputs": [],
      "name": "cancelRecovery",
      "outputs": [],
      "stateMutability": "nonpayable",
      "type": "function"
    },
    {
      "inputs": [],
      "name": "getRecovery",
      "outputs": [
        {
          "internalType": "address",
          "name": "",
          "type": "address"
        },
        {
          "internalType": "uint256",
          "name": "",
          "type": "uint256"
        }
      ],
      "stateMutability": "view",
      "type": "function"
    },
    {
      "inputs": [],
      "name": "finalizeRecovery",
      "outputs": [],
      "stateMutability": "nonpayable",
      "type": "function"
    },
    {
      "inputs": [
        {
          "internalType": "address",
          "name": "newMasterCopy",
          "type": "address"
        }
      ],
      "name": "upgradeMasterCopy",
      "outputs": [],
      "stateMutability": "nonpayable",
      "type": "function"
    },
    {
      "inputs": [],
      "name": "getMasterCopy",
      "outputs": [
        {
          "internalType": "address",
          "name": "",
          "type": "address"
        }
      ],
      "stateMutability": "view",
      "type": "function"
    },
    {
      "inputs": [
        {
          "internalType": "address",
          "name": "",
          "type": "address"
        },
        {
          "internalType": "address",
          "name": "",
          "type": "address"
        },
        {
          "internalType": "uint256",
          "name": "",
          "type": "uint256"
        },
        {
          "internalType": "uint256",
          "name": "",
          "type": "uint256"
        },
        {
          "internalType": "bytes",
          "name": "",
          "type": "bytes"
        }
      ],
      "name": "onERC1155Received",
      "outputs": [
        {
          "internalType": "bytes4",
          "name": "",
          "type": "bytes4"
        }
      ],
      "stateMutability": "pure",
      "type": "function"
    },
    {
      "inputs": [
        {
          "internalType": "address",
          "name": "operator",
          "type": "address"
        },
        {
          "internalType": "address",
          "name": "from",
          "type": "address"
        },
        {
          "internalType": "uint256[]",
          "name": "ids",
          "type": "uint256[]"
        },
        {
          "internalType": "uint256[]",
          "name": "values",
          "type": "uint256[]"
        },
        {
          "internalType": "bytes",
          "name": "data",
          "type": "bytes"
        }
      ],
      "name": "onERC1155BatchReceived",
      "outputs": [
        {
          "internalType": "bytes4",
          "name": "",
          "type": "bytes4"
        }
      ],
      "stateMutability": "view",
      "type": "function"
    },
    {
      "inputs": [
        {
          "internalType": "bytes4",
          "name": "interfaceID",
          "type": "bytes4"
        }
      ],
      "name": "supportsInterface",
      "outputs": [
        {
          "internalType": "bool",
          "name": "",
          "type": "bool"
        }
      ],
      "stateMutability": "pure",
      "type": "function"
    },
    {
      "inputs": [
        {
          "internalType": "address",
          "name": "",
          "type": "address"
        },
        {
          "internalType": "address",
          "name": "",
          "type": "address"
        },
        {
          "internalType": "uint256",
          "name": "",
          "type": "uint256"
        },
        {
          "internalType": "bytes",
          "name": "",
          "type": "bytes"
        }
      ],
      "name": "onERC721Received",
      "outputs": [
        {
          "internalType": "bytes4",
          "name": "",
          "type": "bytes4"
        }
      ],
      "stateMutability": "pure",
      "type": "function"
    }
  ],
  "bytecode": "0x608060405234801561001057600080fd5b506001601160006101000a81548160ff021916908315150217905550615cde806200003c6000396000f3fe6080604052600436106102025760003560e01c8063893d20e81161011d578063b6c38432116100b0578063d50733221161007f578063e2ccb30511610064578063e2ccb30514610906578063ef24c7361461091d578063f23a6e6114610946576103ac565b8063d5073322146108b4578063de033715146108dd576103ac565b8063b6c38432146107fa578063bc197c8114610823578063c832fe5f14610860578063cabd82c51461088b576103ac565b8063a526d83b116100ec578063a526d83b14610756578063abea22cc1461077f578063af648c3d146107a8578063b20d30a9146107d1576103ac565b8063893d20e8146106ac5780638ada066e146106d75780638df2730a1461070257806391ac27881461072b576103ac565b80632f23a3ab11610195578063693b60a211610164578063693b60a2146105f0578063706f76581461061957806375a3f50d1461064557806379d3d98c14610683576103ac565b80632f23a3ab1461053d57806344f9639014610566578063521eb2731461058f57806354fd4d50146105c5576103ac565b80630c68ba21116101d15780630c68ba211461045b578063150b7a02146104985780631f13938d146104d5578063248b170114610500576103ac565b806301ffc9a7146103b157806304e80e90146103ee5780630665f04b146104195780630ba234d614610444576103ac565b366103ac5760003411156103aa57600160040160009054906101000a900473ffffffffffffffffffffffffffffffffffffffff1673ffffffffffffffffffffffffffffffffffffffff163373ffffffffffffffffffffffffffffffffffffffff161480156102775750670de0b6b3a764000034145b1561035b5760004790506000600160040160009054906101000a900473ffffffffffffffffffffffffffffffffffffffff1673ffffffffffffffffffffffffffffffffffffffff1682620186a0906040516102d190614e46565b600060405180830381858888f193505050503d806000811461030f576040519150601f19603f3d011682016040523d82523d6000602084013e610314565b606091505b5050905080610358576040517f08c379a000000000000000000000000000000000000000000000000000000000815260040161034f906152e5565b60405180910390fd5b50505b3373ffffffffffffffffffffffffffffffffffffffff167fe1fffcc4923d04b559f4d29a8bfc6cda04eb5b0d3c460751c2402c5c5cc9109c346040516103a19190615530565b60405180910390a25b005b600080fd5b3480156103bd57600080fd5b506103d860048036038101906103d3919061403d565b610983565b6040516103e5919061506d565b60405180910390f35b3480156103fa57600080fd5b50610403610a72565b6040516104109190614e5b565b60405180910390f35b34801561042557600080fd5b5061042e610a9b565b60405161043b9190614fe5565b60405180910390f35b34801561045057600080fd5b50610459610b2c565b005b34801561046757600080fd5b50610482600480360381019061047d9190613bab565b610c99565b60405161048f919061506d565b60405180910390f35b3480156104a457600080fd5b506104bf60048036038101906104ba9190613d05565b610d2e565b6040516104cc9190615088565b60405180910390f35b3480156104e157600080fd5b506104ea610d43565b6040516104f79190615163565b60405180910390f35b34801561050c57600080fd5b5061052760048036038101906105229190613f6a565b610dd8565b604051610534919061504b565b60405180910390f35b34801561054957600080fd5b50610564600480360381019061055f91906141ef565b6110b8565b005b34801561057257600080fd5b5061058d600480360381019061058891906140d4565b611218565b005b34801561059b57600080fd5b506105a46113ed565b6040516105bc9c9b9a99989796959493929190614efb565b60405180910390f35b3480156105d157600080fd5b506105da6115a7565b6040516105e79190615530565b60405180910390f35b3480156105fc57600080fd5b50610617600480360381019061061291906140d4565b6115ac565b005b34801561062557600080fd5b5061062e611839565b60405161063c929190614fbc565b60405180910390f35b34801561065157600080fd5b5061066c6004803603810190610667919061408f565b611876565b60405161067a929190615574565b60405180910390f35b34801561068f57600080fd5b506106aa60048036038101906106a591906141aa565b611d1a565b005b3480156106b857600080fd5b506106c1611e18565b6040516106ce9190614e5b565b60405180910390f35b3480156106e357600080fd5b506106ec611e45565b6040516106f99190615530565b60405180910390f35b34801561070e57600080fd5b5061072960048036038101906107249190614001565b611e52565b005b34801561073757600080fd5b50610740611f8b565b60405161074d919061506d565b60405180910390f35b34801561076257600080fd5b5061077d60048036038101906107789190613bab565b611f9e565b005b34801561078b57600080fd5b506107a660048036038101906107a19190613bfd565b6120f2565b005b3480156107b457600080fd5b506107cf60048036038101906107ca9190613bab565b612379565b005b3480156107dd57600080fd5b506107f860048036038101906107f39190614278565b6124cd565b005b34801561080657600080fd5b50610821600480360381019061081c9190613bd4565b6125bf565b005b34801561082f57600080fd5b5061084a60048036038101906108459190613c39565b6126eb565b6040516108579190615088565b60405180910390f35b34801561086c57600080fd5b5061087561284c565b6040516108829190615029565b60405180910390f35b34801561089757600080fd5b506108b260048036038101906108ad9190613e17565b6128a6565b005b3480156108c057600080fd5b506108db60048036038101906108d69190613e6f565b612f38565b005b3480156108e957600080fd5b5061090460048036038101906108ff9190613bab565b61331e565b005b34801561091257600080fd5b5061091b613406565b005b34801561092957600080fd5b50610944600480360381019061093f9190613bab565b613472565b005b34801561095257600080fd5b5061096d60048036038101906109689190613d85565b61354f565b60405161097a9190615088565b60405180910390f35b60006301ffc9a760e01b7bffffffffffffffffffffffffffffffffffffffffffffffffffffffff1916827bffffffffffffffffffffffffffffffffffffffffffffffffffffffff19161480610a1c575063f23a6e6160e01b7bffffffffffffffffffffffffffffffffffffffffffffffffffffffff1916827bffffffffffffffffffffffffffffffffffffffffffffffffffffffff1916145b80610a6b575063150b7a0260e01b7bffffffffffffffffffffffffffffffffffffffffffffffffffffffff1916827bffffffffffffffffffffffffffffffffffffffffffffffffffffffff1916145b9050919050565b60008060009054906101000a900473ffffffffffffffffffffffffffffffffffffffff16905090565b60606001600501805480602002602001604051908101604052809291908181526020018280548015610b2257602002820191906000526020600020905b8160009054906101000a900473ffffffffffffffffffffffffffffffffffffffff1673ffffffffffffffffffffffffffffffffffffffff1681526020019060010190808311610ad8575b5050505050905090565b3073ffffffffffffffffffffffffffffffffffffffff163373ffffffffffffffffffffffffffffffffffffffff161480610bd25750600160000160009054906101000a900473ffffffffffffffffffffffffffffffffffffffff1673ffffffffffffffffffffffffffffffffffffffff163373ffffffffffffffffffffffffffffffffffffffff16148015610bd15750600160000160149054906101000a900460ff16155b5b610c11576040517f08c379a0000000000000000000000000000000000000000000000000000000008152600401610c0890615345565b60405180910390fd5b6040518060400160405280600073ffffffffffffffffffffffffffffffffffffffff16815260200160008152506001600b0160008201518160000160006101000a81548173ffffffffffffffffffffffffffffffffffffffff021916908373ffffffffffffffffffffffffffffffffffffffff16021790555060208201518160010155905050565b6000600173__Guardians_____________________________63121c95629091846040518363ffffffff1660e01b8152600401610cd7929190615420565b60206040518083038186803b158015610cef57600080fd5b505af4158015610d03573d6000803e3d6000fd5b505050506040513d601f19601f82011682018060405250810190610d279190613faf565b9050919050565b600063150b7a0260e01b905095945050505050565b60606001600a018054610d55906159ee565b80601f0160208091040260200160405190810160405280929190818152602001828054610d81906159ee565b8015610dce5780601f10610da357610100808354040283529160200191610dce565b820191906000526020600020905b815481529060010190602001808311610db157829003601f168201915b5050505050905090565b60603073ffffffffffffffffffffffffffffffffffffffff163373ffffffffffffffffffffffffffffffffffffffff161480610e805750600160000160009054906101000a900473ffffffffffffffffffffffffffffffffffffffff1673ffffffffffffffffffffffffffffffffffffffff163373ffffffffffffffffffffffffffffffffffffffff16148015610e7f5750600160000160149054906101000a900460ff16155b5b610ebf576040517f08c379a0000000000000000000000000000000000000000000000000000000008152600401610eb690615345565b60405180910390fd5b60008383905067ffffffffffffffff811115610f04577f4e487b7100000000000000000000000000000000000000000000000000000000600052604160045260246000fd5b604051908082528060200260200182016040528015610f3757816020015b6060815260200190600190039081610f225790505b50905060005b848490508110156110ad57611056858583818110610f84577f4e487b7100000000000000000000000000000000000000000000000000000000600052603260045260246000fd5b9050602002810190610f96919061564b565b6000016020810190610fa89190613bab565b868684818110610fe1577f4e487b7100000000000000000000000000000000000000000000000000000000600052603260045260246000fd5b9050602002810190610ff3919061564b565b60200135878785818110611030577f4e487b7100000000000000000000000000000000000000000000000000000000600052603260045260246000fd5b9050602002810190611042919061564b565b8060400190611051919061559d565b613565565b82828151811061108f577f4e487b7100000000000000000000000000000000000000000000000000000000600052603260045260246000fd5b602002602001018190525080806110a590615a20565b915050610f3d565b508091505092915050565b3073ffffffffffffffffffffffffffffffffffffffff163373ffffffffffffffffffffffffffffffffffffffff16148061115e5750600160000160009054906101000a900473ffffffffffffffffffffffffffffffffffffffff1673ffffffffffffffffffffffffffffffffffffffff163373ffffffffffffffffffffffffffffffffffffffff1614801561115d5750600160000160149054906101000a900460ff16155b5b61119d576040517f08c379a000000000000000000000000000000000000000000000000000000000815260040161119490615345565b60405180910390fd5b600173__NameService___________________________63145f7620909187878787876040518763ffffffff1660e01b81526004016111e196959493929190615449565b60006040518083038186803b1580156111f957600080fd5b505af415801561120d573d6000803e3d6000fd5b505050505050505050565b611220613851565b61122a8a8a611876565b826000018360200182600481111561126b577f4e487b7100000000000000000000000000000000000000000000000000000000600052602160045260246000fd5b60048111156112a3577f4e487b7100000000000000000000000000000000000000000000000000000000600052602160045260246000fd5b8152508260ff1660ff16815250505073__MetaTx________________________________631815d80160018c8c8c8c8c8c8c8b8b6040518b63ffffffff1660e01b81526004016112fc9a999897969594939291906154a0565b60006040518083038186803b15801561131457600080fd5b505af4158015611328573d6000803e3d6000fd5b50505050600060603073ffffffffffffffffffffffffffffffffffffffff168c8c604051611357929190614e2d565b6000604051808303816000865af19150503d8060008114611394576040519150601f19603f3d011682016040523d82523d6000602084013e611399565b606091505b5080925081935050508115157f8e2386b9ce82e5e79311687a54408ad06fa06a338e2057cdcdfaf3a076743f1e8260006040516113d79291906150ea565b60405180910390a2505050505050505050505050565b60018060000160009054906101000a900473ffffffffffffffffffffffffffffffffffffffff16908060000160149054906101000a900460ff16908060020160009054906101000a900460ff16908060030154908060040160009054906101000a900473ffffffffffffffffffffffffffffffffffffffff169080600701549080600801549080600901549080600a018054611488906159ee565b80601f01602080910402602001604051908101604052809291908181526020018280546114b4906159ee565b80156115015780601f106114d657610100808354040283529160200191611501565b820191906000526020600020905b8154815290600101906020018083116114e457829003601f168201915b50505050509080600b016040518060400160405290816000820160009054906101000a900473ffffffffffffffffffffffffffffffffffffffff1673ffffffffffffffffffffffffffffffffffffffff1673ffffffffffffffffffffffffffffffffffffffff1681526020016001820154815250509080600e0160009054906101000a900473ffffffffffffffffffffffffffffffffffffffff169080600f015490508c565b600181565b60005a90506115b9613851565b6115c38b8b611876565b8260000183602001826004811115611604577f4e487b7100000000000000000000000000000000000000000000000000000000600052602160045260246000fd5b600481111561163c577f4e487b7100000000000000000000000000000000000000000000000000000000600052602160045260246000fd5b8152508260ff1660ff16815250505073__MetaTx________________________________631815d80160018d8d8d8d8d8d8d8c8b6040518b63ffffffff1660e01b81526004016116959a999897969594939291906154a0565b60006040518083038186803b1580156116ad57600080fd5b505af41580156116c1573d6000803e3d6000fd5b50505050600060603073ffffffffffffffffffffffffffffffffffffffff168d8d6040516116f0929190614e2d565b6000604051808303816000865af19150503d806000811461172d576040519150601f19603f3d011682016040523d82523d6000602084013e611732565b606091505b5080925081935050506000881180156117485750815b80156117815750600073ffffffffffffffffffffffffffffffffffffffff168573ffffffffffffffffffffffffffffffffffffffff1614155b156117ed576000620111705a866117989190615828565b6117a291906157a1565b90508573ffffffffffffffffffffffffffffffffffffffff166108fc829081150290604051600060405180830381858888f193505050501580156117ea573d6000803e3d6000fd5b50505b8115157f8e2386b9ce82e5e79311687a54408ad06fa06a338e2057cdcdfaf3a076743f1e8260006040516118229291906150ea565b60405180910390a250505050505050505050505050565b6000806001600b0160000160009054906101000a900473ffffffffffffffffffffffffffffffffffffffff166001600b0160010154915091509091565b60008060006118c885858080601f016020809104026020016040519081016040528093929190818152602001838380828437600081840152601f19601f82011690508083019250505050505050613649565b905063abea22cc60e01b7bffffffffffffffffffffffffffffffffffffffffffffffffffffffff1916817bffffffffffffffffffffffffffffffffffffffffffffffffffffffff19161480611961575063248b170160e01b7bffffffffffffffffffffffffffffffffffffffffffffffffffffffff1916817bffffffffffffffffffffffffffffffffffffffffffffffffffffffff1916145b806119b0575063a526d83b60e01b7bffffffffffffffffffffffffffffffffffffffffffffffffffffffff1916817bffffffffffffffffffffffffffffffffffffffffffffffffffffffff1916145b806119ff575063af648c3d60e01b7bffffffffffffffffffffffffffffffffffffffffffffffffffffffff1916817bffffffffffffffffffffffffffffffffffffffffffffffffffffffff1916145b80611a4e575063de03371560e01b7bffffffffffffffffffffffffffffffffffffffffffffffffffffffff1916817bffffffffffffffffffffffffffffffffffffffffffffffffffffffff1916145b80611a9d575063b20d30a960e01b7bffffffffffffffffffffffffffffffffffffffffffffffffffffffff1916817bffffffffffffffffffffffffffffffffffffffffffffffffffffffff1916145b80611aec575063b6c3843260e01b7bffffffffffffffffffffffffffffffffffffffffffffffffffffffff1916817bffffffffffffffffffffffffffffffffffffffffffffffffffffffff1916145b80611b3b57506379d3d98c60e01b7bffffffffffffffffffffffffffffffffffffffffffffffffffffffff1916817bffffffffffffffffffffffffffffffffffffffffffffffffffffffff1916145b15611b4d576001809250925050611d13565b63ef24c73660e01b7bffffffffffffffffffffffffffffffffffffffffffffffffffffffff1916817bffffffffffffffffffffffffffffffffffffffffffffffffffffffff19161415611c0b5760026001600501805490501015611be6576040517f08c379a0000000000000000000000000000000000000000000000000000000008152600401611bdd906151c5565b60405180910390fd5b6000611bfb600160050180549050600261369c565b9050806003935093505050611d13565b638df2730a60e01b7bffffffffffffffffffffffffffffffffffffffffffffffffffffffff1916817bffffffffffffffffffffffffffffffffffffffffffffffffffffffff19161415611c7d576000611c6d600160050180549050600261369c565b9050806003935093505050611d13565b63cabd82c560e01b7bffffffffffffffffffffffffffffffffffffffffffffffffffffffff1916817bffffffffffffffffffffffffffffffffffffffffffffffffffffffff19161415611cd857600060039250925050611d13565b6040517f08c379a0000000000000000000000000000000000000000000000000000000008152600401611d0a906153c5565b60405180910390fd5b9250929050565b3073ffffffffffffffffffffffffffffffffffffffff163373ffffffffffffffffffffffffffffffffffffffff161480611dc05750600160000160009054906101000a900473ffffffffffffffffffffffffffffffffffffffff1673ffffffffffffffffffffffffffffffffffffffff163373ffffffffffffffffffffffffffffffffffffffff16148015611dbf5750600160000160149054906101000a900460ff16155b5b611dff576040517f08c379a0000000000000000000000000000000000000000000000000000000008152600401611df690615345565b60405180910390fd5b81816001600a019190611e139291906138a6565b505050565b6000600160000160009054906101000a900473ffffffffffffffffffffffffffffffffffffffff16905090565b6000600160030154905090565b3073ffffffffffffffffffffffffffffffffffffffff163373ffffffffffffffffffffffffffffffffffffffff1614611ec0576040517f08c379a0000000000000000000000000000000000000000000000000000000008152600401611eb790615325565b60405180910390fd5b60006001600d0160008481526020019081526020016000206001015414611f1c576040517f08c379a0000000000000000000000000000000000000000000000000000000008152600401611f1390615185565b60405180910390fd5b6040518060600160405280828152602001438152602001600015158152506001600d016000848152602001908152602001600020600082015181600001556020820151816001015560408201518160020160006101000a81548160ff0219169083151502179055509050505050565b6000806001600b01600101541415905090565b3073ffffffffffffffffffffffffffffffffffffffff163373ffffffffffffffffffffffffffffffffffffffff1614806120445750600160000160009054906101000a900473ffffffffffffffffffffffffffffffffffffffff1673ffffffffffffffffffffffffffffffffffffffff163373ffffffffffffffffffffffffffffffffffffffff161480156120435750600160000160149054906101000a900460ff16155b5b612083576040517f08c379a000000000000000000000000000000000000000000000000000000000815260040161207a90615345565b60405180910390fd5b600173__Guardians_____________________________6397b9ce099091836040518363ffffffff1660e01b81526004016120bf929190615420565b60006040518083038186803b1580156120d757600080fd5b505af41580156120eb573d6000803e3d6000fd5b5050505050565b3073ffffffffffffffffffffffffffffffffffffffff163373ffffffffffffffffffffffffffffffffffffffff1614806121985750600160000160009054906101000a900473ffffffffffffffffffffffffffffffffffffffff1673ffffffffffffffffffffffffffffffffffffffff163373ffffffffffffffffffffffffffffffffffffffff161480156121975750600160000160149054906101000a900460ff16155b5b6121d7576040517f08c379a00000000000000000000000000000000000000000000000000000000081526004016121ce90615345565b60405180910390fd5b6121eb8160016136e190919063ffffffff16565b61222a576040517f08c379a0000000000000000000000000000000000000000000000000000000008152600401612221906153a5565b60405180910390fd5b8047101561226d576040517f08c379a0000000000000000000000000000000000000000000000000000000008152600401612264906152a5565b60405180910390fd5b806001600901600082825461228291906157a1565b9250508190555060008273ffffffffffffffffffffffffffffffffffffffff1682620186a0906040516122b490614e46565b600060405180830381858888f193505050503d80600081146122f2576040519150601f19603f3d011682016040523d82523d6000602084013e6122f7565b606091505b505090508061233b576040517f08c379a000000000000000000000000000000000000000000000000000000000815260040161233290615365565b60405180910390fd5b7f688077ec2e4cf5b023188b3c964a1a6481e6ff3fd3d3af3971ae0bf2172f7565838360405161236c929190614e76565b60405180910390a1505050565b3073ffffffffffffffffffffffffffffffffffffffff163373ffffffffffffffffffffffffffffffffffffffff16148061241f5750600160000160009054906101000a900473ffffffffffffffffffffffffffffffffffffffff1673ffffffffffffffffffffffffffffffffffffffff163373ffffffffffffffffffffffffffffffffffffffff1614801561241e5750600160000160149054906101000a900460ff16155b5b61245e576040517f08c379a000000000000000000000000000000000000000000000000000000000815260040161245590615345565b60405180910390fd5b600173__Guardians_____________________________63e98ee0859091836040518363ffffffff1660e01b815260040161249a929190615420565b60006040518083038186803b1580156124b257600080fd5b505af41580156124c6573d6000803e3d6000fd5b5050505050565b3073ffffffffffffffffffffffffffffffffffffffff163373ffffffffffffffffffffffffffffffffffffffff1614806125735750600160000160009054906101000a900473ffffffffffffffffffffffffffffffffffffffff1673ffffffffffffffffffffffffffffffffffffffff163373ffffffffffffffffffffffffffffffffffffffff161480156125725750600160000160149054906101000a900460ff16155b5b6125b2576040517f08c379a00000000000000000000000000000000000000000000000000000000081526004016125a990615345565b60405180910390fd5b8060016007018190555050565b3073ffffffffffffffffffffffffffffffffffffffff163373ffffffffffffffffffffffffffffffffffffffff1614806126655750600160000160009054906101000a900473ffffffffffffffffffffffffffffffffffffffff1673ffffffffffffffffffffffffffffffffffffffff163373ffffffffffffffffffffffffffffffffffffffff161480156126645750600160000160149054906101000a900460ff16155b5b6126a4576040517f08c379a000000000000000000000000000000000000000000000000000000000815260040161269b90615345565b60405180910390fd5b80600160040160006101000a81548173ffffffffffffffffffffffffffffffffffffffff021916908373ffffffffffffffffffffffffffffffffffffffff16021790555050565b600080600090505b878790508163ffffffff161015612835573073ffffffffffffffffffffffffffffffffffffffff1663f23a6e618b8b8b8b8663ffffffff16818110612761577f4e487b7100000000000000000000000000000000000000000000000000000000600052603260045260246000fd5b905060200201358a8a8763ffffffff168181106127a7577f4e487b7100000000000000000000000000000000000000000000000000000000600052603260045260246000fd5b9050602002013589896040518763ffffffff1660e01b81526004016127d196959493929190614e9f565b60206040518083038186803b1580156127e957600080fd5b505afa1580156127fd573d6000803e3d6000fd5b505050506040513d601f19601f820116820180604052508101906128219190614066565b50808061282d90615a69565b9150506126f3565b5063bc197c8160e01b905098975050505050505050565b60606001800180548060200260200160405190810160405280929190818152602001828054801561289c57602002820191906000526020600020905b815481526020019060010190808311612888575b5050505050905090565b3073ffffffffffffffffffffffffffffffffffffffff163373ffffffffffffffffffffffffffffffffffffffff1614612914576040517f08c379a000000000000000000000000000000000000000000000000000000000815260040161290b90615325565b60405180910390fd5b818180806020026020016040519081016040528093929190818152602001838360200280828437600081840152601f19601f82011690508083019250505050505050600073__Recovery______________________________63a6659f26836040518263ffffffff1660e01b815260040161298f9190615007565b60206040518083038186803b1580156129a757600080fd5b505af41580156129bb573d6000803e3d6000fd5b505050506040513d601f19601f820116820180604052508101906129df9190613fd8565b9050600073__Recovery______________________________63396c8e65600160020160009054906101000a900460ff168560018751612a1f9190615828565b81518110612a56577f4e487b7100000000000000000000000000000000000000000000000000000000600052603260045260246000fd5b60200260200101516040518363ffffffff1660e01b8152600401612a7b92919061554b565b60206040518083038186803b158015612a9357600080fd5b505af4158015612aa7573d6000803e3d6000fd5b505050506040513d601f19601f82011682018060405250810190612acb91906142a1565b90506001600301548163ffffffff161015612b1b576040517f08c379a0000000000000000000000000000000000000000000000000000000008152600401612b12906152c5565b60405180910390fd5b60326001600301548263ffffffff16612b349190615828565b10612b74576040517f08c379a0000000000000000000000000000000000000000000000000000000008152600401612b6b90615305565b60405180910390fd5b6000805b60018001805490508163ffffffff161015612bf957600180018163ffffffff1681548110612bcf577f4e487b7100000000000000000000000000000000000000000000000000000000600052603260045260246000fd5b9060005260206000200154841415612be657600191505b8080612bf190615a69565b915050612b78565b5080612c3a576040517f08c379a0000000000000000000000000000000000000000000000000000000008152600401612c3190615205565b60405180910390fd5b600086866000818110612c76577f4e487b7100000000000000000000000000000000000000000000000000000000600052603260045260246000fd5b90506020020135604051602001612c8d9190614e12565b60405160208183030381529060405280519060200120905060006001600d016000838152602001908152602001600020600101541415612d02576040517f08c379a0000000000000000000000000000000000000000000000000000000008152600401612cf9906151a5565b60405180910390fd5b600015156001600d01600083815260200190815260200160002060020160009054906101000a900460ff16151514612d6f576040517f08c379a0000000000000000000000000000000000000000000000000000000008152600401612d6690615245565b60405180910390fd5b600f6001600d0160008381526020019081526020016000206001015443612d969190615828565b10612dd6576040517f08c379a0000000000000000000000000000000000000000000000000000000008152600401612dcd90615385565b60405180910390fd5b60008888886000818110612e13577f4e487b7100000000000000000000000000000000000000000000000000000000600052603260045260246000fd5b90506020020135604051602001612e2b929190614de6565b6040516020818303038152906040528051906020012090506001600d016000838152602001908152602001600020600001548114612e9e576040517f08c379a0000000000000000000000000000000000000000000000000000000008152600401612e95906153e5565b60405180910390fd5b600180600d01600084815260200190815260200160002060020160006101000a81548160ff02191690831515021790555088600160000160006101000a81548173ffffffffffffffffffffffffffffffffffffffff021916908373ffffffffffffffffffffffffffffffffffffffff16021790555060018060030154612f2491906157a1565b600160030181905550505050505050505050565b896001600e0160006101000a81548173ffffffffffffffffffffffffffffffffffffffff021916908373ffffffffffffffffffffffffffffffffffffffff160217905550600073ffffffffffffffffffffffffffffffffffffffff16600160000160009054906101000a900473ffffffffffffffffffffffffffffffffffffffff1673ffffffffffffffffffffffffffffffffffffffff1614613010576040517f08c379a0000000000000000000000000000000000000000000000000000000008152600401613007906151e5565b60405180910390fd5b87600160000160006101000a81548173ffffffffffffffffffffffffffffffffffffffff021916908373ffffffffffffffffffffffffffffffffffffffff16021790555060005b878790508163ffffffff1610156130eb576001800188888363ffffffff168181106130ab577f4e487b7100000000000000000000000000000000000000000000000000000000600052603260045260246000fd5b90506020020135908060018154018082558091505060019003906000526020600020016000909190919091505580806130e390615a69565b915050613057565b5084600160020160006101000a81548160ff021916908360ff16021790555083600160040160006101000a81548173ffffffffffffffffffffffffffffffffffffffff021916908373ffffffffffffffffffffffffffffffffffffffff16021790555082600160070181905550600089600060028110613194577f4e487b7100000000000000000000000000000000000000000000000000000000600052603260045260246000fd5b6020028101906131a491906155f4565b905011156132b4573073ffffffffffffffffffffffffffffffffffffffff16632f23a3ab8a600060028110613202577f4e487b7100000000000000000000000000000000000000000000000000000000600052603260045260246000fd5b60200281019061321291906155f4565b8c60016002811061324c577f4e487b7100000000000000000000000000000000000000000000000000000000600052603260045260246000fd5b60200281019061325c91906155f4565b63bbf81e006040518663ffffffff1660e01b815260040161328195949392919061511a565b600060405180830381600087803b15801561329b57600080fd5b505af11580156132af573d6000803e3d6000fd5b505050505b600073ffffffffffffffffffffffffffffffffffffffff168273ffffffffffffffffffffffffffffffffffffffff161461331257613311818373ffffffffffffffffffffffffffffffffffffffff1661375d90919063ffffffff16565b5b50505050505050505050565b3073ffffffffffffffffffffffffffffffffffffffff163373ffffffffffffffffffffffffffffffffffffffff161461338c576040517f08c379a000000000000000000000000000000000000000000000000000000000815260040161338390615325565b60405180910390fd5b806000806101000a81548173ffffffffffffffffffffffffffffffffffffffff021916908373ffffffffffffffffffffffffffffffffffffffff1602179055507f8a5dcb0249bae905183e794960410c37563e6ab514b1add384425d153972118d816040516133fb9190614e5b565b60405180910390a150565b600173__Recovery______________________________635fd7224790916040518263ffffffff1660e01b81526004016134409190615405565b60006040518083038186803b15801561345857600080fd5b505af415801561346c573d6000803e3d6000fd5b50505050565b3073ffffffffffffffffffffffffffffffffffffffff163373ffffffffffffffffffffffffffffffffffffffff16146134e0576040517f08c379a00000000000000000000000000000000000000000000000000000000081526004016134d790615325565b60405180910390fd5b600173__Recovery______________________________636ffc1c629091836040518363ffffffff1660e01b815260040161351c929190615420565b60006040518083038186803b15801561353457600080fd5b505af4158015613548573d6000803e3d6000fd5b5050505050565b600063f23a6e6160e01b90509695505050505050565b606060008573ffffffffffffffffffffffffffffffffffffffff16858585604051613591929190614e2d565b60006040518083038185875af1925050503d80600081146135ce576040519150601f19603f3d011682016040523d82523d6000602084013e6135d3565b606091505b508093508192505050848673ffffffffffffffffffffffffffffffffffffffff167f79ff2e3e6b1a9fd5afa9ad7b27b6075a3f05484916a94f800548947efa77e83b8686858760405161362994939291906150a3565b60405180910390a380613640573d6000803e3d6000fd5b50949350505050565b6000600482511015613690576040517f08c379a000000000000000000000000000000000000000000000000000000000815260040161368790615225565b60405180910390fd5b60208201519050919050565b60008082846136ab91906157f7565b9050600083856136bb9190615ac4565b14156136ca57809150506136db565b6001816136d791906157a1565b9150505b92915050565b60006201518083600801546136f691906157a1565b42111561371157428360080181905550600083600901819055505b826007015482846009015461372691906157a1565b11806137445750826009015482846009015461374291906157a1565b105b156137525760009050613757565b600190505b92915050565b804710156137a0576040517f08c379a000000000000000000000000000000000000000000000000000000000815260040161379790615285565b60405180910390fd5b60008273ffffffffffffffffffffffffffffffffffffffff16826040516137c690614e46565b60006040518083038185875af1925050503d8060008114613803576040519150601f19603f3d011682016040523d82523d6000602084013e613808565b606091505b505090508061384c576040517f08c379a000000000000000000000000000000000000000000000000000000000815260040161384390615265565b60405180910390fd5b505050565b6040518060400160405280600060ff168152602001600060048111156138a0577f4e487b7100000000000000000000000000000000000000000000000000000000600052602160045260246000fd5b81525090565b8280546138b2906159ee565b90600052602060002090601f0160209004810192826138d4576000855561391b565b82601f106138ed57803560ff191683800117855561391b565b8280016001018555821561391b579182015b8281111561391a5782358255916020019190600101906138ff565b5b509050613928919061392c565b5090565b5b8082111561394557600081600090555060010161392d565b5090565b60008135905061395881615bf0565b92915050565b60008135905061396d81615c07565b92915050565b60008083601f84011261398557600080fd5b8235905067ffffffffffffffff81111561399e57600080fd5b6020830191508360208202830111156139b657600080fd5b9250929050565b6000819050826020600202820111156139d557600080fd5b92915050565b60008083601f8401126139ed57600080fd5b8235905067ffffffffffffffff811115613a0657600080fd5b602083019150836020820283011115613a1e57600080fd5b9250929050565b60008083601f840112613a3757600080fd5b8235905067ffffffffffffffff811115613a5057600080fd5b602083019150836020820283011115613a6857600080fd5b9250929050565b600081519050613a7e81615c1e565b92915050565b600081359050613a9381615c35565b92915050565b600081519050613aa881615c35565b92915050565b600081359050613abd81615c4c565b92915050565b600081519050613ad281615c4c565b92915050565b60008083601f840112613aea57600080fd5b8235905067ffffffffffffffff811115613b0357600080fd5b602083019150836001820283011115613b1b57600080fd5b9250929050565b60008083601f840112613b3457600080fd5b8235905067ffffffffffffffff811115613b4d57600080fd5b602083019150836001820283011115613b6557600080fd5b9250929050565b600081359050613b7b81615c63565b92915050565b600081519050613b9081615c7a565b92915050565b600081359050613ba581615c91565b92915050565b600060208284031215613bbd57600080fd5b6000613bcb84828501613949565b91505092915050565b600060208284031215613be657600080fd5b6000613bf48482850161395e565b91505092915050565b60008060408385031215613c1057600080fd5b6000613c1e8582860161395e565b9250506020613c2f85828601613b6c565b9150509250929050565b60008060008060008060008060a0898b031215613c5557600080fd5b6000613c638b828c01613949565b9850506020613c748b828c01613949565b975050604089013567ffffffffffffffff811115613c9157600080fd5b613c9d8b828c01613a25565b9650965050606089013567ffffffffffffffff811115613cbc57600080fd5b613cc88b828c01613a25565b9450945050608089013567ffffffffffffffff811115613ce757600080fd5b613cf38b828c01613ad8565b92509250509295985092959890939650565b600080600080600060808688031215613d1d57600080fd5b6000613d2b88828901613949565b9550506020613d3c88828901613949565b9450506040613d4d88828901613b6c565b935050606086013567ffffffffffffffff811115613d6a57600080fd5b613d7688828901613ad8565b92509250509295509295909350565b60008060008060008060a08789031215613d9e57600080fd5b6000613dac89828a01613949565b9650506020613dbd89828a01613949565b9550506040613dce89828a01613b6c565b9450506060613ddf89828a01613b6c565b935050608087013567ffffffffffffffff811115613dfc57600080fd5b613e0889828a01613ad8565b92509250509295509295509295565b600080600060408486031215613e2c57600080fd5b6000613e3a86828701613949565b935050602084013567ffffffffffffffff811115613e5757600080fd5b613e6386828701613973565b92509250509250925092565b6000806000806000806000806000806101208b8d031215613e8f57600080fd5b6000613e9d8d828e01613949565b9a505060208b013567ffffffffffffffff811115613eba57600080fd5b613ec68d828e016139bd565b9950506040613ed78d828e01613949565b98505060608b013567ffffffffffffffff811115613ef457600080fd5b613f008d828e01613973565b97509750506080613f138d828e01613b96565b95505060a0613f248d828e0161395e565b94505060c0613f358d828e01613b6c565b93505060e0613f468d828e01613949565b925050610100613f588d828e01613b6c565b9150509295989b9194979a5092959850565b60008060208385031215613f7d57600080fd5b600083013567ffffffffffffffff811115613f9757600080fd5b613fa3858286016139db565b92509250509250929050565b600060208284031215613fc157600080fd5b6000613fcf84828501613a6f565b91505092915050565b600060208284031215613fea57600080fd5b6000613ff884828501613a99565b91505092915050565b6000806040838503121561401457600080fd5b600061402285828601613a84565b925050602061403385828601613a84565b9150509250929050565b60006020828403121561404f57600080fd5b600061405d84828501613aae565b91505092915050565b60006020828403121561407857600080fd5b600061408684828501613ac3565b91505092915050565b600080602083850312156140a257600080fd5b600083013567ffffffffffffffff8111156140bc57600080fd5b6140c885828601613ad8565b92509250509250929050565b600080600080600080600080600060e08a8c0312156140f257600080fd5b60008a013567ffffffffffffffff81111561410c57600080fd5b6141188c828d01613ad8565b995099505060208a013567ffffffffffffffff81111561413757600080fd5b6141438c828d01613ad8565b975097505060406141568c828d01613b6c565b95505060606141678c828d01613b6c565b94505060806141788c828d01613b6c565b93505060a06141898c828d01613949565b92505060c061419a8c828d0161395e565b9150509295985092959850929598565b600080602083850312156141bd57600080fd5b600083013567ffffffffffffffff8111156141d757600080fd5b6141e385828601613b22565b92509250509250929050565b60008060008060006060868803121561420757600080fd5b600086013567ffffffffffffffff81111561422157600080fd5b61422d88828901613b22565b9550955050602086013567ffffffffffffffff81111561424c57600080fd5b61425888828901613b22565b9350935050604061426b88828901613b6c565b9150509295509295909350565b60006020828403121561428a57600080fd5b600061429884828501613b6c565b91505092915050565b6000602082840312156142b357600080fd5b60006142c184828501613b81565b91505092915050565b60006142d68383614353565b60208301905092915050565b60006142ee8383614535565b60208301905092915050565b60006143068383614553565b60208301905092915050565b600061431e8383614607565b905092915050565b61432f81615926565b82525050565b61433e81615926565b82525050565b61434d8161586e565b82525050565b61435c8161585c565b82525050565b61436b8161585c565b82525050565b61437a8161585c565b82525050565b61439161438c8261585c565b615a96565b82525050565b60006143a28261569f565b6143ac81856156fd565b93506143b78361566f565b8060005b838110156143e85781516143cf88826142ca565b97506143da836156d6565b9250506001810190506143bb565b5085935050505092915050565b6000614400826156aa565b61440a818561570e565b93506144158361567f565b8060005b8381101561444657815161442d88826142e2565b9750614438836156e3565b925050600181019050614419565b5085935050505092915050565b600061445e826156aa565b614468818561571f565b93506144738361567f565b8060005b838110156144a457815161448b88826142fa565b9750614496836156e3565b925050600181019050614477565b5085935050505092915050565b60006144bc826156b5565b6144c68185615730565b9350836020820285016144d88561568f565b8060005b8581101561451457848403895281516144f58582614312565b9450614500836156f0565b925060208a019950506001810190506144dc565b50829750879550505050505092915050565b61452f81615880565b82525050565b61453e8161588c565b82525050565b61454d8161588c565b82525050565b61455c8161588c565b82525050565b61457361456e8261588c565b615aa8565b82525050565b61458281615896565b82525050565b60006145948385615752565b93506145a18385846159ac565b6145aa83615bb1565b840190509392505050565b60006145c18385615763565b93506145ce8385846159ac565b6145d783615bb1565b840190509392505050565b60006145ee8385615774565b93506145fb8385846159ac565b82840190509392505050565b6000614612826156c0565b61461c8185615741565b935061462c8185602086016159bb565b61463581615bb1565b840191505092915050565b600061464b826156c0565b6146558185615752565b93506146658185602086016159bb565b61466e81615bb1565b840191505092915050565b61468281615938565b82525050565b61469181615938565b82525050565b6146a08161594a565b82525050565b6146af81615964565b82525050565b60006146c1838561577f565b93506146ce8385846159ac565b6146d783615bb1565b840190509392505050565b60006146ee8385615790565b93506146fb8385846159ac565b61470483615bb1565b840190509392505050565b600061471a826156cb565b614724818561577f565b93506147348185602086016159bb565b61473d81615bb1565b840191505092915050565b600061475560148361577f565b91507f434f4d4d495420414c52454144592045584953540000000000000000000000006000830152602082019050919050565b600061479560098361577f565b91507f4e4f20434f4d4d495400000000000000000000000000000000000000000000006000830152602082019050919050565b60006147d5601a8361577f565b91507f4e4f545f4d4545545f4d494e494d554d5f475541524449414e530000000000006000830152602082019050919050565b600061481560138361577f565b91507f494e495449414c495a45445f414c5245414459000000000000000000000000006000830152602082019050919050565b600061485560108361577f565b91507f554e45585045435445442050524f4f46000000000000000000000000000000006000830152602082019050919050565b6000614895601d8361577f565b91507f5574696c733a20496e76616c69642066756e6374696f6e5072656669780000006000830152602082019050919050565b60006148d560178361577f565b91507f434f4d4d495420414c52454144592052455645414c45440000000000000000006000830152602082019050919050565b6000614915603a8361577f565b91507f416464726573733a20756e61626c6520746f2073656e642076616c75652c207260008301527f6563697069656e74206d617920686176652072657665727465640000000000006020830152604082019050919050565b600061497b601d8361577f565b91507f416464726573733a20696e73756666696369656e742062616c616e63650000006000830152602082019050919050565b60006149bb60128361577f565b91507f6e6f7420656e6f7567682062616c616e636500000000000000000000000000006000830152602082019050919050565b60006149fb60288361577f565b91507f50726f766964656420636f756e746572206d757374206265206772656174657260008301527f206f722073616d650000000000000000000000000000000000000000000000006020830152604082019050919050565b6000614a61601d8361577f565b91507f526563656976653a2045787465726e616c2063616c6c206661696c65640000006000830152602082019050919050565b6000614aa1602f8361577f565b91507f50726f766964656420636f756e746572206d757374206e6f74206265206d6f7260008301527f65207468616e20353020737465707300000000000000000000000000000000006020830152604082019050919050565b6000614b07600e8361577f565b91507f6d757374206265206d65746174780000000000000000000000000000000000006000830152602082019050919050565b6000614b4760298361577f565b91507f4e4f545f46524f4d5f57414c4c45545f4f525f4f574e45525f4f525f57414c4c60008301527f45545f4c4f434b454400000000000000000000000000000000000000000000006020830152604082019050919050565b6000614bad60228361577f565b91507f4d616b655472616e736665723a2045787465726e616c2063616c6c206661696c60008301527f65640000000000000000000000000000000000000000000000000000000000006020830152604082019050919050565b6000614c1360118361577f565b91507f436f6d6d697420697320746f6f206f6c640000000000000000000000000000006000830152602082019050919050565b6000614c5360158361577f565b91507f6f766572207769746864726177616c206c696d697400000000000000000000006000830152602082019050919050565b6000614c93600e8361577f565b91507f756e6b6e6f776e206d6574686f640000000000000000000000000000000000006000830152602082019050919050565b6000614cd3600083615774565b9150600082019050919050565b6000614ced60178361577f565b91507f446174616861736820646f6573206e6f74206d617463680000000000000000006000830152602082019050919050565b604082016000820151614d366000850182614353565b506020820151614d496020850182614d8c565b50505050565b604082016000820151614d656000850182614dd7565b506020820151614d786020850182614688565b50505050565b8082525050565b8082525050565b614d95816158ff565b82525050565b614da4816158ff565b82525050565b614db3816158ff565b82525050565b614dc28161599a565b82525050565b614dd181615919565b82525050565b614de081615919565b82525050565b6000614df28285614380565b601482019150614e028284614562565b6020820191508190509392505050565b6000614e1e8284614562565b60208201915081905092915050565b6000614e3a8284866145e2565b91508190509392505050565b6000614e5182614cc6565b9150819050919050565b6000602082019050614e706000830184614362565b92915050565b6000604082019050614e8b6000830185614326565b614e986020830184614d9b565b9392505050565b600060a082019050614eb46000830189614362565b614ec16020830188614362565b614ece6040830187614d9b565b614edb6060830186614d9b565b8181036080830152614eee818486614588565b9050979650505050505050565b60006101a082019050614f11600083018f614362565b614f1e602083018e614526565b614f2b604083018d614dc8565b614f38606083018c614d9b565b614f45608083018b614344565b614f5260a083018a614d9b565b614f5f60c0830189614d9b565b614f6c60e0830188614d9b565b818103610100830152614f7f818761470f565b9050614f8f610120830186614d20565b614f9d610160830185614362565b614fab610180830184614d9b565b9d9c50505050505050505050505050565b6000604082019050614fd16000830185614362565b614fde6020830184614d9b565b9392505050565b60006020820190508181036000830152614fff8184614397565b905092915050565b600060208201905081810360008301526150218184614453565b905092915050565b6000602082019050818103600083015261504381846143f5565b905092915050565b6000602082019050818103600083015261506581846144b1565b905092915050565b60006020820190506150826000830184614526565b92915050565b600060208201905061509d6000830184614579565b92915050565b600060608201905081810360008301526150be818688614588565b90506150cd6020830185614526565b81810360408301526150df8184614640565b905095945050505050565b600060408201905081810360008301526151048185614640565b90506151136020830184614697565b9392505050565b600060608201905081810360008301526151358187896146b5565b9050818103602083015261514a8185876146b5565b905061515960408301846146a6565b9695505050505050565b6000602082019050818103600083015261517d818461470f565b905092915050565b6000602082019050818103600083015261519e81614748565b9050919050565b600060208201905081810360008301526151be81614788565b9050919050565b600060208201905081810360008301526151de816147c8565b9050919050565b600060208201905081810360008301526151fe81614808565b9050919050565b6000602082019050818103600083015261521e81614848565b9050919050565b6000602082019050818103600083015261523e81614888565b9050919050565b6000602082019050818103600083015261525e816148c8565b9050919050565b6000602082019050818103600083015261527e81614908565b9050919050565b6000602082019050818103600083015261529e8161496e565b9050919050565b600060208201905081810360008301526152be816149ae565b9050919050565b600060208201905081810360008301526152de816149ee565b9050919050565b600060208201905081810360008301526152fe81614a54565b9050919050565b6000602082019050818103600083015261531e81614a94565b9050919050565b6000602082019050818103600083015261533e81614afa565b9050919050565b6000602082019050818103600083015261535e81614b3a565b9050919050565b6000602082019050818103600083015261537e81614ba0565b9050919050565b6000602082019050818103600083015261539e81614c06565b9050919050565b600060208201905081810360008301526153be81614c46565b9050919050565b600060208201905081810360008301526153de81614c86565b9050919050565b600060208201905081810360008301526153fe81614ce0565b9050919050565b600060208201905061541a6000830184614d7e565b92915050565b60006040820190506154356000830185614d7e565b6154426020830184614371565b9392505050565b600060808201905061545e6000830189614d7e565b81810360208301526154718187896146e2565b905081810360408301526154868185876146e2565b90506154956060830184614daa565b979650505050505050565b6000610120820190506154b6600083018d614d85565b81810360208301526154c9818b8d6145b5565b905081810360408301526154de81898b6145b5565b90506154ed6060830188614daa565b6154fa6080830187614daa565b61550760a0830186614daa565b61551460c0830185614335565b61552160e0830184614d4f565b9b9a5050505050505050505050565b60006020820190506155456000830184614d9b565b92915050565b60006040820190506155606000830185614db9565b61556d6020830184614544565b9392505050565b60006040820190506155896000830185614dc8565b6155966020830184614679565b9392505050565b600080833560016020038436030381126155b657600080fd5b80840192508235915067ffffffffffffffff8211156155d457600080fd5b6020830192506001820236038313156155ec57600080fd5b509250929050565b6000808335600160200384360303811261560d57600080fd5b80840192508235915067ffffffffffffffff82111561562b57600080fd5b60208301925060018202360383131561564357600080fd5b509250929050565b60008235600160600383360303811261566357600080fd5b80830191505092915050565b6000819050602082019050919050565b6000819050602082019050919050565b6000819050602082019050919050565b600081519050919050565b600081519050919050565b600081519050919050565b600081519050919050565b600081519050919050565b6000602082019050919050565b6000602082019050919050565b6000602082019050919050565b600082825260208201905092915050565b600082825260208201905092915050565b600082825260208201905092915050565b600082825260208201905092915050565b600082825260208201905092915050565b600082825260208201905092915050565b600082825260208201905092915050565b600081905092915050565b600082825260208201905092915050565b600082825260208201905092915050565b60006157ac826158ff565b91506157b7836158ff565b9250827fffffffffffffffffffffffffffffffffffffffffffffffffffffffffffffffff038211156157ec576157eb615af5565b5b828201905092915050565b6000615802826158ff565b915061580d836158ff565b92508261581d5761581c615b24565b5b828204905092915050565b6000615833826158ff565b915061583e836158ff565b92508282101561585157615850615af5565b5b828203905092915050565b6000615867826158df565b9050919050565b6000615879826158df565b9050919050565b60008115159050919050565b6000819050919050565b60007fffffffff0000000000000000000000000000000000000000000000000000000082169050919050565b60008190506158d082615bdc565b919050565b6000819050919050565b600073ffffffffffffffffffffffffffffffffffffffff82169050919050565b6000819050919050565b600063ffffffff82169050919050565b600060ff82169050919050565b600061593182615976565b9050919050565b6000615943826158c2565b9050919050565b600061595d615958836158d5565b615bc2565b9050919050565b600061596f826158ff565b9050919050565b600061598182615988565b9050919050565b6000615993826158df565b9050919050565b60006159a582615919565b9050919050565b82818337600083830152505050565b60005b838110156159d95780820151818401526020810190506159be565b838111156159e8576000848401525b50505050565b60006002820490506001821680615a0657607f821691505b60208210811415615a1a57615a19615b82565b5b50919050565b6000615a2b826158ff565b91507fffffffffffffffffffffffffffffffffffffffffffffffffffffffffffffffff821415615a5e57615a5d615af5565b5b600182019050919050565b6000615a7482615909565b915063ffffffff821415615a8b57615a8a615af5565b5b600182019050919050565b6000615aa182615ab2565b9050919050565b6000819050919050565b6000615abd82615bcf565b9050919050565b6000615acf826158ff565b9150615ada836158ff565b925082615aea57615ae9615b24565b5b828206905092915050565b7f4e487b7100000000000000000000000000000000000000000000000000000000600052601160045260246000fd5b7f4e487b7100000000000000000000000000000000000000000000000000000000600052601260045260246000fd5b7f4e487b7100000000000000000000000000000000000000000000000000000000600052602160045260246000fd5b7f4e487b7100000000000000000000000000000000000000000000000000000000600052602260045260246000fd5b6000601f19601f8301169050919050565b60008160001b9050919050565b60008160601b9050919050565b60058110615bed57615bec615b53565b5b50565b615bf98161585c565b8114615c0457600080fd5b50565b615c108161586e565b8114615c1b57600080fd5b50565b615c2781615880565b8114615c3257600080fd5b50565b615c3e8161588c565b8114615c4957600080fd5b50565b615c5581615896565b8114615c6057600080fd5b50565b615c6c816158ff565b8114615c7757600080fd5b50565b615c8381615909565b8114615c8e57600080fd5b50565b615c9a81615919565b8114615ca557600080fd5b5056fea2646970667358221220221d868ebb10e900ed8ceb30fd078113a85ac635bad0d82676ebd96f364729ca64736f6c63430008000033",
  "immutableReferences": {},
  "source": "// SPDX-License-Identifier: GPL-3.0-only\n\npragma solidity >=0.7.6;\npragma experimental ABIEncoderV2;\n\nimport \"@openzeppelin/contracts/token/ERC721/IERC721Receiver.sol\";\nimport \"@openzeppelin/contracts/token/ERC721/IERC721.sol\";\nimport \"@openzeppelin/contracts/token/ERC1155/IERC1155Receiver.sol\";\nimport \"@openzeppelin/contracts/token/ERC1155/IERC1155.sol\";\nimport \"@openzeppelin/contracts/token/ERC20/IERC20.sol\";\nimport \"@openzeppelin/contracts/token/ERC20/extensions/IERC20Metadata.sol\";\nimport \"@openzeppelin/contracts/utils/Address.sol\";\n\nimport \"./core/walletData.sol\";\nimport \"./features/dailyLimit.sol\";\nimport \"./features/metaTx.sol\";\nimport \"./features/guardians.sol\";\nimport \"./features/recovery.sol\";\nimport \"./features/nameService.sol\";\n\ncontract TOTPWallet is IERC721Receiver, IERC1155Receiver {\n\tusing Address for address payable;\n\tusing DailyLimit for Core.Wallet;\n\tusing MetaTx for Core.Wallet;\n\tusing Guardians for Core.Wallet;\n\tusing Recovery for Core.Wallet;\n\tusing NameService for Core.Wallet;\n\n\t// DATA LAYOUT - ALWAYS ADD NEW VAR TO LAST\n\n\taddress masterCopy;\n\tCore.Wallet public wallet;\n\tbool internal isImplementationContract;\n\tuint256 public constant version = 1;\n\n\t// END OF DATA LAYOUT\n\tstruct Call {\n\t\taddress to;\n\t\tuint256 value;\n\t\tbytes data;\n\t}\n\n\tevent WalletTransfer(address to, uint256 amount);\n\tevent Deposit(address indexed sender, uint256 value);\n\tevent WalletUpgraded(address newImpl);\n\tevent TransactionExecuted(\n\t\tbool indexed success,\n\t\tbytes returnData,\n\t\tbytes32 signedHash\n\t);\n\tevent Invoked(\n\t\taddress indexed target,\n\t\tuint256 indexed value,\n\t\tbytes data,\n\t\tbool success,\n\t\tbytes returnData\n\t);\n\n\tconstructor() {\n\t\tisImplementationContract = true;\n\t}\n\n\tmodifier disableInImplementationContract() {\n\t\trequire(\n\t\t\t!isImplementationContract,\n\t\t\t\"DISALLOWED_ON_IMPLEMENTATION_CONTRACT\"\n\t\t);\n\t\t_;\n\t}\n\n\t// keep methods <= 8 parameters of get stack to deep\n\tfunction initialize(\n\t\taddress resolver_,\n\t\tstring[2] calldata domain_, // empty means no registration\n\t\taddress owner_,\n\t\tbytes32[] calldata rootHash_,\n\t\tuint8 merkleHeight_,\n\t\taddress payable drainAddr_,\n\t\tuint256 dailyLimit_,\n\t\taddress feeRecipient,\n\t\tuint256 feeAmount // disableInImplementationContract()\n\t) external {\n\t\twallet.resolver = resolver_;\n\n\t\t//emit DebugEvent256(address(this).balance);\n\t\trequire(wallet.owner == address(0), \"INITIALIZED_ALREADY\");\n\t\t// require(address(this).balance >= feeAmount, \"NOT ENOUGH TO PAY FEE\");\n\n\t\twallet.owner = owner_;\n\t\tfor (uint32 i = 0; i < rootHash_.length; i++) {\n\t\t\twallet.rootHash.push(rootHash_[i]);\n\t\t}\n\t\twallet.merkleHeight = merkleHeight_;\n\t\twallet.drainAddr = drainAddr_;\n\t\twallet.dailyLimit = dailyLimit_;\n\n\t\t// STACK TOO DEEP\n\t\tif (bytes(domain_[0]).length > 0) {\n\t\t\tthis.registerENS(domain_[0], domain_[1], 60 * 60 * 24 * 365 * 100); // 100 years\n\t\t}\n\n\t\tif (feeRecipient != address(0)) {\n\t\t\tpayable(feeRecipient).sendValue(feeAmount);\n\t\t}\n\t}\n\n\tfunction registerENS(\n\t\tstring calldata subdomain,\n\t\tstring calldata domain,\n\t\tuint256 duration\n\t) external onlyFromWalletOrOwnerWhenUnlocked {\n\t\twallet.registerENS(subdomain, domain, duration);\n\t}\n\n\tmodifier onlyModule() {\n\t\trequire(msg.sender == address(this));\n\t\t_;\n\t}\n\n\tmodifier onlyFromWalletOrOwnerWhenUnlocked() {\n\t\trequire(\n\t\t\tmsg.sender == address(this) ||\n\t\t\t\t(msg.sender == wallet.owner && !wallet.locked),\n\t\t\t\"NOT_FROM_WALLET_OR_OWNER_OR_WALLET_LOCKED\"\n\t\t);\n\t\t_;\n\t}\n\n\tmodifier onlySelf() {\n\t\trequire(msg.sender == address(this), \"must be metatx\");\n\t\t_;\n\t}\n\n\t// confirmMaterial contains OTP + intermediatory hashes + sides\n\tmodifier onlyValidTOTP(bytes32[] memory confirmMaterial) {\n\t\tbytes32 reduced = Recovery._reduceConfirmMaterial(confirmMaterial);\n\t\tuint32 counterProvided = Recovery._deriveChildTreeIdx(\n\t\t\twallet.merkleHeight,\n\t\t\tconfirmMaterial[confirmMaterial.length - 1]\n\t\t);\n\t\trequire(\n\t\t\tcounterProvided >= wallet.counter,\n\t\t\t\"Provided counter must be greater or same\"\n\t\t);\n\n\t\t// Google Authenticator doesn't allow custom counter or change counter back; so we must allow room to fudge\n\t\t// allow some room if the counters were skipped at some point\n\t\trequire(\n\t\t\tcounterProvided - wallet.counter < 50,\n\t\t\t\"Provided counter must not be more than 50 steps\"\n\t\t);\n\n\t\tbool foundMatch = false;\n\t\tfor (uint32 i = 0; i < wallet.rootHash.length; i++) {\n\t\t\tif (reduced == wallet.rootHash[i]) {\n\t\t\t\tfoundMatch = true;\n\t\t\t}\n\t\t}\n\t\trequire(foundMatch, \"UNEXPECTED PROOF\");\n\t\t_;\n\t}\n\n\tfunction getRequiredSignatures(bytes calldata _data)\n\t\tpublic\n\t\tview\n\t\treturns (uint8, Core.OwnerSignature)\n\t{\n\t\tbytes4 methodId = functionPrefix(_data);\n\n\t\tif (\n\t\t\tmethodId == TOTPWallet.makeTransfer.selector ||\n\t\t\tmethodId == TOTPWallet.multiCall.selector ||\n\t\t\tmethodId == TOTPWallet.addGuardian.selector ||\n\t\t\tmethodId == TOTPWallet.revokeGuardian.selector ||\n\t\t\tmethodId == TOTPWallet.upgradeMasterCopy.selector ||\n\t\t\tmethodId == TOTPWallet.setDailyLimit.selector ||\n\t\t\tmethodId == TOTPWallet.setDrainAddress.selector ||\n\t\t\tmethodId == TOTPWallet.setHashStorageId.selector\n\t\t) {\n\t\t\treturn (1, Core.OwnerSignature.Required);\n\t\t}\n\n\t\tif (methodId == TOTPWallet.startRecoverGuardianOnly.selector) {\n\t\t\trequire(wallet.guardians.length >= 2, \"NOT_MEET_MINIMUM_GUARDIANS\");\n\t\t\tuint256 requiredSignatures = MetaTx.ceil(\n\t\t\t\twallet.guardians.length,\n\t\t\t\t2\n\t\t\t);\n\t\t\treturn (uint8(requiredSignatures), Core.OwnerSignature.Disallowed);\n\t\t}\n\n\t\t// 1 of 1 = 0 sig\n\t\t// 2 of 2 = 1 sig + HOTP\n\t\t// 2 of 3 = 1 sig + HOTP\n\t\tif (methodId == TOTPWallet.startRecoverCommit.selector) {\n\t\t\tuint256 requiredSignatures = MetaTx.ceil(\n\t\t\t\twallet.guardians.length,\n\t\t\t\t2\n\t\t\t);\n\t\t\treturn (uint8(requiredSignatures), Core.OwnerSignature.Disallowed);\n\t\t}\n\t\tif (methodId == TOTPWallet.startRecoveryReveal.selector) {\n\t\t\treturn (0, Core.OwnerSignature.Disallowed);\n\t\t}\n\n\t\trevert(\"unknown method\");\n\t}\n\n\tfunction executeFreeMetaTx(\n\t\tbytes calldata data,\n\t\tbytes calldata signatures,\n\t\tuint256 nonce,\n\t\tuint256 gasPrice,\n\t\tuint256 gasLimit,\n\t\taddress, /*refundToken*/\n\t\taddress payable refundAddress\n\t) external {\n\t\tCore.SignatureRequirement memory sigRequirement;\n\t\t(\n\t\t\tsigRequirement.requiredSignatures,\n\t\t\tsigRequirement.ownerSignatureRequirement\n\t\t) = getRequiredSignatures(data);\n\n\t\tMetaTx.validateTx(\n\t\t\twallet,\n\t\t\tdata,\n\t\t\tsignatures,\n\t\t\tnonce,\n\t\t\tgasPrice,\n\t\t\tgasLimit,\n\t\t\trefundAddress,\n\t\t\tsigRequirement\n\t\t);\n\n\t\tbool success;\n\t\tbytes memory returnData;\n\t\t(success, returnData) = address(this).call(data);\n\n\t\temit TransactionExecuted(success, returnData, 0x0);\n\t}\n\n\tfunction executeMetaTx(\n\t\tbytes calldata data,\n\t\tbytes calldata signatures,\n\t\tuint256 nonce,\n\t\tuint256 gasPrice,\n\t\tuint256 gasLimit,\n\t\taddress, /*refundToken*/\n\t\taddress payable refundAddress\n\t) external {\n\t\tuint256 gasLeft = gasleft();\n\t\tCore.SignatureRequirement memory sigRequirement;\n\t\t(\n\t\t\tsigRequirement.requiredSignatures,\n\t\t\tsigRequirement.ownerSignatureRequirement\n\t\t) = getRequiredSignatures(data);\n\n\t\tMetaTx.validateTx(\n\t\t\twallet,\n\t\t\tdata,\n\t\t\tsignatures,\n\t\t\tnonce,\n\t\t\tgasPrice,\n\t\t\tgasLimit,\n\t\t\trefundAddress,\n\t\t\tsigRequirement\n\t\t);\n\n\t\tbool success;\n\t\tbytes memory returnData;\n\t\t(success, returnData) = address(this).call(data);\n\n\t\tif (gasPrice > 0 && success && refundAddress != address(0x0)) {\n\t\t\tuint256 gasUsed = gasLeft - gasleft() + 70000; //35k overhead\n\t\t\trefundAddress.transfer(gasUsed);\n\t\t}\n\t\temit TransactionExecuted(success, returnData, 0x0);\n\t}\n\n\tfunction multiCall(Call[] calldata _transactions)\n\t\texternal\n\t\tonlyFromWalletOrOwnerWhenUnlocked\n\t\treturns (bytes[] memory)\n\t{\n\t\tbytes[] memory results = new bytes[](_transactions.length);\n\t\tfor (uint256 i = 0; i < _transactions.length; i++) {\n\t\t\tresults[i] = invoke(\n\t\t\t\t_transactions[i].to,\n\t\t\t\t_transactions[i].value,\n\t\t\t\t_transactions[i].data\n\t\t\t);\n\t\t}\n\t\treturn results;\n\t}\n\n\tfunction makeTransfer(address payable to, uint256 amount)\n\t\texternal\n\t\tonlyFromWalletOrOwnerWhenUnlocked\n\t{\n\t\trequire(wallet.isUnderLimit(amount), \"over withdrawal limit\");\n\t\t// TODO: Call chainlink for RFID verification\n\t\t// TODO: require chainlink provided RFID to equal wallet data RFID\n\n\t\trequire(address(this).balance >= amount, \"not enough balance\");\n\n\t\twallet.spentToday += amount;\n\t\t(bool success, ) = to.call{ value: amount, gas: 100000 }(\"\");\n\t\trequire(success, \"MakeTransfer: External call failed\");\n\t\temit WalletTransfer(to, amount);\n\t}\n\n\tfunction getOwner() public view returns (address) {\n\t\treturn wallet.owner;\n\t}\n\n\tfunction getCounter() public view returns (uint256) {\n\t\treturn wallet.counter;\n\t}\n\n\tfunction setHashStorageId(string calldata id)\n\t\texternal\n\t\tonlyFromWalletOrOwnerWhenUnlocked\n\t{\n\t\twallet.hashStorageID = id;\n\t}\n\n\tfunction getHashStorageId() public view returns (string memory) {\n\t\treturn wallet.hashStorageID;\n\t}\n\n\t// TODO: Add function to update RootHashes / onlyWithGuardian\n\t// TODO: Add function to update merkleHeight / onlyWithGuardian\n\t//\n\n\tfunction getRootHashes() public view returns (bytes32[] memory) {\n\t\treturn wallet.rootHash;\n\t}\n\n\tfunction setDrainAddress(address payable addr)\n\t\texternal\n\t\tonlyFromWalletOrOwnerWhenUnlocked\n\t{\n\t\twallet.drainAddr = addr;\n\t}\n\n\tfunction setDailyLimit(uint256 amount)\n\t\texternal\n\t\tonlyFromWalletOrOwnerWhenUnlocked\n\t{\n\t\twallet.dailyLimit = amount;\n\t}\n\n\t//\n\t// Guardians functions\n\t//\n\tfunction addGuardian(address guardian)\n\t\texternal\n\t\tonlyFromWalletOrOwnerWhenUnlocked\n\t{\n\t\twallet.addGuardian(guardian);\n\t}\n\n\tfunction revokeGuardian(address guardian)\n\t\texternal\n\t\tonlyFromWalletOrOwnerWhenUnlocked\n\t{\n\t\twallet.revokeGuardian(guardian);\n\t}\n\n\tfunction isGuardian(address addr) public view returns (bool) {\n\t\treturn wallet.isGuardian(addr);\n\t}\n\n\tfunction getGuardians() public view returns (address[] memory) {\n\t\treturn wallet.guardians;\n\t}\n\n\t//\n\t// Recovery functions\n\t//\n\t// In default setup with only HOTP setup, wallet recovery is done on its own.\n\t// In a more secure setup with HOTP + guardians, HOTP is considered as 1 guardian.\n\t//\n\t// Relay/or other coordinating system will coordinate the signatures collections\n\t// from guardian and submit along with the HOTP together. In rare case, HOTP may be ommitted\n\t// when greater than 2 guardians can recover without HOTP.\n\tfunction startRecoverGuardianOnly(address newOwner_) external onlySelf {\n\t\t// move into recovery state\n\t\twallet.startRecovery(newOwner_);\n\t}\n\n\t// recover with combination of commithash and signatures\n\tfunction startRecoverCommit(bytes32 secretHash, bytes32 dataHash)\n\t\texternal\n\t\tonlySelf\n\t{\n\t\trequire(\n\t\t\twallet.commitHash[secretHash].blockNumber == 0,\n\t\t\t\"COMMIT ALREADY EXIST\"\n\t\t);\n\t\twallet.commitHash[secretHash] = Core.CommitInfo(\n\t\t\tdataHash,\n\t\t\tblock.number,\n\t\t\tfalse\n\t\t);\n\t}\n\n\tfunction startRecoveryReveal(\n\t\taddress newOwner,\n\t\tbytes32[] calldata confirmMaterial\n\t) external onlySelf onlyValidTOTP(confirmMaterial) {\n\t\tbytes32 secretHash = keccak256(abi.encodePacked(confirmMaterial[0]));\n\t\trequire(wallet.commitHash[secretHash].blockNumber != 0, \"NO COMMIT\");\n\t\trequire(\n\t\t\twallet.commitHash[secretHash].revealed == false,\n\t\t\t\"COMMIT ALREADY REVEALED\"\n\t\t);\n\t\trequire(\n\t\t\tblock.number - wallet.commitHash[secretHash].blockNumber < 15,\n\t\t\t\"Commit is too old\"\n\t\t);\n\n\t\tbytes32 hash = keccak256(\n\t\t\tabi.encodePacked(newOwner, confirmMaterial[0])\n\t\t);\n\t\trequire(\n\t\t\thash == wallet.commitHash[secretHash].dataHash,\n\t\t\t\"Datahash does not match\"\n\t\t);\n\n\t\twallet.commitHash[secretHash].revealed = true;\n\t\twallet.owner = newOwner;\n\t\twallet.counter = wallet.counter + 1;\n\t}\n\n\tfunction isRecovering() external view returns (bool) {\n\t\treturn wallet.pendingRecovery.expiration != 0;\n\t}\n\n\tfunction cancelRecovery() external onlyFromWalletOrOwnerWhenUnlocked {\n\t\twallet.pendingRecovery = Core.RecoveryInfo(address(0), 0);\n\t}\n\n\tfunction getRecovery() external view returns (address, uint256) {\n\t\treturn (\n\t\t\twallet.pendingRecovery.newOwner,\n\t\t\twallet.pendingRecovery.expiration\n\t\t);\n\t}\n\n\tfunction finalizeRecovery() external {\n\t\twallet.finalizeRecovery();\n\t}\n\n\tfunction upgradeMasterCopy(address newMasterCopy) external onlySelf {\n\t\tmasterCopy = newMasterCopy;\n\t\temit WalletUpgraded(newMasterCopy);\n\t}\n\n\tfunction getMasterCopy() public view returns (address) {\n\t\treturn masterCopy;\n\t}\n\n\t//\n\t// ERC1155 support\n\t//\n\tfunction onERC1155Received(\n\t\taddress,\n\t\taddress,\n\t\tuint256,\n\t\tuint256,\n\t\tbytes calldata\n\t) external pure override returns (bytes4) {\n\t\treturn this.onERC1155Received.selector;\n\t}\n\n\tfunction onERC1155BatchReceived(\n\t\taddress operator,\n\t\taddress from,\n\t\tuint256[] calldata ids,\n\t\tuint256[] calldata values,\n\t\tbytes calldata data\n\t) external view override returns (bytes4) {\n\t\tfor (uint32 i = 0; i < ids.length; i++) {\n\t\t\tthis.onERC1155Received(operator, from, ids[i], values[i], data);\n\t\t}\n\t\treturn this.onERC1155BatchReceived.selector;\n\t}\n\n\tfunction supportsInterface(bytes4 interfaceID)\n\t\texternal\n\t\tpure\n\t\toverride\n\t\treturns (bool)\n\t{\n\t\treturn\n\t\t\tinterfaceID == this.supportsInterface.selector ||\n\t\t\tinterfaceID == this.onERC1155Received.selector ||\n\t\t\tinterfaceID == this.onERC721Received.selector;\n\t}\n\n\tfunction onERC721Received(\n\t\taddress,\n\t\taddress,\n\t\tuint256,\n\t\tbytes calldata\n\t) external pure override returns (bytes4) {\n\t\treturn this.onERC721Received.selector;\n\t}\n\n\t//\n\t// Utility functions\n\t//\n\n\t/**\n\t * @notice Helper method to parse data and extract the method signature.\n\t */\n\tfunction functionPrefix(bytes memory _data)\n\t\tinternal\n\t\tpure\n\t\treturns (bytes4 prefix)\n\t{\n\t\trequire(_data.length >= 4, \"Utils: Invalid functionPrefix\");\n\t\t// solhint-disable-next-line no-inline-assembly\n\t\tassembly {\n\t\t\tprefix := mload(add(_data, 0x20))\n\t\t}\n\t}\n\n\t// TODO: Implement proper drain function aross ALL ONE and ERC20 tokens\n\n\t/// @dev Fallback function allows to deposit ether.\n\treceive() external payable {\n\t\tif (msg.value > 0) {\n\t\t\tif (msg.sender == wallet.drainAddr && msg.value == 1 ether) {\n\t\t\t\tuint256 amount = address(this).balance;\n\t\t\t\t(bool success, ) = wallet.drainAddr.call{\n\t\t\t\t\tvalue: amount,\n\t\t\t\t\tgas: 100000\n\t\t\t\t}(\"\");\n\t\t\t\trequire(success, \"Receive: External call failed\");\n\t\t\t}\n\t\t\temit Deposit(msg.sender, msg.value);\n\t\t}\n\t}\n\n\t/**\n\t * @notice Performs a generic transaction.\n\t * @param _target The address for the transaction.\n\t * @param _value The value of the transaction.\n\t * @param _data The data of the transaction.\n\t */\n\tfunction invoke(\n\t\taddress _target,\n\t\tuint256 _value,\n\t\tbytes calldata _data\n\t) internal returns (bytes memory _result) {\n\t\tbool success;\n\t\t(success, _result) = _target.call{ value: _value }(_data);\n\n\t\temit Invoked(_target, _value, _data, success, _result);\n\n\t\tif (!success) {\n\t\t\t// solhint-disable-next-line no-inline-assembly\n\t\t\tassembly {\n\t\t\t\treturndatacopy(0, 0, returndatasize())\n\t\t\t\trevert(0, returndatasize())\n\t\t\t}\n\t\t}\n\t}\n}\n",
  "sourcePath": "/Users/okudajunta/Desktop/nobank/contracts/contracts/otpWallet.sol",
  "compiler": {
    "name": "solc",
    "version": "0.8.0+commit.c7dfd78e.Emscripten.clang"
  },
  "schemaVersion": "3.4.4",
  "updatedAt": "2021-12-24T03:20:17.797Z",
  "devdoc": {
    "kind": "dev",
    "methods": {
      "onERC1155BatchReceived(address,address,uint256[],uint256[],bytes)": {
        "details": "Handles the receipt of a multiple ERC1155 token types. This function is called at the end of a `safeBatchTransferFrom` after the balances have been updated. To accept the transfer(s), this must return `bytes4(keccak256(\"onERC1155BatchReceived(address,address,uint256[],uint256[],bytes)\"))` (i.e. 0xbc197c81, or its own function selector).",
        "params": {
          "data": "Additional data with no specified format",
          "from": "The address which previously owned the token",
          "ids": "An array containing ids of each token being transferred (order and length must match values array)",
          "operator": "The address which initiated the batch transfer (i.e. msg.sender)",
          "values": "An array containing amounts of each token being transferred (order and length must match ids array)"
        },
        "returns": {
          "_0": "`bytes4(keccak256(\"onERC1155BatchReceived(address,address,uint256[],uint256[],bytes)\"))` if transfer is allowed"
        }
      }
    },
    "version": 1
  },
  "userdoc": {
    "kind": "user",
    "methods": {},
    "version": 1
  }
}