{
  "contractName": "WalletFactory",
  "abi": [
    {
      "inputs": [
        {
          "internalType": "address",
          "name": "_walletImplementation",
          "type": "address"
        }
      ],
      "stateMutability": "nonpayable",
      "type": "constructor"
    },
    {
      "anonymous": false,
      "inputs": [
        {
          "indexed": false,
          "internalType": "address",
          "name": "wallet",
          "type": "address"
        },
        {
          "indexed": false,
          "internalType": "address",
          "name": "owner",
          "type": "address"
        },
        {
          "indexed": false,
          "internalType": "string[2]",
          "name": "domain",
          "type": "string[2]"
        }
      ],
      "name": "CreateWallet",
      "type": "event"
    },
    {
      "anonymous": false,
      "inputs": [
        {
          "indexed": false,
          "internalType": "bytes32",
          "name": "signHash",
          "type": "bytes32"
        },
        {
          "indexed": false,
          "internalType": "address",
          "name": "addr",
          "type": "address"
        }
      ],
      "name": "Debug",
      "type": "event"
    },
    {
      "anonymous": false,
      "inputs": [
        {
          "indexed": false,
          "internalType": "address",
          "name": "wallet",
          "type": "address"
        },
        {
          "components": [
            {
              "internalType": "address",
              "name": "tokenAddress",
              "type": "address"
            },
            {
              "internalType": "uint256",
              "name": "tokenAmount",
              "type": "uint256"
            }
          ],
          "indexed": false,
          "internalType": "struct WalletFactory.FundToken",
          "name": "fundedToken",
          "type": "tuple"
        }
      ],
      "name": "InitialPortfolioFunding",
      "type": "event"
    },
    {
      "anonymous": false,
      "inputs": [
        {
          "indexed": false,
          "internalType": "string",
          "name": "logMessage",
          "type": "string"
        }
      ],
      "name": "Log",
      "type": "event"
    },
    {
      "anonymous": false,
      "inputs": [
        {
          "indexed": true,
          "internalType": "address",
          "name": "previousOwner",
          "type": "address"
        },
        {
          "indexed": true,
          "internalType": "address",
          "name": "newOwner",
          "type": "address"
        }
      ],
      "name": "OwnershipTransferred",
      "type": "event"
    },
    {
      "anonymous": false,
      "inputs": [
        {
          "indexed": true,
          "internalType": "address",
          "name": "_from",
          "type": "address"
        },
        {
          "indexed": false,
          "internalType": "uint256",
          "name": "_value",
          "type": "uint256"
        }
      ],
      "name": "Received",
      "type": "event"
    },
    {
      "anonymous": false,
      "inputs": [
        {
          "indexed": true,
          "internalType": "address",
          "name": "_to",
          "type": "address"
        },
        {
          "indexed": true,
          "internalType": "address",
          "name": "_tokenAddress",
          "type": "address"
        },
        {
          "indexed": false,
          "internalType": "uint256",
          "name": "_value",
          "type": "uint256"
        },
        {
          "indexed": false,
          "internalType": "bool",
          "name": "success",
          "type": "bool"
        }
      ],
      "name": "Withdrawn",
      "type": "event"
    },
    {
      "inputs": [],
      "name": "WALLET_CREATION",
      "outputs": [
        {
          "internalType": "string",
          "name": "",
          "type": "string"
        }
      ],
      "stateMutability": "view",
      "type": "function"
    },
    {
      "inputs": [
        {
          "internalType": "uint256",
          "name": "",
          "type": "uint256"
        }
      ],
      "name": "created",
      "outputs": [
        {
          "internalType": "address",
          "name": "wallet",
          "type": "address"
        }
      ],
      "stateMutability": "view",
      "type": "function"
    },
    {
      "inputs": [],
      "name": "feeAmount",
      "outputs": [
        {
          "internalType": "uint256",
          "name": "",
          "type": "uint256"
        }
      ],
      "stateMutability": "view",
      "type": "function"
    },
    {
      "inputs": [],
      "name": "freeUserCap",
      "outputs": [
        {
          "internalType": "uint256",
          "name": "",
          "type": "uint256"
        }
      ],
      "stateMutability": "view",
      "type": "function"
    },
    {
      "inputs": [],
      "name": "owner",
      "outputs": [
        {
          "internalType": "address",
          "name": "",
          "type": "address"
        }
      ],
      "stateMutability": "view",
      "type": "function"
    },
    {
      "inputs": [],
      "name": "renounceOwnership",
      "outputs": [],
      "stateMutability": "nonpayable",
      "type": "function"
    },
    {
      "inputs": [
        {
          "internalType": "address",
          "name": "newOwner",
          "type": "address"
        }
      ],
      "name": "transferOwnership",
      "outputs": [],
      "stateMutability": "nonpayable",
      "type": "function"
    },
    {
      "inputs": [],
      "name": "walletImplementation",
      "outputs": [
        {
          "internalType": "address",
          "name": "",
          "type": "address"
        }
      ],
      "stateMutability": "view",
      "type": "function"
    },
    {
      "inputs": [
        {
          "internalType": "address",
          "name": "",
          "type": "address"
        },
        {
          "internalType": "address",
          "name": "",
          "type": "address"
        }
      ],
      "name": "walletTokenMap",
      "outputs": [
        {
          "internalType": "address",
          "name": "tokenAddress",
          "type": "address"
        },
        {
          "internalType": "uint256",
          "name": "tokenAmount",
          "type": "uint256"
        }
      ],
      "stateMutability": "view",
      "type": "function"
    },
    {
      "stateMutability": "payable",
      "type": "receive"
    },
    {
      "inputs": [
        {
          "internalType": "address payable",
          "name": "to",
          "type": "address"
        }
      ],
      "name": "withdraw",
      "outputs": [],
      "stateMutability": "nonpayable",
      "type": "function"
    },
    {
      "inputs": [
        {
          "internalType": "address",
          "name": "tokenAddress",
          "type": "address"
        },
        {
          "internalType": "address payable",
          "name": "to",
          "type": "address"
        }
      ],
      "name": "withdrawErc20",
      "outputs": [],
      "stateMutability": "nonpayable",
      "type": "function"
    },
    {
      "inputs": [
        {
          "components": [
            {
              "internalType": "address",
              "name": "resolver",
              "type": "address"
            },
            {
              "internalType": "string[2]",
              "name": "domain",
              "type": "string[2]"
            },
            {
              "internalType": "address",
              "name": "owner",
              "type": "address"
            },
            {
              "internalType": "bytes32[]",
              "name": "rootHash",
              "type": "bytes32[]"
            },
            {
              "internalType": "uint8",
              "name": "merkleHeight",
              "type": "uint8"
            },
            {
              "internalType": "address",
              "name": "drainAddr",
              "type": "address"
            },
            {
              "internalType": "uint256",
              "name": "dailyLimit",
              "type": "uint256"
            },
            {
              "internalType": "uint256",
              "name": "salt",
              "type": "uint256"
            }
          ],
          "internalType": "struct WalletFactory.WalletConfig",
          "name": "config",
          "type": "tuple"
        }
      ],
      "name": "createWallet",
      "outputs": [
        {
          "internalType": "address",
          "name": "wallet",
          "type": "address"
        }
      ],
      "stateMutability": "nonpayable",
      "type": "function"
    },
    {
      "inputs": [
        {
          "internalType": "address",
          "name": "wallet",
          "type": "address"
        },
        {
          "components": [
            {
              "internalType": "address",
              "name": "tokenAddress",
              "type": "address"
            },
            {
              "internalType": "uint256",
              "name": "tokenAmount",
              "type": "uint256"
            }
          ],
          "internalType": "struct WalletFactory.FundToken[]",
          "name": "fundingTokens",
          "type": "tuple[]"
        },
        {
          "internalType": "uint256",
          "name": "oneAmount",
          "type": "uint256"
        }
      ],
      "name": "initialPortfolioFunding",
      "outputs": [],
      "stateMutability": "nonpayable",
      "type": "function"
    },
    {
      "inputs": [
        {
          "internalType": "address",
          "name": "owner",
          "type": "address"
        },
        {
          "internalType": "uint256",
          "name": "salt",
          "type": "uint256"
        }
      ],
      "name": "computeWalletAddress",
      "outputs": [
        {
          "internalType": "address",
          "name": "",
          "type": "address"
        }
      ],
      "stateMutability": "view",
      "type": "function"
    },
    {
      "inputs": [],
      "name": "getCreated",
      "outputs": [
        {
          "components": [
            {
              "internalType": "address",
              "name": "wallet",
              "type": "address"
            },
            {
              "internalType": "string[2]",
              "name": "domain",
              "type": "string[2]"
            }
          ],
          "internalType": "struct WalletFactory.CreateRecord[]",
          "name": "",
          "type": "tuple[]"
        }
      ],
      "stateMutability": "view",
      "type": "function"
    }
  ],
  "bytecode": "0x60a060405267013fbe85edc900006001556103e86002553480156200002357600080fd5b5060405162003ac638038062003ac683398181016040528101906200004991906200018a565b620000696200005d620000a760201b60201c565b620000af60201b60201c565b8073ffffffffffffffffffffffffffffffffffffffff1660808173ffffffffffffffffffffffffffffffffffffffff1660601b815250505062000204565b600033905090565b60008060009054906101000a900473ffffffffffffffffffffffffffffffffffffffff169050816000806101000a81548173ffffffffffffffffffffffffffffffffffffffff021916908373ffffffffffffffffffffffffffffffffffffffff1602179055508173ffffffffffffffffffffffffffffffffffffffff168173ffffffffffffffffffffffffffffffffffffffff167f8be0079c531659141344cd1fd0a4f28419497f9722a3daafe3b4186f6b6457e060405160405180910390a35050565b6000815190506200018481620001ea565b92915050565b6000602082840312156200019d57600080fd5b6000620001ad8482850162000173565b91505092915050565b6000620001c382620001ca565b9050919050565b600073ffffffffffffffffffffffffffffffffffffffff82169050919050565b620001f581620001b6565b81146200020157600080fd5b50565b60805160601c61389c6200022a60003960008181610bd601526119e4015261389c6000f3fe608060405260043610620001035760003560e01c806382cb6b721162000097578063ce1586121162000061578063ce1586121462000393578063d267ff3614620003d7578063f2fde38b1462000407578063fdae6acc1462000435576200015b565b806382cb6b7214620002bf5780638da5cb5b14620003035780638ecf0d0b146200033357806390610b0e1462000363576200015b565b806369e1540411620000d957806369e154041462000217578063715018a61462000247578063739656db14620002615780638117abc1146200028f576200015b565b806340c1fa6b146200016057806351cff8d914620001a55780635323b58214620001d3576200015b565b366200015b573373ffffffffffffffffffffffffffffffffffffffff167f88a5966d370b9919b20f3e2c13ff65706f196a4e32cc2c12bf57088f885258743460405162000151919062002e0b565b60405180910390a2005b600080fd5b3480156200016d57600080fd5b506200018c600480360381019062000186919062001ee5565b62000463565b6040516200019c92919062002bfe565b60405180910390f35b348015620001b257600080fd5b50620001d16004803603810190620001cb919062001eb9565b620004b4565b005b348015620001e057600080fd5b50620001ff6004803603810190620001f9919062002048565b620005d6565b6040516200020e919062002a67565b60405180910390f35b3480156200022457600080fd5b506200022f620008de565b6040516200023e919062002e0b565b60405180910390f35b3480156200025457600080fd5b506200025f620008e4565b005b3480156200026e57600080fd5b506200028d600480360381019062000287919062001f26565b62000975565b005b3480156200029c57600080fd5b50620002a762000bd4565b604051620002b6919062002a67565b60405180910390f35b348015620002cc57600080fd5b50620002eb6004803603810190620002e591906200208d565b62000bf8565b604051620002fa919062002a67565b60405180910390f35b3480156200031057600080fd5b506200031b62000c47565b6040516200032a919062002a67565b60405180910390f35b3480156200034057600080fd5b506200034b62000c70565b6040516200035a919062002c2b565b60405180910390f35b3480156200037057600080fd5b506200037b62000df8565b6040516200038a919062002c4f565b60405180910390f35b348015620003a057600080fd5b50620003bf6004803603810190620003b9919062001fdb565b62000e31565b604051620003ce919062002a67565b60405180910390f35b348015620003e457600080fd5b50620003ef62000eb1565b604051620003fe919062002e0b565b60405180910390f35b3480156200041457600080fd5b506200043360048036038101906200042d919062001e8d565b62000eb7565b005b3480156200044257600080fd5b506200046160048036038101906200045b919062001f67565b62000fbb565b005b6004602052816000526040600020602052806000526040600020600091509150508060000160009054906101000a900473ffffffffffffffffffffffffffffffffffffffff16908060010154905082565b620004be6200166e565b73ffffffffffffffffffffffffffffffffffffffff16620004de62000c47565b73ffffffffffffffffffffffffffffffffffffffff161462000537576040517f08c379a00000000000000000000000000000000000000000000000000000000081526004016200052e9062002d83565b60405180910390fd5b600047905062000567818373ffffffffffffffffffffffffffffffffffffffff166200167690919063ffffffff16565b600073ffffffffffffffffffffffffffffffffffffffff168273ffffffffffffffffffffffffffffffffffffffff167fc4c505caef12dcdaeed94682f15951aec519a413367f049d55af5861129950d0836001604051620005ca92919062002e28565b60405180910390a35050565b6000620005e26200166e565b73ffffffffffffffffffffffffffffffffffffffff166200060262000c47565b73ffffffffffffffffffffffffffffffffffffffff16146200065b576040517f08c379a0000000000000000000000000000000000000000000000000000000008152600401620006529062002d83565b60405180910390fd5b7fcf34ef537ac33ee1ac626ca1587a0a7e8e51561e5514f8cb36afa1c5102b3bab6040516200068a9062002d3f565b60405180910390a16000620006b8836040016020810190620006ad919062001e8d565b8460e0013562000e31565b90507fcf34ef537ac33ee1ac626ca1587a0a7e8e51561e5514f8cb36afa1c5102b3bab604051620006e99062002cb7565b60405180910390a1600254600380549050111562000766576001548173ffffffffffffffffffffffffffffffffffffffff1631101562000760576040517f08c379a0000000000000000000000000000000000000000000000000000000008152600401620007579062002c73565b60405180910390fd5b6200076f565b60006001819055505b6200079383604001602081019062000788919062001e8d565b8460e0013562001774565b9150620007a18284620017f4565b600360405180604001604052808473ffffffffffffffffffffffffffffffffffffffff168152602001858060200190620007dc919062002eaf565b620007e79062003183565b815250908060018154018082558091505060019003906000526020600020906003020160009091909190915060008201518160000160006101000a81548173ffffffffffffffffffffffffffffffffffffffff021916908373ffffffffffffffffffffffffffffffffffffffff1602179055506020820151816001019060026200087392919062001b45565b5050507f919c5e8eaa37fed5b03e09530d9e7eaf5dabd64a59fabcc1e106e6c3a9b7be1a82846040016020810190620008ad919062001e8d565b858060200190620008bf919062002eaf565b604051620008d09392919062002ab1565b60405180910390a150919050565b60015481565b620008ee6200166e565b73ffffffffffffffffffffffffffffffffffffffff166200090e62000c47565b73ffffffffffffffffffffffffffffffffffffffff161462000967576040517f08c379a00000000000000000000000000000000000000000000000000000000081526004016200095e9062002d83565b60405180910390fd5b620009736000620018f6565b565b6200097f6200166e565b73ffffffffffffffffffffffffffffffffffffffff166200099f62000c47565b73ffffffffffffffffffffffffffffffffffffffff1614620009f8576040517f08c379a0000000000000000000000000000000000000000000000000000000008152600401620009ef9062002d83565b60405180910390fd5b60008273ffffffffffffffffffffffffffffffffffffffff166370a08231306040518263ffffffff1660e01b815260040162000a35919062002a67565b60206040518083038186803b15801562000a4e57600080fd5b505afa15801562000a63573d6000803e3d6000fd5b505050506040513d601f19601f8201168201806040525081019062000a899190620020b9565b905060008373ffffffffffffffffffffffffffffffffffffffff1663a9059cbb84846040518363ffffffff1660e01b815260040162000aca92919062002a84565b602060405180830381600087803b15801562000ae557600080fd5b505af115801562000afa573d6000803e3d6000fd5b505050506040513d601f19601f8201168201806040525081019062000b2091906200201c565b90508373ffffffffffffffffffffffffffffffffffffffff168373ffffffffffffffffffffffffffffffffffffffff167fc4c505caef12dcdaeed94682f15951aec519a413367f049d55af5861129950d0848460405162000b8392919062002e28565b60405180910390a38062000bce576040517f08c379a000000000000000000000000000000000000000000000000000000000815260040162000bc59062002dc7565b60405180910390fd5b50505050565b7f000000000000000000000000000000000000000000000000000000000000000081565b6003818154811062000c0957600080fd5b90600052602060002090600302016000915090508060000160009054906101000a900473ffffffffffffffffffffffffffffffffffffffff16905081565b60008060009054906101000a900473ffffffffffffffffffffffffffffffffffffffff16905090565b60606003805480602002602001604051908101604052809291908181526020016000905b8282101562000def57838290600052602060002090600302016040518060400160405290816000820160009054906101000a900473ffffffffffffffffffffffffffffffffffffffff1673ffffffffffffffffffffffffffffffffffffffff1673ffffffffffffffffffffffffffffffffffffffff16815260200160018201600280602002604051908101604052809291906000905b8282101562000dd757838201805462000d439062003243565b80601f016020809104026020016040519081016040528092919081815260200182805462000d719062003243565b801562000dc25780601f1062000d965761010080835404028352916020019162000dc2565b820191906000526020600020905b81548152906001019060200180831162000da457829003601f168201915b50505050508152602001906001019062000d2a565b50505050815250508152602001906001019062000c94565b50505050905090565b6040518060400160405280600f81526020017f57414c4c45545f4352454154494f4e000000000000000000000000000000000081525081565b600062000ea96040518060400160405280600f81526020017f57414c4c45545f4352454154494f4e0000000000000000000000000000000000815250848460405160200162000e839392919062002a11565b6040516020818303038152906040528051906020012062000ea3620019ba565b62001a4b565b905092915050565b60025481565b62000ec16200166e565b73ffffffffffffffffffffffffffffffffffffffff1662000ee162000c47565b73ffffffffffffffffffffffffffffffffffffffff161462000f3a576040517f08c379a000000000000000000000000000000000000000000000000000000000815260040162000f319062002d83565b60405180910390fd5b600073ffffffffffffffffffffffffffffffffffffffff168173ffffffffffffffffffffffffffffffffffffffff16141562000fad576040517f08c379a000000000000000000000000000000000000000000000000000000000815260040162000fa49062002c95565b60405180910390fd5b62000fb881620018f6565b50565b62000fc56200166e565b73ffffffffffffffffffffffffffffffffffffffff1662000fe562000c47565b73ffffffffffffffffffffffffffffffffffffffff16146200103e576040517f08c379a0000000000000000000000000000000000000000000000000000000008152600401620010359062002d83565b60405180910390fd5b60005b83839050811015620013c1573684848381811062001088577f4e487b7100000000000000000000000000000000000000000000000000000000600052603260045260246000fd5b90506040020190506000600460008873ffffffffffffffffffffffffffffffffffffffff1673ffffffffffffffffffffffffffffffffffffffff1681526020019081526020016000206000836000016020810190620010e8919062001e8d565b73ffffffffffffffffffffffffffffffffffffffff1673ffffffffffffffffffffffffffffffffffffffff1681526020019081526020016000206040518060400160405290816000820160009054906101000a900473ffffffffffffffffffffffffffffffffffffffff1673ffffffffffffffffffffffffffffffffffffffff1673ffffffffffffffffffffffffffffffffffffffff16815260200160018201548152505090506000816020015114620011d9576040517f08c379a0000000000000000000000000000000000000000000000000000000008152600401620011d09062002cd9565b60405180910390fd5b6000826000016020810190620011f0919062001e8d565b73ffffffffffffffffffffffffffffffffffffffff1663a9059cbb8985602001356040518363ffffffff1660e01b81526004016200123092919062002bfe565b602060405180830381600087803b1580156200124b57600080fd5b505af115801562001260573d6000803e3d6000fd5b505050506040513d601f19601f820116820180604052508101906200128691906200201c565b905080620012cb576040517f08c379a0000000000000000000000000000000000000000000000000000000008152600401620012c29062002d61565b60405180910390fd5b82600460008a73ffffffffffffffffffffffffffffffffffffffff1673ffffffffffffffffffffffffffffffffffffffff168152602001908152602001600020600085600001602081019062001322919062001e8d565b73ffffffffffffffffffffffffffffffffffffffff1673ffffffffffffffffffffffffffffffffffffffff16815260200190815260200160002081816200136a9190620034ae565b9050507fdf999e0a2b46a4e3ddbef19e42723d54fbed4e53cd4f18d21f8f384b09499b898884604051620013a092919062002ba4565b60405180910390a15050508080620013b89062003279565b91505062001041565b5060006040518060400160405280600073ffffffffffffffffffffffffffffffffffffffff1681526020018381525090506000600460008773ffffffffffffffffffffffffffffffffffffffff1673ffffffffffffffffffffffffffffffffffffffff1681526020019081526020016000206000836000015173ffffffffffffffffffffffffffffffffffffffff1673ffffffffffffffffffffffffffffffffffffffff1681526020019081526020016000206040518060400160405290816000820160009054906101000a900473ffffffffffffffffffffffffffffffffffffffff1673ffffffffffffffffffffffffffffffffffffffff1673ffffffffffffffffffffffffffffffffffffffff168152602001600182015481525050905060008160200151146200152b576040517f08c379a0000000000000000000000000000000000000000000000000000000008152600401620015229062002da5565b60405180910390fd5b81600460008873ffffffffffffffffffffffffffffffffffffffff1673ffffffffffffffffffffffffffffffffffffffff1681526020019081526020016000206000846000015173ffffffffffffffffffffffffffffffffffffffff1673ffffffffffffffffffffffffffffffffffffffff16815260200190815260200160002060008201518160000160006101000a81548173ffffffffffffffffffffffffffffffffffffffff021916908373ffffffffffffffffffffffffffffffffffffffff160217905550602082015181600101559050506200162b838773ffffffffffffffffffffffffffffffffffffffff166200167690919063ffffffff16565b7fdf999e0a2b46a4e3ddbef19e42723d54fbed4e53cd4f18d21f8f384b09499b8986836040516200165e92919062002bd1565b60405180910390a1505050505050565b600033905090565b80471015620016bc576040517f08c379a0000000000000000000000000000000000000000000000000000000008152600401620016b39062002d1d565b60405180910390fd5b60008273ffffffffffffffffffffffffffffffffffffffff1682604051620016e49062002a50565b60006040518083038185875af1925050503d806000811462001723576040519150601f19603f3d011682016040523d82523d6000602084013e62001728565b606091505b50509050806200176f576040517f08c379a0000000000000000000000000000000000000000000000000000000008152600401620017669062002cfb565b60405180910390fd5b505050565b6000620017ec6040518060400160405280600f81526020017f57414c4c45545f4352454154494f4e00000000000000000000000000000000008152508484604051602001620017c69392919062002a11565b60405160208183030381529060405280519060200120620017e6620019ba565b62001a62565b905092915050565b60003390508273ffffffffffffffffffffffffffffffffffffffff1663d50733228360000160208101906200182a919062001e8d565b8480602001906200183c919062002eaf565b85604001602081019062001851919062001e8d565b86806060019062001863919062002e55565b886080016020810190620018789190620020e5565b8960a00160208101906200188d919062001e8d565b8a60c001358a6001546040518b63ffffffff1660e01b8152600401620018bd9a9998979695949392919062002af5565b600060405180830381600087803b158015620018d857600080fd5b505af1158015620018ed573d6000803e3d6000fd5b50505050505050565b60008060009054906101000a900473ffffffffffffffffffffffffffffffffffffffff169050816000806101000a81548173ffffffffffffffffffffffffffffffffffffffff021916908373ffffffffffffffffffffffffffffffffffffffff1602179055508173ffffffffffffffffffffffffffffffffffffffff168173ffffffffffffffffffffffffffffffffffffffff167f8be0079c531659141344cd1fd0a4f28419497f9722a3daafe3b4186f6b6457e060405160405180910390a35050565b606060405180602001620019ce9062001b9f565b6020820181038252601f19601f820116604052507f000000000000000000000000000000000000000000000000000000000000000060405160200162001a15919062002a67565b60405160208183030381529060405260405160200162001a37929190620029e9565b604051602081830303815290604052905090565b600062001a5a83833062001aee565b905092915050565b600080838351602085016000f59050600073ffffffffffffffffffffffffffffffffffffffff168173ffffffffffffffffffffffffffffffffffffffff16141562001ae4576040517f08c379a000000000000000000000000000000000000000000000000000000000815260040162001adb9062002de9565b60405180910390fd5b8091505092915050565b60008083805190602001209050600060ff60f81b84878460405160200162001b1a949392919062002993565b604051602081830303815290604052805190602001209050606081901b60601c925050509392505050565b826002810192821562001b8c579160200282015b8281111562001b8b57825182908051906020019062001b7a92919062001bad565b509160200191906001019062001b59565b5b50905062001b9b919062001c3e565b5090565b6102bf80620035a883390190565b82805462001bbb9062003243565b90600052602060002090601f01602090048101928262001bdf576000855562001c2b565b82601f1062001bfa57805160ff191683800117855562001c2b565b8280016001018555821562001c2b579182015b8281111562001c2a57825182559160200191906001019062001c0d565b5b50905062001c3a919062001c66565b5090565b5b8082111562001c62576000818162001c58919062001c85565b5060010162001c3f565b5090565b5b8082111562001c8157600081600090555060010162001c67565b5090565b50805462001c939062003243565b6000825580601f1062001ca7575062001cc8565b601f01602090049060005260206000209081019062001cc7919062001c66565b5b50565b600062001ce262001cdc8462002f08565b62002ed4565b9050808260005b8581101562001d1d578135850162001d02888262001dfe565b84526020840193506020830192505060018101905062001ce9565b5050509392505050565b600062001d3e62001d388462002f31565b62002ed4565b90508281526020810184848401111562001d5757600080fd5b62001d64848285620031fe565b509392505050565b60008135905062001d7d8162003525565b92915050565b60008135905062001d94816200353f565b92915050565b60008083601f84011262001dad57600080fd5b8235905067ffffffffffffffff81111562001dc757600080fd5b60208301915083604082028301111562001de057600080fd5b9250929050565b60008151905062001df88162003559565b92915050565b600082601f83011262001e1057600080fd5b813562001e2284826020860162001d27565b91505092915050565b6000610100828403121562001e3f57600080fd5b81905092915050565b60008135905062001e598162003573565b92915050565b60008151905062001e708162003573565b92915050565b60008135905062001e87816200358d565b92915050565b60006020828403121562001ea057600080fd5b600062001eb08482850162001d6c565b91505092915050565b60006020828403121562001ecc57600080fd5b600062001edc8482850162001d83565b91505092915050565b6000806040838503121562001ef957600080fd5b600062001f098582860162001d6c565b925050602062001f1c8582860162001d6c565b9150509250929050565b6000806040838503121562001f3a57600080fd5b600062001f4a8582860162001d6c565b925050602062001f5d8582860162001d83565b9150509250929050565b6000806000806060858703121562001f7e57600080fd5b600062001f8e8782880162001d6c565b945050602085013567ffffffffffffffff81111562001fac57600080fd5b62001fba8782880162001d9a565b9350935050604062001fcf8782880162001e48565b91505092959194509250565b6000806040838503121562001fef57600080fd5b600062001fff8582860162001d6c565b9250506020620020128582860162001e48565b9150509250929050565b6000602082840312156200202f57600080fd5b60006200203f8482850162001de7565b91505092915050565b6000602082840312156200205b57600080fd5b600082013567ffffffffffffffff8111156200207657600080fd5b620020848482850162001e2b565b91505092915050565b600060208284031215620020a057600080fd5b6000620020b08482850162001e48565b91505092915050565b600060208284031215620020cc57600080fd5b6000620020dc8482850162001e5f565b91505092915050565b600060208284031215620020f857600080fd5b6000620021088482850162001e76565b91505092915050565b6000620021208484846200241e565b90509392505050565b600062002137838362002451565b905092915050565b60006200214d83836200288a565b905092915050565b62002160816200319a565b82525050565b6200217181620030f6565b82525050565b6200218281620030e2565b82525050565b6200219381620030e2565b82525050565b620021ae620021a882620030e2565b620032c7565b82525050565b6000620021c2838562002fe6565b93507f07ffffffffffffffffffffffffffffffffffffffffffffffffffffffffffffff831115620021f257600080fd5b60208302925062002205838584620031fe565b82840190509392505050565b60006200221e8262002f88565b6200222a818562003002565b9350836020820285016200223e8562002f64565b8060005b858110156200228c5784840389526200225c82846200306f565b6200226986828462002111565b9550620022768462002fbf565b935060208b019a50505060018101905062002242565b50829750879550505050505092915050565b6000620022ab8262002f93565b620022b7818562002ff7565b935083602082028501620022cb8562002f6e565b8060005b858110156200230d5784840389528151620022eb858262002129565b9450620022f88362002fcc565b925060208a01995050600181019050620022cf565b50829750879550505050505092915050565b60006200232c8262002f9e565b6200233881856200300d565b9350836020820285016200234c8562002f78565b8060005b858110156200238e57848403895281516200236c85826200213f565b9450620023798362002fd9565b925060208a0199505060018101905062002350565b50829750879550505050505092915050565b620023ab816200310a565b82525050565b620023c6620023c08262003116565b620032db565b82525050565b620023e1620023db8262003142565b620032e5565b82525050565b6000620023f48262002fa9565b6200240081856200301e565b9350620024128185602086016200320d565b80840191505092915050565b60006200242c838562003029565b93506200243b838584620031fe565b6200244683620033de565b840190509392505050565b60006200245e8262002fb4565b6200246a818562003029565b93506200247c8185602086016200320d565b6200248781620033de565b840191505092915050565b60006200249f8262002fb4565b620024ab81856200303a565b9350620024bd8185602086016200320d565b620024c881620033de565b840191505092915050565b6000620024e08262002fb4565b620024ec81856200304b565b9350620024fe8185602086016200320d565b80840191505092915050565b6000620025196013836200303a565b91507f4e4f5420454e4f55474820464f522046454553000000000000000000000000006000830152602082019050919050565b60006200255b6026836200303a565b91507f4f776e61626c653a206e6577206f776e657220697320746865207a65726f206160008301527f64647265737300000000000000000000000000000000000000000000000000006020830152604082019050919050565b6000620025c36010836200303a565b91507f6164647265737320636f6d7075746564000000000000000000000000000000006000830152602082019050919050565b6000620026056014836200303a565b91507f746f6b656e20616c72656164792066756e6465640000000000000000000000006000830152602082019050919050565b600062002647603a836200303a565b91507f416464726573733a20756e61626c6520746f2073656e642076616c75652c207260008301527f6563697069656e74206d617920686176652072657665727465640000000000006020830152604082019050919050565b6000620026af601d836200303a565b91507f416464726573733a20696e73756666696369656e742062616c616e63650000006000830152602082019050919050565b6000620026f16012836200303a565b91507f7374617274696e6720746f2063726561746500000000000000000000000000006000830152602082019050919050565b6000620027336015836200303a565b91507f546f6b656e207472616e73666572206661696c656400000000000000000000006000830152602082019050919050565b6000620027756020836200303a565b91507f4f776e61626c653a2063616c6c6572206973206e6f7420746865206f776e65726000830152602082019050919050565b6000620027b76012836200303a565b91507f4f4e4520616c72656164792066756e64656400000000000000000000000000006000830152602082019050919050565b6000620027f96017836200303a565b91507f546f6b656e207769746864726177616c206661696c65640000000000000000006000830152602082019050919050565b60006200283b6000836200301e565b9150600082019050919050565b600062002857600e836200303a565b91507f435245415445325f4641494c45440000000000000000000000000000000000006000830152602082019050919050565b6000604083016000830151620028a4600086018262002177565b5060208301518482036020860152620028be82826200229e565b9150508091505092915050565b60408201620028de600083018362003056565b620028ed600085018262002177565b50620028fd6020830183620030c9565b6200290c602085018262002945565b50505050565b6040820160008201516200292a600085018262002177565b5060208201516200293f602085018262002945565b50505050565b62002950816200316c565b82525050565b62002961816200316c565b82525050565b6200297c62002976826200316c565b62003303565b82525050565b6200298d8162003176565b82525050565b6000620029a18287620023b1565b600182019150620029b3828662002199565b601482019150620029c58285620023cc565b602082019150620029d78284620023cc565b60208201915081905095945050505050565b6000620029f78285620023e7565b915062002a058284620023e7565b91508190509392505050565b600062002a1f8286620024d3565b915062002a2d828562002199565b60148201915062002a3f828462002967565b602082019150819050949350505050565b600062002a5d826200282c565b9150819050919050565b600060208201905062002a7e600083018462002188565b92915050565b600060408201905062002a9b600083018562002155565b62002aaa602083018462002956565b9392505050565b600060608201905062002ac8600083018662002188565b62002ad7602083018562002188565b818103604083015262002aeb818462002211565b9050949350505050565b60006101208201905062002b0d600083018d62002188565b818103602083015262002b21818c62002211565b905062002b32604083018b62002188565b818103606083015262002b4781898b620021b4565b905062002b58608083018862002982565b62002b6760a083018762002166565b62002b7660c083018662002956565b62002b8560e083018562002188565b62002b9561010083018462002956565b9b9a5050505050505050505050565b600060608201905062002bbb600083018562002188565b62002bca6020830184620028cb565b9392505050565b600060608201905062002be8600083018562002188565b62002bf7602083018462002912565b9392505050565b600060408201905062002c15600083018562002188565b62002c24602083018462002956565b9392505050565b6000602082019050818103600083015262002c4781846200231f565b905092915050565b6000602082019050818103600083015262002c6b818462002492565b905092915050565b6000602082019050818103600083015262002c8e816200250a565b9050919050565b6000602082019050818103600083015262002cb0816200254c565b9050919050565b6000602082019050818103600083015262002cd281620025b4565b9050919050565b6000602082019050818103600083015262002cf481620025f6565b9050919050565b6000602082019050818103600083015262002d168162002638565b9050919050565b6000602082019050818103600083015262002d3881620026a0565b9050919050565b6000602082019050818103600083015262002d5a81620026e2565b9050919050565b6000602082019050818103600083015262002d7c8162002724565b9050919050565b6000602082019050818103600083015262002d9e8162002766565b9050919050565b6000602082019050818103600083015262002dc081620027a8565b9050919050565b6000602082019050818103600083015262002de281620027ea565b9050919050565b6000602082019050818103600083015262002e048162002848565b9050919050565b600060208201905062002e22600083018462002956565b92915050565b600060408201905062002e3f600083018562002956565b62002e4e6020830184620023a0565b9392505050565b6000808335600160200384360303811262002e6f57600080fd5b80840192508235915067ffffffffffffffff82111562002e8e57600080fd5b60208301925060208202360383131562002ea757600080fd5b509250929050565b60008235600160400383360303811262002ec857600080fd5b80830191505092915050565b6000604051905081810181811067ffffffffffffffff8211171562002efe5762002efd6200336b565b5b8060405250919050565b600067ffffffffffffffff82111562002f265762002f256200336b565b5b602082029050919050565b600067ffffffffffffffff82111562002f4f5762002f4e6200336b565b5b601f19601f8301169050602081019050919050565b6000819050919050565b6000819050919050565b6000819050602082019050919050565b600060029050919050565b600060029050919050565b600081519050919050565b600081519050919050565b600081519050919050565b6000602082019050919050565b6000602082019050919050565b6000602082019050919050565b600082825260208201905092915050565b600081905092915050565b600081905092915050565b600082825260208201905092915050565b600081905092915050565b600082825260208201905092915050565b600082825260208201905092915050565b600081905092915050565b600062003067602084018462001d6c565b905092915050565b600080833560016020038436030381126200308957600080fd5b83810192508235915060208301925067ffffffffffffffff821115620030ae57600080fd5b600182023603841315620030c157600080fd5b509250929050565b6000620030da602084018462001e48565b905092915050565b6000620030ef826200314c565b9050919050565b600062003103826200314c565b9050919050565b60008115159050919050565b60007fff0000000000000000000000000000000000000000000000000000000000000082169050919050565b6000819050919050565b600073ffffffffffffffffffffffffffffffffffffffff82169050919050565b6000819050919050565b600060ff82169050919050565b6000620031933660028462001ccb565b9050919050565b6000620031a782620031c2565b9050919050565b6000620031bb82620031c2565b9050919050565b6000620031cf82620031d6565b9050919050565b6000620031e3826200314c565b9050919050565b6000620031f7826200316c565b9050919050565b82818337600083830152505050565b60005b838110156200322d57808201518184015260208101905062003210565b838111156200323d576000848401525b50505050565b600060028204905060018216806200325c57607f821691505b602082108114156200327357620032726200333c565b5b50919050565b600062003286826200316c565b91507fffffffffffffffffffffffffffffffffffffffffffffffffffffffffffffffff821415620032bc57620032bb6200330d565b5b600182019050919050565b6000620032d482620032ef565b9050919050565b6000819050919050565b6000819050919050565b6000620032fc82620033fc565b9050919050565b6000819050919050565b7f4e487b7100000000000000000000000000000000000000000000000000000000600052601160045260246000fd5b7f4e487b7100000000000000000000000000000000000000000000000000000000600052602260045260246000fd5b7f4e487b7100000000000000000000000000000000000000000000000000000000600052604160045260246000fd5b6000819050919050565b6000819050919050565b60008135620033bd8162003525565b80915050919050565b60008135620033d58162003573565b80915050919050565b6000601f19601f8301169050919050565b60008160001b9050919050565b60008160601b9050919050565b600073ffffffffffffffffffffffffffffffffffffffff6200342b84620033ef565b9350801983169250808416831791505092915050565b60007fffffffffffffffffffffffffffffffffffffffffffffffffffffffffffffffff6200346f84620033ef565b9350801983169250808416831791505092915050565b6200349082620031ae565b620034a76200349f826200339a565b835462003409565b8255505050565b600081016000830180620034c281620033ae565b9050620034d0818462003485565b505050600181016020830180620034e781620033c6565b9050620034f58184620034fc565b5050505050565b6200350782620031ea565b6200351e6200351682620033a4565b835462003441565b8255505050565b6200353081620030e2565b81146200353c57600080fd5b50565b6200354a81620030f6565b81146200355657600080fd5b50565b62003564816200310a565b81146200357057600080fd5b50565b6200357e816200316c565b81146200358a57600080fd5b50565b620035988162003176565b8114620035a457600080fd5b5056fe608060405234801561001057600080fd5b506040516102bf3803806102bf833981810160405281019061003291906100fd565b600073ffffffffffffffffffffffffffffffffffffffff168173ffffffffffffffffffffffffffffffffffffffff1614156100a2576040517f08c379a00000000000000000000000000000000000000000000000000000000081526004016100999061018c565b60405180910390fd5b806000806101000a81548173ffffffffffffffffffffffffffffffffffffffff021916908373ffffffffffffffffffffffffffffffffffffffff16021790555050610206565b6000815190506100f7816101ef565b92915050565b60006020828403121561010f57600080fd5b600061011d848285016100e8565b91505092915050565b60006101336024836101ac565b91507f496e76616c6964206d617374657220636f707920616464726573732070726f7660008301527f69646564000000000000000000000000000000000000000000000000000000006020830152604082019050919050565b600060208201905081810360008301526101a581610126565b9050919050565b600082825260208201905092915050565b60006101c8826101cf565b9050919050565b600073ffffffffffffffffffffffffffffffffffffffff82169050919050565b6101f8816101bd565b811461020357600080fd5b50565b60ab806102146000396000f3fe608060405273ffffffffffffffffffffffffffffffffffffffff600054167fa619486e0000000000000000000000000000000000000000000000000000000060003514156050578060005260206000f35b3660008037600080366000845af43d6000803e60008114156070573d6000fd5b3d6000f3fea2646970667358221220fcb530ae926477d02c6593e093d31046b67585c6f8928d83c036bbbe121b94cd64736f6c63430008000033a2646970667358221220c7ed980c5e8821f290d8951a8f7a615f97d1392b5b70f73656ff6bbdf27fd6c664736f6c63430008000033",
  "immutableReferences": {
    "4696": [
      {
        "length": 32,
        "start": 3030
      },
      {
        "length": 32,
        "start": 6628
      }
    ]
  },
  "source": "// SPDX-License-Identifier:GPL-3.0-only\npragma solidity >=0.7.6;\npragma experimental ABIEncoderV2;\n\nimport \"@openzeppelin/contracts/access/Ownable.sol\";\nimport \"@openzeppelin/contracts/token/ERC20/IERC20.sol\";\nimport \"@openzeppelin/contracts/utils/Address.sol\";\nimport \"./otpWallet.sol\";\nimport \"./external/walletproxy.sol\";\nimport \"./external/create2.sol\";\nimport \"./external/signatureutil.sol\";\n\ncontract WalletFactory is Ownable {\n\tusing Address for address payable;\n\n\tevent CreateWallet(address wallet, address owner, string[2] domain);\n\tevent InitialPortfolioFunding(address wallet, FundToken fundedToken);\n\tevent Received(address indexed _from, uint256 _value);\n\tevent Withdrawn(\n\t\taddress indexed _to,\n\t\taddress indexed _tokenAddress,\n\t\tuint256 _value,\n\t\tbool success\n\t);\n\n\tevent Debug(bytes32 signHash, address addr);\n\tevent Log(string logMessage);\n\n\taddress public immutable walletImplementation;\n\tstring public constant WALLET_CREATION = \"WALLET_CREATION\";\n\tuint256 public feeAmount = 0.09 ether; // 0.09 ONE\n\tuint256 public freeUserCap = 1000;\n\n\tstruct CreateRecord {\n\t\taddress wallet;\n\t\tstring[2] domain;\n\t}\n\n\tstruct FundToken {\n\t\taddress tokenAddress;\n\t\tuint256 tokenAmount;\n\t}\n\n\tCreateRecord[] public created;\n\tmapping(address => mapping(address => FundToken)) public walletTokenMap; // mapping walletAddress to map of FundToken to map of Token\n\n\t// TODO: Remove dailyLimit for initial setup\n\tstruct WalletConfig {\n\t\taddress resolver;\n\t\tstring[2] domain;\n\t\taddress owner;\n\t\tbytes32[] rootHash;\n\t\tuint8 merkleHeight;\n\t\taddress drainAddr;\n\t\tuint256 dailyLimit;\n\t\tuint256 salt;\n\t\t// address feeReceipient;\n\t\t// uint256 feeAmount;\n\t}\n\n\tconstructor(address _walletImplementation) {\n\t\twalletImplementation = _walletImplementation;\n\t}\n\n\t// TODO: See if there is a cleaner way to receive\n\t// TODO: Fix emit event for fallback function\n\treceive() external payable {\n\t\temit Received(msg.sender, msg.value);\n\t}\n\n\tfunction withdraw(address payable to) external onlyOwner {\n\t\tuint256 balance = address(this).balance;\n\t\tpayable(to).sendValue(balance);\n\t\t// TODO: Check if sendValue returns sth or is reverted\n\t\temit Withdrawn(\n\t\t\tto,\n\t\t\t0x0000000000000000000000000000000000000000,\n\t\t\tbalance,\n\t\t\ttrue\n\t\t);\n\t}\n\n\tfunction withdrawErc20(address tokenAddress, address payable to)\n\t\texternal\n\t\tonlyOwner\n\t{\n\t\tuint256 balance = IERC20(tokenAddress).balanceOf(address(this));\n\t\tbool sent = IERC20(tokenAddress).transfer(to, balance);\n\n\t\temit Withdrawn(to, tokenAddress, balance, sent);\n\t\trequire(sent, \"Token withdrawal failed\");\n\t}\n\n\tfunction createWallet(WalletConfig calldata config)\n\t\texternal\n\t\tonlyOwner\n\t\treturns (address wallet)\n\t{\n\t\temit Log(\"starting to create\");\n\n\t\taddress addr = computeWalletAddress(config.owner, config.salt);\n\n\t\temit Log(\"address computed\");\n\n\t\t// set feeAmount to 0 for first 1000 users\n\t\tif (created.length > freeUserCap) {\n\t\t\trequire(addr.balance >= feeAmount, \"NOT ENOUGH FOR FEES\");\n\t\t} else {\n\t\t\tfeeAmount = 0;\n\t\t}\n\t\t// require(NameRegistry(this).registerName(config.name, addr, 1));\n\n\t\twallet = _deploy(config.owner, config.salt);\n\t\t_initializeWallet(wallet, config);\n\n\t\tcreated.push(CreateRecord(address(wallet), config.domain));\n\t\temit CreateWallet(address(wallet), config.owner, config.domain);\n\t}\n\n\t// send initial ONE&ERC20 tokens to user's wallet\n\tfunction initialPortfolioFunding(\n\t\taddress wallet,\n\t\tFundToken[] calldata fundingTokens,\n\t\tuint256 oneAmount\n\t) external onlyOwner {\n\t\t// fund ERC20 tokens\n\t\tfor (uint256 i = 0; i < fundingTokens.length; i++) {\n\t\t\tFundToken calldata token = fundingTokens[i];\n\t\t\tFundToken memory specificToken = walletTokenMap[wallet][\n\t\t\t\ttoken.tokenAddress\n\t\t\t];\n\t\t\trequire(specificToken.tokenAmount == 0, \"token already funded\");\n\n\t\t\tbool sent = IERC20(token.tokenAddress).transfer(\n\t\t\t\twallet,\n\t\t\t\ttoken.tokenAmount\n\t\t\t);\n\t\t\trequire(sent, \"Token transfer failed\");\n\n\t\t\t// TODO: Understand if this needs fixing or only base token / ONE\n\t\t\twalletTokenMap[wallet][token.tokenAddress] = token;\n\t\t\temit InitialPortfolioFunding(wallet, token);\n\t\t}\n\n\t\tFundToken memory oneToken = FundToken({\n\t\t\ttokenAddress: 0x0000000000000000000000000000000000000000,\n\t\t\ttokenAmount: oneAmount\n\t\t});\n\n\t\tFundToken memory alreadyFundedToken = walletTokenMap[wallet][\n\t\t\toneToken.tokenAddress\n\t\t];\n\n\t\trequire(alreadyFundedToken.tokenAmount == 0, \"ONE already funded\");\n\n\t\twalletTokenMap[wallet][oneToken.tokenAddress] = oneToken;\n\n\t\tpayable(wallet).sendValue(oneAmount);\n\n\t\t// TODO: Move the whole thing to multicall to fix reentrancy issue ?\n\n\t\temit InitialPortfolioFunding(wallet, oneToken);\n\t}\n\n\tfunction computeWalletAddress(address owner, uint256 salt)\n\t\tpublic\n\t\tview\n\t\treturns (address)\n\t{\n\t\treturn\n\t\t\tCreate2.computeAddress(\n\t\t\t\tkeccak256(abi.encodePacked(WALLET_CREATION, owner, salt)),\n\t\t\t\tgetWalletCode()\n\t\t\t);\n\t}\n\n\tfunction getCreated() public view returns (CreateRecord[] memory) {\n\t\treturn created;\n\t}\n\n\t// --- Internal functions ---\n\n\tfunction _initializeWallet(address wallet, WalletConfig calldata config)\n\t\tinternal\n\t{\n\t\taddress feeReceipient = msg.sender;\n\n\t\tTOTPWallet(payable(wallet)).initialize(\n\t\t\tconfig.resolver,\n\t\t\tconfig.domain,\n\t\t\tconfig.owner,\n\t\t\tconfig.rootHash,\n\t\t\tconfig.merkleHeight,\n\t\t\tpayable(config.drainAddr),\n\t\t\tconfig.dailyLimit,\n\t\t\tfeeReceipient,\n\t\t\tfeeAmount\n\t\t);\n\n\t\t//TOTPWallet(payable(wallet)).registerENS(config.subdomain, config.domain, config.duration);\n\t}\n\n\tfunction _deploy(address owner, uint256 salt)\n\t\tinternal\n\t\treturns (address payable wallet)\n\t{\n\t\t// Deploy the wallet proxy\n\t\twallet = Create2.deploy(\n\t\t\tkeccak256(abi.encodePacked(WALLET_CREATION, owner, salt)),\n\t\t\tgetWalletCode()\n\t\t);\n\t}\n\n\tfunction getWalletCode() internal view returns (bytes memory) {\n\t\treturn\n\t\t\tabi.encodePacked(\n\t\t\t\ttype(WalletProxy).creationCode,\n\t\t\t\tabi.encode(walletImplementation)\n\t\t\t);\n\t}\n}\n",
  "sourcePath": "/Users/okudajunta/Desktop/nobank/contracts/contracts/walletFactory.sol",
  "compiler": {
    "name": "solc",
    "version": "0.8.0+commit.c7dfd78e.Emscripten.clang"
  },
  "schemaVersion": "3.4.4",
  "updatedAt": "2021-12-24T03:20:17.994Z",
  "devdoc": {
    "kind": "dev",
    "methods": {
      "owner()": {
        "details": "Returns the address of the current owner."
      },
      "renounceOwnership()": {
        "details": "Leaves the contract without owner. It will not be possible to call `onlyOwner` functions anymore. Can only be called by the current owner. NOTE: Renouncing ownership will leave the contract without an owner, thereby removing any functionality that is only available to the owner."
      },
      "transferOwnership(address)": {
        "details": "Transfers ownership of the contract to a new account (`newOwner`). Can only be called by the current owner."
      }
    },
    "version": 1
  },
  "userdoc": {
    "kind": "user",
    "methods": {},
    "version": 1
  }
}