{
  "contractName": "WalletFactory",
  "abi": [
    {
      "inputs": [
        {
          "internalType": "address",
          "name": "_walletImplementation",
          "type": "address"
        }
      ],
      "stateMutability": "nonpayable",
      "type": "constructor"
    },
    {
      "anonymous": false,
      "inputs": [
        {
          "indexed": false,
          "internalType": "bytes32",
          "name": "signHash",
          "type": "bytes32"
        },
        {
          "indexed": false,
          "internalType": "address",
          "name": "addr",
          "type": "address"
        }
      ],
      "name": "Debug",
      "type": "event"
    },
    {
      "anonymous": false,
      "inputs": [
        {
          "indexed": true,
          "internalType": "address",
          "name": "previousOwner",
          "type": "address"
        },
        {
          "indexed": true,
          "internalType": "address",
          "name": "newOwner",
          "type": "address"
        }
      ],
      "name": "OwnershipTransferred",
      "type": "event"
    },
    {
      "anonymous": false,
      "inputs": [
        {
          "indexed": false,
          "internalType": "address",
          "name": "wallet",
          "type": "address"
        },
        {
          "indexed": false,
          "internalType": "address",
          "name": "owner",
          "type": "address"
        }
      ],
      "name": "WalletCreated",
      "type": "event"
    },
    {
      "inputs": [],
      "name": "WALLET_CREATION",
      "outputs": [
        {
          "internalType": "string",
          "name": "",
          "type": "string"
        }
      ],
      "stateMutability": "view",
      "type": "function",
      "constant": true
    },
    {
      "inputs": [
        {
          "internalType": "uint256",
          "name": "",
          "type": "uint256"
        }
      ],
      "name": "created",
      "outputs": [
        {
          "internalType": "address",
          "name": "wallet",
          "type": "address"
        }
      ],
      "stateMutability": "view",
      "type": "function",
      "constant": true
    },
    {
      "inputs": [],
      "name": "feeAmount",
      "outputs": [
        {
          "internalType": "uint256",
          "name": "",
          "type": "uint256"
        }
      ],
      "stateMutability": "view",
      "type": "function",
      "constant": true
    },
    {
      "inputs": [],
      "name": "freeUserCap",
      "outputs": [
        {
          "internalType": "uint256",
          "name": "",
          "type": "uint256"
        }
      ],
      "stateMutability": "view",
      "type": "function",
      "constant": true
    },
    {
      "inputs": [
        {
          "internalType": "address",
          "name": "",
          "type": "address"
        }
      ],
      "name": "isFundedWallet",
      "outputs": [
        {
          "internalType": "bool",
          "name": "",
          "type": "bool"
        }
      ],
      "stateMutability": "view",
      "type": "function",
      "constant": true
    },
    {
      "inputs": [],
      "name": "owner",
      "outputs": [
        {
          "internalType": "address",
          "name": "",
          "type": "address"
        }
      ],
      "stateMutability": "view",
      "type": "function",
      "constant": true
    },
    {
      "inputs": [],
      "name": "renounceOwnership",
      "outputs": [],
      "stateMutability": "nonpayable",
      "type": "function"
    },
    {
      "inputs": [
        {
          "internalType": "address",
          "name": "newOwner",
          "type": "address"
        }
      ],
      "name": "transferOwnership",
      "outputs": [],
      "stateMutability": "nonpayable",
      "type": "function"
    },
    {
      "inputs": [],
      "name": "walletImplementation",
      "outputs": [
        {
          "internalType": "address",
          "name": "",
          "type": "address"
        }
      ],
      "stateMutability": "view",
      "type": "function",
      "constant": true
    },
    {
      "stateMutability": "payable",
      "type": "receive",
      "payable": true
    },
    {
      "inputs": [
        {
          "internalType": "address payable",
          "name": "to",
          "type": "address"
        }
      ],
      "name": "withdraw",
      "outputs": [],
      "stateMutability": "nonpayable",
      "type": "function"
    },
    {
      "inputs": [
        {
          "internalType": "address",
          "name": "tokenAddress",
          "type": "address"
        },
        {
          "internalType": "address payable",
          "name": "to",
          "type": "address"
        }
      ],
      "name": "withdrawErc20",
      "outputs": [],
      "stateMutability": "nonpayable",
      "type": "function"
    },
    {
      "inputs": [
        {
          "components": [
            {
              "internalType": "address",
              "name": "resolver",
              "type": "address"
            },
            {
              "internalType": "string[2]",
              "name": "domain",
              "type": "string[2]"
            },
            {
              "internalType": "address",
              "name": "owner",
              "type": "address"
            },
            {
              "internalType": "bytes32[]",
              "name": "rootHash",
              "type": "bytes32[]"
            },
            {
              "internalType": "uint8",
              "name": "merkleHeight",
              "type": "uint8"
            },
            {
              "internalType": "address",
              "name": "drainAddr",
              "type": "address"
            },
            {
              "internalType": "uint256",
              "name": "dailyLimit",
              "type": "uint256"
            },
            {
              "internalType": "uint256",
              "name": "salt",
              "type": "uint256"
            }
          ],
          "internalType": "struct WalletFactory.WalletConfig",
          "name": "config",
          "type": "tuple"
        }
      ],
      "name": "createWallet",
      "outputs": [
        {
          "internalType": "address",
          "name": "wallet",
          "type": "address"
        }
      ],
      "stateMutability": "nonpayable",
      "type": "function"
    },
    {
      "inputs": [
        {
          "internalType": "address",
          "name": "wallet",
          "type": "address"
        },
        {
          "components": [
            {
              "internalType": "address",
              "name": "tokenAddress",
              "type": "address"
            },
            {
              "internalType": "uint256",
              "name": "amount",
              "type": "uint256"
            }
          ],
          "internalType": "struct WalletFactory.FundingData[]",
          "name": "fundingTokens",
          "type": "tuple[]"
        },
        {
          "internalType": "uint256",
          "name": "ONEAmount",
          "type": "uint256"
        }
      ],
      "name": "initialPortfolioFunding",
      "outputs": [],
      "stateMutability": "nonpayable",
      "type": "function"
    },
    {
      "inputs": [
        {
          "internalType": "address",
          "name": "owner",
          "type": "address"
        },
        {
          "internalType": "uint256",
          "name": "salt",
          "type": "uint256"
        }
      ],
      "name": "computeWalletAddress",
      "outputs": [
        {
          "internalType": "address",
          "name": "",
          "type": "address"
        }
      ],
      "stateMutability": "view",
      "type": "function",
      "constant": true
    },
    {
      "inputs": [],
      "name": "getCreated",
      "outputs": [
        {
          "components": [
            {
              "internalType": "address",
              "name": "wallet",
              "type": "address"
            },
            {
              "internalType": "string[2]",
              "name": "domain",
              "type": "string[2]"
            }
          ],
          "internalType": "struct WalletFactory.CreateRecord[]",
          "name": "",
          "type": "tuple[]"
        }
      ],
      "stateMutability": "view",
      "type": "function",
      "constant": true
    }
  ],
  "bytecode": "0x60a060405267013fbe85edc900006001556103e86002553480156200002357600080fd5b50604051620030e9380380620030e983398181016040528101906200004991906200018a565b620000696200005d620000a760201b60201c565b620000af60201b60201c565b8073ffffffffffffffffffffffffffffffffffffffff1660808173ffffffffffffffffffffffffffffffffffffffff1660601b815250505062000204565b600033905090565b60008060009054906101000a900473ffffffffffffffffffffffffffffffffffffffff169050816000806101000a81548173ffffffffffffffffffffffffffffffffffffffff021916908373ffffffffffffffffffffffffffffffffffffffff1602179055508173ffffffffffffffffffffffffffffffffffffffff168173ffffffffffffffffffffffffffffffffffffffff167f8be0079c531659141344cd1fd0a4f28419497f9722a3daafe3b4186f6b6457e060405160405180910390a35050565b6000815190506200018481620001ea565b92915050565b6000602082840312156200019d57600080fd5b6000620001ad8482850162000173565b91505092915050565b6000620001c382620001ca565b9050919050565b600073ffffffffffffffffffffffffffffffffffffffff82169050919050565b620001f581620001b6565b81146200020157600080fd5b50565b60805160601c612ebf6200022a60003960008181610a3701526114ab0152612ebf6000f3fe608060405260043610620001035760003560e01c80638da5cb5b1162000097578063ce1586121162000061578063ce1586121462000342578063d267ff361462000386578063f2fde38b14620003b6578063fdae6acc14620003e4576200010b565b80638da5cb5b146200026e5780638ecf0d0b146200029e57806390610b0e14620002ce578063b480e3c514620002fe576200010b565b8063715018a611620000d9578063715018a614620001b2578063739656db14620001cc5780638117abc114620001fa57806382cb6b72146200022a576200010b565b806351cff8d914620001105780635323b582146200013e57806369e154041462000182576200010b565b366200010b57005b600080fd5b3480156200011d57600080fd5b506200013c600480360381019062000136919062001980565b62000412565b005b3480156200014b57600080fd5b506200016a600480360381019062000164919062001ace565b620004c9565b6040516200017991906200235a565b60405180910390f35b3480156200018f57600080fd5b506200019a620007a8565b604051620001a9919062002622565b60405180910390f35b348015620001bf57600080fd5b50620001ca620007ae565b005b348015620001d957600080fd5b50620001f86004803603810190620001f29190620019ac565b6200083f565b005b3480156200020757600080fd5b506200021262000a35565b6040516200022191906200235a565b60405180910390f35b3480156200023757600080fd5b5062000256600480360381019062000250919062001b13565b62000a59565b6040516200026591906200235a565b60405180910390f35b3480156200027b57600080fd5b506200028662000aa8565b6040516200029591906200235a565b60405180910390f35b348015620002ab57600080fd5b50620002b662000ad1565b604051620002c59190620024ad565b60405180910390f35b348015620002db57600080fd5b50620002e662000c59565b604051620002f59190620024ee565b60405180910390f35b3480156200030b57600080fd5b506200032a600480360381019062000324919062001954565b62000c92565b604051620003399190620024d1565b60405180910390f35b3480156200034f57600080fd5b506200036e600480360381019062000368919062001a61565b62000cb2565b6040516200037d91906200235a565b60405180910390f35b3480156200039357600080fd5b506200039e62000d32565b604051620003ad919062002622565b60405180910390f35b348015620003c357600080fd5b50620003e26004803603810190620003dc919062001954565b62000d38565b005b348015620003f157600080fd5b506200041060048036038101906200040a9190620019ed565b62000e3c565b005b6200041c62001135565b73ffffffffffffffffffffffffffffffffffffffff166200043c62000aa8565b73ffffffffffffffffffffffffffffffffffffffff161462000495576040517f08c379a00000000000000000000000000000000000000000000000000000000081526004016200048c90620025bc565b60405180910390fd5b6000479050620004c5818373ffffffffffffffffffffffffffffffffffffffff166200113d90919063ffffffff16565b5050565b6000620004d562001135565b73ffffffffffffffffffffffffffffffffffffffff16620004f562000aa8565b73ffffffffffffffffffffffffffffffffffffffff16146200054e576040517f08c379a00000000000000000000000000000000000000000000000000000000081526004016200054590620025bc565b60405180910390fd5b60006200057483604001602081019062000569919062001954565b8460e0013562000cb2565b90506002546003805490501115620005eb576001548173ffffffffffffffffffffffffffffffffffffffff16311015620005e5576040517f08c379a0000000000000000000000000000000000000000000000000000000008152600401620005dc9062002512565b60405180910390fd5b620005f4565b60006001819055505b620006188360400160208101906200060d919062001954565b8460e001356200123b565b9150620006268284620012bb565b600360405180604001604052808473ffffffffffffffffffffffffffffffffffffffff16815260200185806020019062000661919062002699565b6200066c906200293b565b815250908060018154018082558091505060019003906000526020600020906003020160009091909190915060008201518160000160006101000a81548173ffffffffffffffffffffffffffffffffffffffff021916908373ffffffffffffffffffffffffffffffffffffffff160217905550602082015181600101906002620006f89291906200160c565b5050506000600460008473ffffffffffffffffffffffffffffffffffffffff1673ffffffffffffffffffffffffffffffffffffffff16815260200190815260200160002060006101000a81548160ff0219169083151502179055507f5b03bfed1c14a02bdeceb5fa582eb1a5765fc0bc64ca0e6af4c20afc9487f081828460400160208101906200078a919062001954565b6040516200079a929190620023a4565b60405180910390a150919050565b60015481565b620007b862001135565b73ffffffffffffffffffffffffffffffffffffffff16620007d862000aa8565b73ffffffffffffffffffffffffffffffffffffffff161462000831576040517f08c379a00000000000000000000000000000000000000000000000000000000081526004016200082890620025bc565b60405180910390fd5b6200083d6000620013bd565b565b6200084962001135565b73ffffffffffffffffffffffffffffffffffffffff166200086962000aa8565b73ffffffffffffffffffffffffffffffffffffffff1614620008c2576040517f08c379a0000000000000000000000000000000000000000000000000000000008152600401620008b990620025bc565b60405180910390fd5b60008273ffffffffffffffffffffffffffffffffffffffff166370a08231306040518263ffffffff1660e01b8152600401620008ff91906200235a565b60206040518083038186803b1580156200091857600080fd5b505afa1580156200092d573d6000803e3d6000fd5b505050506040513d601f19601f8201168201806040525081019062000953919062001b3f565b905060008373ffffffffffffffffffffffffffffffffffffffff1663a9059cbb84846040518363ffffffff1660e01b81526004016200099492919062002377565b602060405180830381600087803b158015620009af57600080fd5b505af1158015620009c4573d6000803e3d6000fd5b505050506040513d601f19601f82011682018060405250810190620009ea919062001aa2565b90508062000a2f576040517f08c379a000000000000000000000000000000000000000000000000000000000815260040162000a26906200259a565b60405180910390fd5b50505050565b7f000000000000000000000000000000000000000000000000000000000000000081565b6003818154811062000a6a57600080fd5b90600052602060002090600302016000915090508060000160009054906101000a900473ffffffffffffffffffffffffffffffffffffffff16905081565b60008060009054906101000a900473ffffffffffffffffffffffffffffffffffffffff16905090565b60606003805480602002602001604051908101604052809291908181526020016000905b8282101562000c5057838290600052602060002090600302016040518060400160405290816000820160009054906101000a900473ffffffffffffffffffffffffffffffffffffffff1673ffffffffffffffffffffffffffffffffffffffff1673ffffffffffffffffffffffffffffffffffffffff16815260200160018201600280602002604051908101604052809291906000905b8282101562000c3857838201805462000ba490620029d3565b80601f016020809104026020016040519081016040528092919081815260200182805462000bd290620029d3565b801562000c235780601f1062000bf75761010080835404028352916020019162000c23565b820191906000526020600020905b81548152906001019060200180831162000c0557829003601f168201915b50505050508152602001906001019062000b8b565b50505050815250508152602001906001019062000af5565b50505050905090565b6040518060400160405280600f81526020017f57414c4c45545f4352454154494f4e000000000000000000000000000000000081525081565b60046020528060005260406000206000915054906101000a900460ff1681565b600062000d2a6040518060400160405280600f81526020017f57414c4c45545f4352454154494f4e0000000000000000000000000000000000815250848460405160200162000d049392919062002304565b6040516020818303038152906040528051906020012062000d2462001481565b62001512565b905092915050565b60025481565b62000d4262001135565b73ffffffffffffffffffffffffffffffffffffffff1662000d6262000aa8565b73ffffffffffffffffffffffffffffffffffffffff161462000dbb576040517f08c379a000000000000000000000000000000000000000000000000000000000815260040162000db290620025bc565b60405180910390fd5b600073ffffffffffffffffffffffffffffffffffffffff168173ffffffffffffffffffffffffffffffffffffffff16141562000e2e576040517f08c379a000000000000000000000000000000000000000000000000000000000815260040162000e259062002534565b60405180910390fd5b62000e3981620013bd565b50565b62000e4662001135565b73ffffffffffffffffffffffffffffffffffffffff1662000e6662000aa8565b73ffffffffffffffffffffffffffffffffffffffff161462000ebf576040517f08c379a000000000000000000000000000000000000000000000000000000000815260040162000eb690620025bc565b60405180910390fd5b600460008573ffffffffffffffffffffffffffffffffffffffff1673ffffffffffffffffffffffffffffffffffffffff16815260200190815260200160002060009054906101000a900460ff161562000f4f576040517f08c379a000000000000000000000000000000000000000000000000000000000815260040162000f4690620025de565b60405180910390fd5b60005b83839050811015620010ab573684848381811062000f99577f4e487b7100000000000000000000000000000000000000000000000000000000600052603260045260246000fd5b9050604002019050600081600001602081019062000fb8919062001954565b73ffffffffffffffffffffffffffffffffffffffff1663a9059cbb8884602001356040518363ffffffff1660e01b815260040162000ff892919062002480565b602060405180830381600087803b1580156200101357600080fd5b505af115801562001028573d6000803e3d6000fd5b505050506040513d601f19601f820116820180604052508101906200104e919062001aa2565b90508062001093576040517f08c379a00000000000000000000000000000000000000000000000000000000081526004016200108a906200259a565b60405180910390fd5b50508080620010a29062002a09565b91505062000f52565b506001600460008673ffffffffffffffffffffffffffffffffffffffff1673ffffffffffffffffffffffffffffffffffffffff16815260200190815260200160002060006101000a81548160ff0219169083151502179055506200112f818573ffffffffffffffffffffffffffffffffffffffff166200113d90919063ffffffff16565b50505050565b600033905090565b8047101562001183576040517f08c379a00000000000000000000000000000000000000000000000000000000081526004016200117a9062002578565b60405180910390fd5b60008273ffffffffffffffffffffffffffffffffffffffff1682604051620011ab9062002343565b60006040518083038185875af1925050503d8060008114620011ea576040519150601f19603f3d011682016040523d82523d6000602084013e620011ef565b606091505b505090508062001236576040517f08c379a00000000000000000000000000000000000000000000000000000000081526004016200122d9062002556565b60405180910390fd5b505050565b6000620012b36040518060400160405280600f81526020017f57414c4c45545f4352454154494f4e000000000000000000000000000000000081525084846040516020016200128d9392919062002304565b60405160208183030381529060405280519060200120620012ad62001481565b62001529565b905092915050565b60003390508273ffffffffffffffffffffffffffffffffffffffff1663d5073322836000016020810190620012f1919062001954565b84806020019062001303919062002699565b85604001602081019062001318919062001954565b8680606001906200132a91906200263f565b8860800160208101906200133f919062001b6b565b8960a001602081019062001354919062001954565b8a60c001358a6001546040518b63ffffffff1660e01b8152600401620013849a99989796959493929190620023d1565b600060405180830381600087803b1580156200139f57600080fd5b505af1158015620013b4573d6000803e3d6000fd5b50505050505050565b60008060009054906101000a900473ffffffffffffffffffffffffffffffffffffffff169050816000806101000a81548173ffffffffffffffffffffffffffffffffffffffff021916908373ffffffffffffffffffffffffffffffffffffffff1602179055508173ffffffffffffffffffffffffffffffffffffffff168173ffffffffffffffffffffffffffffffffffffffff167f8be0079c531659141344cd1fd0a4f28419497f9722a3daafe3b4186f6b6457e060405160405180910390a35050565b606060405180602001620014959062001666565b6020820181038252601f19601f820116604052507f0000000000000000000000000000000000000000000000000000000000000000604051602001620014dc91906200235a565b604051602081830303815290604052604051602001620014fe929190620022dc565b604051602081830303815290604052905090565b600062001521838330620015b5565b905092915050565b600080838351602085016000f59050600073ffffffffffffffffffffffffffffffffffffffff168173ffffffffffffffffffffffffffffffffffffffff161415620015ab576040517f08c379a0000000000000000000000000000000000000000000000000000000008152600401620015a29062002600565b60405180910390fd5b8091505092915050565b60008083805190602001209050600060ff60f81b848784604051602001620015e1949392919062002286565b604051602081830303815290604052805190602001209050606081901b60601c925050509392505050565b826002810192821562001653579160200282015b82811115620016525782518290805190602001906200164192919062001674565b509160200191906001019062001620565b5b50905062001662919062001705565b5090565b6102bf8062002bcb83390190565b8280546200168290620029d3565b90600052602060002090601f016020900481019282620016a65760008555620016f2565b82601f10620016c157805160ff1916838001178555620016f2565b82800160010185558215620016f2579182015b82811115620016f1578251825591602001919060010190620016d4565b5b5090506200170191906200172d565b5090565b5b808211156200172957600081816200171f91906200174c565b5060010162001706565b5090565b5b80821115620017485760008160009055506001016200172e565b5090565b5080546200175a90620029d3565b6000825580601f106200176e57506200178f565b601f0160209004906000526020600020908101906200178e91906200172d565b5b50565b6000620017a9620017a384620026f2565b620026be565b9050808260005b85811015620017e45781358501620017c98882620018c5565b845260208401935060208301925050600181019050620017b0565b5050509392505050565b600062001805620017ff846200271b565b620026be565b9050828152602081018484840111156200181e57600080fd5b6200182b8482856200298e565b509392505050565b600081359050620018448162002b48565b92915050565b6000813590506200185b8162002b62565b92915050565b60008083601f8401126200187457600080fd5b8235905067ffffffffffffffff8111156200188e57600080fd5b602083019150836040820283011115620018a757600080fd5b9250929050565b600081519050620018bf8162002b7c565b92915050565b600082601f830112620018d757600080fd5b8135620018e9848260208601620017ee565b91505092915050565b600061010082840312156200190657600080fd5b81905092915050565b600081359050620019208162002b96565b92915050565b600081519050620019378162002b96565b92915050565b6000813590506200194e8162002bb0565b92915050565b6000602082840312156200196757600080fd5b6000620019778482850162001833565b91505092915050565b6000602082840312156200199357600080fd5b6000620019a3848285016200184a565b91505092915050565b60008060408385031215620019c057600080fd5b6000620019d08582860162001833565b9250506020620019e3858286016200184a565b9150509250929050565b6000806000806060858703121562001a0457600080fd5b600062001a148782880162001833565b945050602085013567ffffffffffffffff81111562001a3257600080fd5b62001a408782880162001861565b9350935050604062001a55878288016200190f565b91505092959194509250565b6000806040838503121562001a7557600080fd5b600062001a858582860162001833565b925050602062001a98858286016200190f565b9150509250929050565b60006020828403121562001ab557600080fd5b600062001ac584828501620018ae565b91505092915050565b60006020828403121562001ae157600080fd5b600082013567ffffffffffffffff81111562001afc57600080fd5b62001b0a84828501620018f2565b91505092915050565b60006020828403121562001b2657600080fd5b600062001b36848285016200190f565b91505092915050565b60006020828403121562001b5257600080fd5b600062001b628482850162001926565b91505092915050565b60006020828403121562001b7e57600080fd5b600062001b8e848285016200193d565b91505092915050565b600062001ba684848462001ea4565b90509392505050565b600062001bbd838362001ed7565b905092915050565b600062001bd3838362002208565b905092915050565b62001be68162002952565b82525050565b62001bf781620028ae565b82525050565b62001c08816200289a565b82525050565b62001c19816200289a565b82525050565b62001c3462001c2e826200289a565b62002a57565b82525050565b600062001c488385620027d0565b93507f07ffffffffffffffffffffffffffffffffffffffffffffffffffffffffffffff83111562001c7857600080fd5b60208302925062001c8b8385846200298e565b82840190509392505050565b600062001ca48262002772565b62001cb08185620027ec565b93508360208202850162001cc4856200274e565b8060005b8581101562001d1257848403895262001ce2828462002840565b62001cef86828462001b97565b955062001cfc84620027a9565b935060208b019a50505060018101905062001cc8565b50829750879550505050505092915050565b600062001d31826200277d565b62001d3d8185620027e1565b93508360208202850162001d518562002758565b8060005b8581101562001d93578484038952815162001d71858262001baf565b945062001d7e83620027b6565b925060208a0199505060018101905062001d55565b50829750879550505050505092915050565b600062001db28262002788565b62001dbe8185620027f7565b93508360208202850162001dd28562002762565b8060005b8581101562001e14578484038952815162001df2858262001bc5565b945062001dff83620027c3565b925060208a0199505060018101905062001dd6565b50829750879550505050505092915050565b62001e3181620028c2565b82525050565b62001e4c62001e4682620028ce565b62002a6b565b82525050565b62001e6762001e6182620028fa565b62002a75565b82525050565b600062001e7a8262002793565b62001e86818562002808565b935062001e988185602086016200299d565b80840191505092915050565b600062001eb2838562002813565b935062001ec18385846200298e565b62001ecc8362002b2a565b840190509392505050565b600062001ee4826200279e565b62001ef0818562002813565b935062001f028185602086016200299d565b62001f0d8162002b2a565b840191505092915050565b600062001f25826200279e565b62001f31818562002824565b935062001f438185602086016200299d565b62001f4e8162002b2a565b840191505092915050565b600062001f66826200279e565b62001f72818562002835565b935062001f848185602086016200299d565b80840191505092915050565b600062001f9f60138362002824565b91507f4e4f5420454e4f55474820464f522046454553000000000000000000000000006000830152602082019050919050565b600062001fe160268362002824565b91507f4f776e61626c653a206e6577206f776e657220697320746865207a65726f206160008301527f64647265737300000000000000000000000000000000000000000000000000006020830152604082019050919050565b600062002049603a8362002824565b91507f416464726573733a20756e61626c6520746f2073656e642076616c75652c207260008301527f6563697069656e74206d617920686176652072657665727465640000000000006020830152604082019050919050565b6000620020b1601d8362002824565b91507f416464726573733a20696e73756666696369656e742062616c616e63650000006000830152602082019050919050565b6000620020f360158362002824565b91507f546f6b656e207472616e73666572206661696c656400000000000000000000006000830152602082019050919050565b60006200213560208362002824565b91507f4f776e61626c653a2063616c6c6572206973206e6f7420746865206f776e65726000830152602082019050919050565b600062002177601d8362002824565b91507f746869732077616c6c657420697320616c72656164792066756e6465640000006000830152602082019050919050565b6000620021b960008362002808565b9150600082019050919050565b6000620021d5600e8362002824565b91507f435245415445325f4641494c45440000000000000000000000000000000000006000830152602082019050919050565b600060408301600083015162002222600086018262001bfd565b50602083015184820360208601526200223c828262001d24565b9150508091505092915050565b620022548162002924565b82525050565b6200226f620022698262002924565b62002a93565b82525050565b62002280816200292e565b82525050565b600062002294828762001e37565b600182019150620022a6828662001c1f565b601482019150620022b8828562001e52565b602082019150620022ca828462001e52565b60208201915081905095945050505050565b6000620022ea828562001e6d565b9150620022f8828462001e6d565b91508190509392505050565b600062002312828662001f59565b915062002320828562001c1f565b6014820191506200233282846200225a565b602082019150819050949350505050565b60006200235082620021aa565b9150819050919050565b600060208201905062002371600083018462001c0e565b92915050565b60006040820190506200238e600083018562001bdb565b6200239d602083018462002249565b9392505050565b6000604082019050620023bb600083018562001c0e565b620023ca602083018462001c0e565b9392505050565b600061012082019050620023e9600083018d62001c0e565b8181036020830152620023fd818c62001c97565b90506200240e604083018b62001c0e565b81810360608301526200242381898b62001c3a565b905062002434608083018862002275565b6200244360a083018762001bec565b6200245260c083018662002249565b6200246160e083018562001c0e565b6200247161010083018462002249565b9b9a5050505050505050505050565b600060408201905062002497600083018562001c0e565b620024a6602083018462002249565b9392505050565b60006020820190508181036000830152620024c9818462001da5565b905092915050565b6000602082019050620024e8600083018462001e26565b92915050565b600060208201905081810360008301526200250a818462001f18565b905092915050565b600060208201905081810360008301526200252d8162001f90565b9050919050565b600060208201905081810360008301526200254f8162001fd2565b9050919050565b6000602082019050818103600083015262002571816200203a565b9050919050565b600060208201905081810360008301526200259381620020a2565b9050919050565b60006020820190508181036000830152620025b581620020e4565b9050919050565b60006020820190508181036000830152620025d78162002126565b9050919050565b60006020820190508181036000830152620025f98162002168565b9050919050565b600060208201905081810360008301526200261b81620021c6565b9050919050565b600060208201905062002639600083018462002249565b92915050565b600080833560016020038436030381126200265957600080fd5b80840192508235915067ffffffffffffffff8211156200267857600080fd5b6020830192506020820236038313156200269157600080fd5b509250929050565b600082356001604003833603038112620026b257600080fd5b80830191505092915050565b6000604051905081810181811067ffffffffffffffff82111715620026e857620026e762002afb565b5b8060405250919050565b600067ffffffffffffffff82111562002710576200270f62002afb565b5b602082029050919050565b600067ffffffffffffffff82111562002739576200273862002afb565b5b601f19601f8301169050602081019050919050565b6000819050919050565b6000819050919050565b6000819050602082019050919050565b600060029050919050565b600060029050919050565b600081519050919050565b600081519050919050565b600081519050919050565b6000602082019050919050565b6000602082019050919050565b6000602082019050919050565b600082825260208201905092915050565b600081905092915050565b600081905092915050565b600082825260208201905092915050565b600081905092915050565b600082825260208201905092915050565b600082825260208201905092915050565b600081905092915050565b600080833560016020038436030381126200285a57600080fd5b83810192508235915060208301925067ffffffffffffffff8211156200287f57600080fd5b6001820236038413156200289257600080fd5b509250929050565b6000620028a78262002904565b9050919050565b6000620028bb8262002904565b9050919050565b60008115159050919050565b60007fff0000000000000000000000000000000000000000000000000000000000000082169050919050565b6000819050919050565b600073ffffffffffffffffffffffffffffffffffffffff82169050919050565b6000819050919050565b600060ff82169050919050565b60006200294b3660028462001792565b9050919050565b60006200295f8262002966565b9050919050565b600062002973826200297a565b9050919050565b6000620029878262002904565b9050919050565b82818337600083830152505050565b60005b83811015620029bd578082015181840152602081019050620029a0565b83811115620029cd576000848401525b50505050565b60006002820490506001821680620029ec57607f821691505b6020821081141562002a035762002a0262002acc565b5b50919050565b600062002a168262002924565b91507fffffffffffffffffffffffffffffffffffffffffffffffffffffffffffffffff82141562002a4c5762002a4b62002a9d565b5b600182019050919050565b600062002a648262002a7f565b9050919050565b6000819050919050565b6000819050919050565b600062002a8c8262002b3b565b9050919050565b6000819050919050565b7f4e487b7100000000000000000000000000000000000000000000000000000000600052601160045260246000fd5b7f4e487b7100000000000000000000000000000000000000000000000000000000600052602260045260246000fd5b7f4e487b7100000000000000000000000000000000000000000000000000000000600052604160045260246000fd5b6000601f19601f8301169050919050565b60008160601b9050919050565b62002b53816200289a565b811462002b5f57600080fd5b50565b62002b6d81620028ae565b811462002b7957600080fd5b50565b62002b8781620028c2565b811462002b9357600080fd5b50565b62002ba18162002924565b811462002bad57600080fd5b50565b62002bbb816200292e565b811462002bc757600080fd5b5056fe608060405234801561001057600080fd5b506040516102bf3803806102bf833981810160405281019061003291906100fd565b600073ffffffffffffffffffffffffffffffffffffffff168173ffffffffffffffffffffffffffffffffffffffff1614156100a2576040517f08c379a00000000000000000000000000000000000000000000000000000000081526004016100999061018c565b60405180910390fd5b806000806101000a81548173ffffffffffffffffffffffffffffffffffffffff021916908373ffffffffffffffffffffffffffffffffffffffff16021790555050610206565b6000815190506100f7816101ef565b92915050565b60006020828403121561010f57600080fd5b600061011d848285016100e8565b91505092915050565b60006101336024836101ac565b91507f496e76616c6964206d617374657220636f707920616464726573732070726f7660008301527f69646564000000000000000000000000000000000000000000000000000000006020830152604082019050919050565b600060208201905081810360008301526101a581610126565b9050919050565b600082825260208201905092915050565b60006101c8826101cf565b9050919050565b600073ffffffffffffffffffffffffffffffffffffffff82169050919050565b6101f8816101bd565b811461020357600080fd5b50565b60ab806102146000396000f3fe608060405273ffffffffffffffffffffffffffffffffffffffff600054167fa619486e0000000000000000000000000000000000000000000000000000000060003514156050578060005260206000f35b3660008037600080366000845af43d6000803e60008114156070573d6000fd5b3d6000f3fea264697066735822122015e3c3dec6499b5745f676372025af5faac242783eda3bf3c86e4f0a40504e4964736f6c63430008000033a2646970667358221220d4885ddfa8b1a293ced389f24168dfa05b8be7fc2835ca476e9d6844e877b1fb64736f6c63430008000033",
  "immutableReferences": {
    "3792": [
      {
        "length": 32,
        "start": 2615
      },
      {
        "length": 32,
        "start": 5291
      }
    ]
  },
  "source": "// SPDX-License-Identifier: GPL-2.0-or-later\npragma solidity >=0.7.6;\npragma experimental ABIEncoderV2;\n\nimport \"./otp_wallet.sol\";\nimport \"./external/walletproxy.sol\";\nimport \"./external/create2.sol\";\nimport \"./external/signatureutil.sol\";\nimport \"@openzeppelin/contracts/access/Ownable.sol\";\nimport \"@openzeppelin/contracts/token/ERC20/IERC20.sol\";\nimport \"@openzeppelin/contracts/utils/Address.sol\";\n\ncontract WalletFactory is Ownable {\n    using Address for address payable;\n\n    event WalletCreated(address wallet, address owner);\n    event Debug(bytes32 signHash, address addr);\n\n    address public immutable walletImplementation;\n    string public constant WALLET_CREATION = \"WALLET_CREATION\";\n    uint256 public feeAmount = 0.09 ether; // 0.09 ONE\n    uint public freeUserCap = 1000; \n\n    struct CreateRecord {\n        address wallet;\n        string[2] domain;\n    }\n\n    CreateRecord[] public created;\n    mapping(address => bool) public isFundedWallet;\n\n    struct WalletConfig {\n        address resolver;\n        string[2] domain;\n        address owner;\n        bytes32[] rootHash;\n        uint8 merkleHeight;\n        address drainAddr;\n        uint256 dailyLimit;\n        uint256 salt;\n        // address feeReceipient;\n        // uint256 feeAmount;\n    }\n\n    struct FundingData {\n        address tokenAddress;\n        uint amount;\n    }\n\n    constructor(address _walletImplementation) {\n        walletImplementation = _walletImplementation;\n    }\n\n    receive() external payable {}\n\n    function withdraw(address payable to) public onlyOwner {\n        uint256 balance = address(this).balance;\n        payable(to).sendValue(balance);\n    }\n\n    function withdrawErc20(address tokenAddress, address payable to) public onlyOwner {\n        uint balance = IERC20(tokenAddress).balanceOf(address(this));\n        bool sent = IERC20(tokenAddress).transfer(to, balance);\n        require(sent, \"Token transfer failed\");   \n    }\n\n    function createWallet(WalletConfig calldata config) external onlyOwner returns (address wallet) {\n        // address found;\n        // uint16 ver;\n        // (found, ver) =  NameRegistry(this).getContractDetails(config.name);\n        // require(found == address(0x0), \"REGISTRY MUST BE AVAILABLE\");\n\n        address addr = computeWalletAddress(config.owner, config.salt);\n\n        // set feeAmount to 0 for first 1000 users\n        if (created.length > freeUserCap) {\n            require(addr.balance >= feeAmount, \"NOT ENOUGH FOR FEES\");\n        } else {\n            feeAmount = 0;\n        }\n        // require(NameRegistry(this).registerName(config.name, addr, 1));\n\n        wallet = _deploy(config.owner, config.salt);\n        _initializeWallet(wallet, config);\n\n        created.push(CreateRecord(address(wallet), config.domain));\n        isFundedWallet[wallet] = false;\n        emit WalletCreated(address(wallet), config.owner);\n    }\n\n    // send initial ONE&ERC20 tokens to user's wallet \n    function initialPortfolioFunding(address wallet, FundingData[] calldata fundingTokens, uint ONEAmount) external onlyOwner {\n        require(!isFundedWallet[wallet], \"this wallet is already funded\");\n\n        // fund ERC20 toknes\n        for (uint i=0; i< fundingTokens.length; i++) {\n            FundingData calldata token = fundingTokens[i];\n            bool sent = IERC20(token.tokenAddress).transfer(wallet, token.amount);\n            require(sent, \"Token transfer failed\");   \n        }\n\n        isFundedWallet[wallet] = true;\n\n        // fund ONE at last\n        payable(wallet).sendValue(ONEAmount);\n    }\n\n    function computeWalletAddress(address owner, uint256 salt) public view returns (address) {\n        return Create2.computeAddress(keccak256(abi.encodePacked(WALLET_CREATION, owner, salt)), getWalletCode());\n    }\n\n    function getCreated() public view returns (CreateRecord[] memory) {\n        return created;\n    }\n\n    // --- Internal functions ---\n\n    function _initializeWallet(address wallet, WalletConfig calldata config) internal {\n        address feeReceipient = msg.sender;\n\n        TOTPWallet(payable(wallet)).initialize(\n            config.resolver,\n            config.domain,\n            config.owner,\n            config.rootHash,\n            config.merkleHeight,\n            payable(config.drainAddr),\n            config.dailyLimit,\n            feeReceipient,\n            feeAmount\n        );\n\n        //TOTPWallet(payable(wallet)).registerENS(config.subdomain, config.domain, config.duration);\n    }\n\n    function _deploy(address owner, uint256 salt) internal returns (address payable wallet) {\n        // Deploy the wallet proxy\n        wallet = Create2.deploy(keccak256(abi.encodePacked(WALLET_CREATION, owner, salt)), getWalletCode());\n    }\n\n    function getWalletCode() internal view returns (bytes memory) {\n        return abi.encodePacked(type(WalletProxy).creationCode, abi.encode(walletImplementation));\n    }\n}\n",
  "sourcePath": "/Users/okudajunta/Desktop/nobank/contracts/contracts/contracts/wallet_factory.sol",
  "compiler": {
    "name": "solc",
    "version": "0.8.0+commit.c7dfd78e.Emscripten.clang"
  },
  "schemaVersion": "3.4.3",
  "updatedAt": "2021-12-16T06:12:42.628Z",
  "networkType": "ethereum",
  "devdoc": {
    "kind": "dev",
    "methods": {
      "owner()": {
        "details": "Returns the address of the current owner."
      },
      "renounceOwnership()": {
        "details": "Leaves the contract without owner. It will not be possible to call `onlyOwner` functions anymore. Can only be called by the current owner. NOTE: Renouncing ownership will leave the contract without an owner, thereby removing any functionality that is only available to the owner."
      },
      "transferOwnership(address)": {
        "details": "Transfers ownership of the contract to a new account (`newOwner`). Can only be called by the current owner."
      }
    },
    "version": 1
  },
  "userdoc": {
    "kind": "user",
    "methods": {},
    "version": 1
  }
}